{
  "_format": "hh-sol-artifact-1",
  "contractName": "CapsulMe",
  "sourceName": "contracts/CapsulMe.sol",
  "abi": [
    {
      "inputs": [],
      "stateMutability": "nonpayable",
      "type": "constructor"
    },
    {
      "inputs": [],
      "name": "AlreadySigned",
      "type": "error"
    },
    {
      "inputs": [],
      "name": "CapsuleAlreadyOpened",
      "type": "error"
    },
    {
      "inputs": [
        {
          "internalType": "address",
          "name": "sender",
          "type": "address"
        },
        {
          "internalType": "uint256",
          "name": "tokenId",
          "type": "uint256"
        },
        {
          "internalType": "address",
          "name": "owner",
          "type": "address"
        }
      ],
      "name": "ERC721IncorrectOwner",
      "type": "error"
    },
    {
      "inputs": [
        {
          "internalType": "address",
          "name": "operator",
          "type": "address"
        },
        {
          "internalType": "uint256",
          "name": "tokenId",
          "type": "uint256"
        }
      ],
      "name": "ERC721InsufficientApproval",
      "type": "error"
    },
    {
      "inputs": [
        {
          "internalType": "address",
          "name": "approver",
          "type": "address"
        }
      ],
      "name": "ERC721InvalidApprover",
      "type": "error"
    },
    {
      "inputs": [
        {
          "internalType": "address",
          "name": "operator",
          "type": "address"
        }
      ],
      "name": "ERC721InvalidOperator",
      "type": "error"
    },
    {
      "inputs": [
        {
          "internalType": "address",
          "name": "owner",
          "type": "address"
        }
      ],
      "name": "ERC721InvalidOwner",
      "type": "error"
    },
    {
      "inputs": [
        {
          "internalType": "address",
          "name": "receiver",
          "type": "address"
        }
      ],
      "name": "ERC721InvalidReceiver",
      "type": "error"
    },
    {
      "inputs": [
        {
          "internalType": "address",
          "name": "sender",
          "type": "address"
        }
      ],
      "name": "ERC721InvalidSender",
      "type": "error"
    },
    {
      "inputs": [
        {
          "internalType": "uint256",
          "name": "tokenId",
          "type": "uint256"
        }
      ],
      "name": "ERC721NonexistentToken",
      "type": "error"
    },
    {
      "inputs": [],
      "name": "EthTransferFailed",
      "type": "error"
    },
    {
      "inputs": [],
      "name": "InvalidReceiver",
      "type": "error"
    },
    {
      "inputs": [],
      "name": "InvalidSigner",
      "type": "error"
    },
    {
      "inputs": [],
      "name": "NeedMoreSigners",
      "type": "error"
    },
    {
      "inputs": [],
      "name": "NotAuthorizedSigner",
      "type": "error"
    },
    {
      "inputs": [],
      "name": "NotOwner",
      "type": "error"
    },
    {
      "inputs": [],
      "name": "NotPactCapsule",
      "type": "error"
    },
    {
      "inputs": [],
      "name": "NotYetTime",
      "type": "error"
    },
    {
      "inputs": [
        {
          "internalType": "address",
          "name": "owner",
          "type": "address"
        }
      ],
      "name": "OwnableInvalidOwner",
      "type": "error"
    },
    {
      "inputs": [
        {
          "internalType": "address",
          "name": "account",
          "type": "address"
        }
      ],
      "name": "OwnableUnauthorizedAccount",
      "type": "error"
    },
    {
      "inputs": [
        {
          "internalType": "uint256",
          "name": "value",
          "type": "uint256"
        },
        {
          "internalType": "uint256",
          "name": "length",
          "type": "uint256"
        }
      ],
      "name": "StringsInsufficientHexLength",
      "type": "error"
    },
    {
      "inputs": [],
      "name": "ThresholdTooHigh",
      "type": "error"
    },
    {
      "inputs": [],
      "name": "ThresholdTooLow",
      "type": "error"
    },
    {
      "inputs": [],
      "name": "UnlockTimeInPast",
      "type": "error"
    },
    {
      "inputs": [],
      "name": "UseSignPactInstead",
      "type": "error"
    },
    {
      "anonymous": false,
      "inputs": [
        {
          "indexed": true,
          "internalType": "address",
          "name": "owner",
          "type": "address"
        },
        {
          "indexed": true,
          "internalType": "address",
          "name": "approved",
          "type": "address"
        },
        {
          "indexed": true,
          "internalType": "uint256",
          "name": "tokenId",
          "type": "uint256"
        }
      ],
      "name": "Approval",
      "type": "event"
    },
    {
      "anonymous": false,
      "inputs": [
        {
          "indexed": true,
          "internalType": "address",
          "name": "owner",
          "type": "address"
        },
        {
          "indexed": true,
          "internalType": "address",
          "name": "operator",
          "type": "address"
        },
        {
          "indexed": false,
          "internalType": "bool",
          "name": "approved",
          "type": "bool"
        }
      ],
      "name": "ApprovalForAll",
      "type": "event"
    },
    {
      "anonymous": false,
      "inputs": [
        {
          "indexed": true,
          "internalType": "uint256",
          "name": "tokenId",
          "type": "uint256"
        },
        {
          "indexed": true,
          "internalType": "address",
          "name": "sender",
          "type": "address"
        },
        {
          "indexed": true,
          "internalType": "address",
          "name": "receiver",
          "type": "address"
        },
        {
          "indexed": false,
          "internalType": "uint256",
          "name": "unlockTime",
          "type": "uint256"
        },
        {
          "indexed": false,
          "internalType": "enum CapsulMe.Tier",
          "name": "tier",
          "type": "uint8"
        },
        {
          "indexed": false,
          "internalType": "uint256",
          "name": "value",
          "type": "uint256"
        }
      ],
      "name": "CapsuleMinted",
      "type": "event"
    },
    {
      "anonymous": false,
      "inputs": [
        {
          "indexed": true,
          "internalType": "uint256",
          "name": "tokenId",
          "type": "uint256"
        },
        {
          "indexed": true,
          "internalType": "address",
          "name": "opener",
          "type": "address"
        },
        {
          "indexed": false,
          "internalType": "uint256",
          "name": "claimedValue",
          "type": "uint256"
        }
      ],
      "name": "CapsuleOpened",
      "type": "event"
    },
    {
      "anonymous": false,
      "inputs": [
        {
          "indexed": false,
          "internalType": "string",
          "name": "pinkCID",
          "type": "string"
        },
        {
          "indexed": false,
          "internalType": "string",
          "name": "redCID",
          "type": "string"
        },
        {
          "indexed": false,
          "internalType": "string",
          "name": "blackCID",
          "type": "string"
        }
      ],
      "name": "ImageCIDsUpdated",
      "type": "event"
    },
    {
      "anonymous": false,
      "inputs": [
        {
          "indexed": true,
          "internalType": "address",
          "name": "previousOwner",
          "type": "address"
        },
        {
          "indexed": true,
          "internalType": "address",
          "name": "newOwner",
          "type": "address"
        }
      ],
      "name": "OwnershipTransferred",
      "type": "event"
    },
    {
      "anonymous": false,
      "inputs": [
        {
          "indexed": true,
          "internalType": "uint256",
          "name": "tokenId",
          "type": "uint256"
        },
        {
          "indexed": true,
          "internalType": "address",
          "name": "initiator",
          "type": "address"
        },
        {
          "indexed": false,
          "internalType": "address[]",
          "name": "signers",
          "type": "address[]"
        },
        {
          "indexed": false,
          "internalType": "uint256",
          "name": "threshold",
          "type": "uint256"
        },
        {
          "indexed": false,
          "internalType": "uint256",
          "name": "value",
          "type": "uint256"
        }
      ],
      "name": "PactMinted",
      "type": "event"
    },
    {
      "anonymous": false,
      "inputs": [
        {
          "indexed": true,
          "internalType": "uint256",
          "name": "tokenId",
          "type": "uint256"
        },
        {
          "indexed": true,
          "internalType": "address",
          "name": "signer",
          "type": "address"
        },
        {
          "indexed": false,
          "internalType": "uint256",
          "name": "signCount",
          "type": "uint256"
        },
        {
          "indexed": false,
          "internalType": "uint256",
          "name": "threshold",
          "type": "uint256"
        }
      ],
      "name": "PactSigned",
      "type": "event"
    },
    {
      "anonymous": false,
      "inputs": [
        {
          "indexed": true,
          "internalType": "address",
          "name": "from",
          "type": "address"
        },
        {
          "indexed": true,
          "internalType": "address",
          "name": "to",
          "type": "address"
        },
        {
          "indexed": true,
          "internalType": "uint256",
          "name": "tokenId",
          "type": "uint256"
        }
      ],
      "name": "Transfer",
      "type": "event"
    },
    {
      "inputs": [
        {
          "internalType": "address",
          "name": "to",
          "type": "address"
        },
        {
          "internalType": "uint256",
          "name": "tokenId",
          "type": "uint256"
        }
      ],
      "name": "approve",
      "outputs": [],
      "stateMutability": "nonpayable",
      "type": "function"
    },
    {
      "inputs": [
        {
          "internalType": "address",
          "name": "owner",
          "type": "address"
        }
      ],
      "name": "balanceOf",
      "outputs": [
        {
          "internalType": "uint256",
          "name": "",
          "type": "uint256"
        }
      ],
      "stateMutability": "view",
      "type": "function"
    },
    {
      "inputs": [
        {
          "internalType": "uint256",
          "name": "",
          "type": "uint256"
        }
      ],
      "name": "capsules",
      "outputs": [
        {
          "internalType": "string",
          "name": "encryptedCID",
          "type": "string"
        },
        {
          "internalType": "uint256",
          "name": "unlockTime",
          "type": "uint256"
        },
        {
          "internalType": "address",
          "name": "sender",
          "type": "address"
        },
        {
          "internalType": "address",
          "name": "receiver",
          "type": "address"
        },
        {
          "internalType": "enum CapsulMe.Tier",
          "name": "tier",
          "type": "uint8"
        },
        {
          "internalType": "enum CapsulMe.Status",
          "name": "status",
          "type": "uint8"
        },
        {
          "internalType": "string",
          "name": "title",
          "type": "string"
        },
        {
          "internalType": "uint256",
          "name": "lockedValue",
          "type": "uint256"
        },
        {
          "internalType": "enum CapsulMe.CapsuleType",
          "name": "capsuleType",
          "type": "uint8"
        },
        {
          "internalType": "uint256",
          "name": "pactThreshold",
          "type": "uint256"
        },
        {
          "internalType": "uint256",
          "name": "pactSignCount",
          "type": "uint256"
        }
      ],
      "stateMutability": "view",
      "type": "function"
    },
    {
      "inputs": [
        {
          "internalType": "uint256",
          "name": "tokenId",
          "type": "uint256"
        }
      ],
      "name": "getApproved",
      "outputs": [
        {
          "internalType": "address",
          "name": "",
          "type": "address"
        }
      ],
      "stateMutability": "view",
      "type": "function"
    },
    {
      "inputs": [
        {
          "internalType": "address",
          "name": "_user",
          "type": "address"
        }
      ],
      "name": "getPactInvites",
      "outputs": [
        {
          "internalType": "uint256[]",
          "name": "",
          "type": "uint256[]"
        }
      ],
      "stateMutability": "view",
      "type": "function"
    },
    {
      "inputs": [
        {
          "internalType": "uint256",
          "name": "_tokenId",
          "type": "uint256"
        }
      ],
      "name": "getPactSigners",
      "outputs": [
        {
          "internalType": "address[]",
          "name": "",
          "type": "address[]"
        }
      ],
      "stateMutability": "view",
      "type": "function"
    },
    {
      "inputs": [
        {
          "internalType": "address",
          "name": "_user",
          "type": "address"
        }
      ],
      "name": "getReceivedCapsules",
      "outputs": [
        {
          "internalType": "uint256[]",
          "name": "",
          "type": "uint256[]"
        }
      ],
      "stateMutability": "view",
      "type": "function"
    },
    {
      "inputs": [
        {
          "internalType": "address",
          "name": "_user",
          "type": "address"
        }
      ],
      "name": "getSentCapsules",
      "outputs": [
        {
          "internalType": "uint256[]",
          "name": "",
          "type": "uint256[]"
        }
      ],
      "stateMutability": "view",
      "type": "function"
    },
    {
      "inputs": [],
      "name": "ipfsGateway",
      "outputs": [
        {
          "internalType": "string",
          "name": "",
          "type": "string"
        }
      ],
      "stateMutability": "view",
      "type": "function"
    },
    {
      "inputs": [
        {
          "internalType": "address",
          "name": "owner",
          "type": "address"
        },
        {
          "internalType": "address",
          "name": "operator",
          "type": "address"
        }
      ],
      "name": "isApprovedForAll",
      "outputs": [
        {
          "internalType": "bool",
          "name": "",
          "type": "bool"
        }
      ],
      "stateMutability": "view",
      "type": "function"
    },
    {
      "inputs": [
        {
          "internalType": "string",
          "name": "_encryptedCID",
          "type": "string"
        },
        {
          "internalType": "address[]",
          "name": "_signers",
          "type": "address[]"
        },
        {
          "internalType": "uint256",
          "name": "_threshold",
          "type": "uint256"
        },
        {
          "internalType": "string",
          "name": "_title",
          "type": "string"
        }
      ],
      "name": "mintPactCapsule",
      "outputs": [
        {
          "internalType": "uint256",
          "name": "",
          "type": "uint256"
        }
      ],
      "stateMutability": "payable",
      "type": "function"
    },
    {
      "inputs": [
        {
          "internalType": "string",
          "name": "_encryptedCID",
          "type": "string"
        },
        {
          "internalType": "uint256",
          "name": "_unlockTime",
          "type": "uint256"
        },
        {
          "internalType": "string",
          "name": "_title",
          "type": "string"
        }
      ],
      "name": "mintSelfCapsule",
      "outputs": [
        {
          "internalType": "uint256",
          "name": "",
          "type": "uint256"
        }
      ],
      "stateMutability": "payable",
      "type": "function"
    },
    {
      "inputs": [
        {
          "internalType": "string",
          "name": "_encryptedCID",
          "type": "string"
        },
        {
          "internalType": "uint256",
          "name": "_unlockTime",
          "type": "uint256"
        },
        {
          "internalType": "address",
          "name": "_receiver",
          "type": "address"
        },
        {
          "internalType": "string",
          "name": "_title",
          "type": "string"
        }
      ],
      "name": "mintSendCapsule",
      "outputs": [
        {
          "internalType": "uint256",
          "name": "",
          "type": "uint256"
        }
      ],
      "stateMutability": "payable",
      "type": "function"
    },
    {
      "inputs": [],
      "name": "name",
      "outputs": [
        {
          "internalType": "string",
          "name": "",
          "type": "string"
        }
      ],
      "stateMutability": "view",
      "type": "function"
    },
    {
      "inputs": [
        {
          "internalType": "uint256",
          "name": "_tokenId",
          "type": "uint256"
        }
      ],
      "name": "openCapsule",
      "outputs": [],
      "stateMutability": "nonpayable",
      "type": "function"
    },
    {
      "inputs": [],
      "name": "owner",
      "outputs": [
        {
          "internalType": "address",
          "name": "",
          "type": "address"
        }
      ],
      "stateMutability": "view",
      "type": "function"
    },
    {
      "inputs": [
        {
          "internalType": "uint256",
          "name": "tokenId",
          "type": "uint256"
        }
      ],
      "name": "ownerOf",
      "outputs": [
        {
          "internalType": "address",
          "name": "",
          "type": "address"
        }
      ],
      "stateMutability": "view",
      "type": "function"
    },
    {
      "inputs": [
        {
          "internalType": "uint256",
          "name": "",
          "type": "uint256"
        },
        {
          "internalType": "address",
          "name": "",
          "type": "address"
        }
      ],
      "name": "pactSigned",
      "outputs": [
        {
          "internalType": "bool",
          "name": "",
          "type": "bool"
        }
      ],
      "stateMutability": "view",
      "type": "function"
    },
    {
      "inputs": [],
      "name": "renounceOwnership",
      "outputs": [],
      "stateMutability": "nonpayable",
      "type": "function"
    },
    {
      "inputs": [
        {
          "internalType": "address",
          "name": "from",
          "type": "address"
        },
        {
          "internalType": "address",
          "name": "to",
          "type": "address"
        },
        {
          "internalType": "uint256",
          "name": "tokenId",
          "type": "uint256"
        }
      ],
      "name": "safeTransferFrom",
      "outputs": [],
      "stateMutability": "nonpayable",
      "type": "function"
    },
    {
      "inputs": [
        {
          "internalType": "address",
          "name": "from",
          "type": "address"
        },
        {
          "internalType": "address",
          "name": "to",
          "type": "address"
        },
        {
          "internalType": "uint256",
          "name": "tokenId",
          "type": "uint256"
        },
        {
          "internalType": "bytes",
          "name": "data",
          "type": "bytes"
        }
      ],
      "name": "safeTransferFrom",
      "outputs": [],
      "stateMutability": "nonpayable",
      "type": "function"
    },
    {
      "inputs": [
        {
          "internalType": "address",
          "name": "operator",
          "type": "address"
        },
        {
          "internalType": "bool",
          "name": "approved",
          "type": "bool"
        }
      ],
      "name": "setApprovalForAll",
      "outputs": [],
      "stateMutability": "nonpayable",
      "type": "function"
    },
    {
      "inputs": [
        {
          "internalType": "string",
          "name": "_pinkCID",
          "type": "string"
        },
        {
          "internalType": "string",
          "name": "_redCID",
          "type": "string"
        },
        {
          "internalType": "string",
          "name": "_blackCID",
          "type": "string"
        }
      ],
      "name": "setImageCIDs",
      "outputs": [],
      "stateMutability": "nonpayable",
      "type": "function"
    },
    {
      "inputs": [
        {
          "internalType": "string",
          "name": "_gateway",
          "type": "string"
        }
      ],
      "name": "setIpfsGateway",
      "outputs": [],
      "stateMutability": "nonpayable",
      "type": "function"
    },
    {
      "inputs": [
        {
          "internalType": "uint256",
          "name": "_tokenId",
          "type": "uint256"
        }
      ],
      "name": "signPact",
      "outputs": [],
      "stateMutability": "nonpayable",
      "type": "function"
    },
    {
      "inputs": [
        {
          "internalType": "bytes4",
          "name": "interfaceId",
          "type": "bytes4"
        }
      ],
      "name": "supportsInterface",
      "outputs": [
        {
          "internalType": "bool",
          "name": "",
          "type": "bool"
        }
      ],
      "stateMutability": "view",
      "type": "function"
    },
    {
      "inputs": [],
      "name": "symbol",
      "outputs": [
        {
          "internalType": "string",
          "name": "",
          "type": "string"
        }
      ],
      "stateMutability": "view",
      "type": "function"
    },
    {
      "inputs": [
        {
          "internalType": "uint256",
          "name": "",
          "type": "uint256"
        }
      ],
      "name": "tierImageCIDs",
      "outputs": [
        {
          "internalType": "string",
          "name": "",
          "type": "string"
        }
      ],
      "stateMutability": "view",
      "type": "function"
    },
    {
      "inputs": [
        {
          "internalType": "uint256",
          "name": "_tokenId",
          "type": "uint256"
        }
      ],
      "name": "timeRemaining",
      "outputs": [
        {
          "internalType": "uint256",
          "name": "",
          "type": "uint256"
        }
      ],
      "stateMutability": "view",
      "type": "function"
    },
    {
      "inputs": [
        {
          "internalType": "uint256",
          "name": "tokenId",
          "type": "uint256"
        }
      ],
      "name": "tokenURI",
      "outputs": [
        {
          "internalType": "string",
          "name": "",
          "type": "string"
        }
      ],
      "stateMutability": "view",
      "type": "function"
    },
    {
      "inputs": [
        {
          "internalType": "address",
          "name": "from",
          "type": "address"
        },
        {
          "internalType": "address",
          "name": "to",
          "type": "address"
        },
        {
          "internalType": "uint256",
          "name": "tokenId",
          "type": "uint256"
        }
      ],
      "name": "transferFrom",
      "outputs": [],
      "stateMutability": "nonpayable",
      "type": "function"
    },
    {
      "inputs": [
        {
          "internalType": "address",
          "name": "newOwner",
          "type": "address"
        }
      ],
      "name": "transferOwnership",
      "outputs": [],
      "stateMutability": "nonpayable",
      "type": "function"
    }
  ],
  "bytecode": "0x608060405260405180606001604052806022815260200162006d3160229139601190816200002e919062000480565b503480156200003b575f80fd5b50336040518060400160405280600881526020017f43617073756c4d650000000000000000000000000000000000000000000000008152506040518060400160405280600481526020017f4341505300000000000000000000000000000000000000000000000000000000815250815f9081620000b9919062000480565b508060019081620000cb919062000480565b5050505f73ffffffffffffffffffffffffffffffffffffffff168173ffffffffffffffffffffffffffffffffffffffff160362000141575f6040517f1e4fbdf7000000000000000000000000000000000000000000000000000000008152600401620001389190620005a7565b60405180910390fd5b62000152816200015960201b60201c565b50620005c2565b5f60065f9054906101000a900473ffffffffffffffffffffffffffffffffffffffff1690508160065f6101000a81548173ffffffffffffffffffffffffffffffffffffffff021916908373ffffffffffffffffffffffffffffffffffffffff1602179055508173ffffffffffffffffffffffffffffffffffffffff168173ffffffffffffffffffffffffffffffffffffffff167f8be0079c531659141344cd1fd0a4f28419497f9722a3daafe3b4186f6b6457e060405160405180910390a35050565b5f81519050919050565b7f4e487b71000000000000000000000000000000000000000000000000000000005f52604160045260245ffd5b7f4e487b71000000000000000000000000000000000000000000000000000000005f52602260045260245ffd5b5f60028204905060018216806200029857607f821691505b602082108103620002ae57620002ad62000253565b5b50919050565b5f819050815f5260205f209050919050565b5f6020601f8301049050919050565b5f82821b905092915050565b5f60088302620003127fffffffffffffffffffffffffffffffffffffffffffffffffffffffffffffffff82620002d5565b6200031e8683620002d5565b95508019841693508086168417925050509392505050565b5f819050919050565b5f819050919050565b5f62000368620003626200035c8462000336565b6200033f565b62000336565b9050919050565b5f819050919050565b620003838362000348565b6200039b62000392826200036f565b848454620002e1565b825550505050565b5f90565b620003b1620003a3565b620003be81848462000378565b505050565b5b81811015620003e557620003d95f82620003a7565b600181019050620003c4565b5050565b601f8211156200043457620003fe81620002b4565b6200040984620002c6565b8101602085101562000419578190505b620004316200042885620002c6565b830182620003c3565b50505b505050565b5f82821c905092915050565b5f620004565f198460080262000439565b1980831691505092915050565b5f62000470838362000445565b9150826002028217905092915050565b6200048b826200021c565b67ffffffffffffffff811115620004a757620004a662000226565b5b620004b3825462000280565b620004c0828285620003e9565b5f60209050601f831160018114620004f6575f8415620004e1578287015190505b620004ed858262000463565b8655506200055c565b601f1984166200050686620002b4565b5f5b828110156200052f5784890151825560018201915060208501945060208101905062000508565b868310156200054f57848901516200054b601f89168262000445565b8355505b6001600288020188555050505b505050505050565b5f73ffffffffffffffffffffffffffffffffffffffff82169050919050565b5f6200058f8262000564565b9050919050565b620005a18162000583565b82525050565b5f602082019050620005bc5f83018462000596565b92915050565b61676180620005d05f395ff3fe6080604052600436106101e2575f3560e01c80636352211e11610101578063aeefb0e411610094578063e24e3ffb11610063578063e24e3ffb1461073a578063e985e9c514610776578063ea3d9020146107b2578063f2fde38b146107ee576101e2565b8063aeefb0e41461066a578063b88d4fde146106a6578063c749c9b0146106ce578063c87b56dd146106fe576101e2565b8063880aad75116100d0578063880aad75146105b25780638da5cb5b146105ee57806395d89b4114610618578063a22cb46514610642576101e2565b80636352211e146104f4578063692cf5cd1461053057806370a0823114610560578063715018a61461059c576101e2565b806323b872dd11610179578063517bbf4611610148578063517bbf46146104345780635996a2711461047a5780635c18e55c146104a25780635e6ffac7146104ca576101e2565b806323b872dd14610380578063240c8d1d146103a857806342842e0e146103e457806344e1748a1461040c576101e2565b8063081812fc116101b5578063081812fc146102c4578063095ea7b31461030057806312c17ff414610328578063187bc2cd14610350576101e2565b806301c04ae5146101e657806301ffc9a71461022257806306fdde031461025e5780630803540a14610288575b5f80fd5b3480156101f1575f80fd5b5061020c60048036038101906102079190614543565b610816565b604051610219919061459b565b60405180910390f35b34801561022d575f80fd5b5061024860048036038101906102439190614609565b610840565b604051610255919061459b565b60405180910390f35b348015610269575f80fd5b50610272610921565b60405161027f91906146be565b60405180910390f35b348015610293575f80fd5b506102ae60048036038101906102a991906146de565b6109b0565b6040516102bb91906147c0565b60405180910390f35b3480156102cf575f80fd5b506102ea60048036038101906102e591906146de565b610a4c565b6040516102f791906147ef565b60405180910390f35b34801561030b575f80fd5b5061032660048036038101906103219190614808565b610a67565b005b348015610333575f80fd5b5061034e600480360381019061034991906146de565b610a7d565b005b61036a60048036038101906103659190614972565b610f5b565b6040516103779190614a09565b60405180910390f35b34801561038b575f80fd5b506103a660048036038101906103a19190614a22565b610faa565b005b3480156103b3575f80fd5b506103ce60048036038101906103c99190614a72565b6110a9565b6040516103db9190614b54565b60405180910390f35b3480156103ef575f80fd5b5061040a60048036038101906104059190614a22565b61113c565b005b348015610417575f80fd5b50610432600480360381019061042d9190614b74565b61115b565b005b34801561043f575f80fd5b5061045a600480360381019061045591906146de565b611176565b6040516104719b9a99989796959493929190614cba565b60405180910390f35b348015610485575f80fd5b506104a0600480360381019061049b9190614d71565b61133c565b005b3480156104ad575f80fd5b506104c860048036038101906104c391906146de565b6113ef565b005b3480156104d5575f80fd5b506104de6116bb565b6040516104eb91906146be565b60405180910390f35b3480156104ff575f80fd5b5061051a600480360381019061051591906146de565b611747565b60405161052791906147ef565b60405180910390f35b61054a60048036038101906105459190614ed9565b611758565b6040516105579190614a09565b60405180910390f35b34801561056b575f80fd5b5061058660048036038101906105819190614a72565b611d1d565b6040516105939190614a09565b60405180910390f35b3480156105a7575f80fd5b506105b0611dd3565b005b3480156105bd575f80fd5b506105d860048036038101906105d39190614a72565b611de6565b6040516105e59190614b54565b60405180910390f35b3480156105f9575f80fd5b50610602611e79565b60405161060f91906147ef565b60405180910390f35b348015610623575f80fd5b5061062c611ea1565b60405161063991906146be565b60405180910390f35b34801561064d575f80fd5b5061066860048036038101906106639190614fbb565b611f31565b005b348015610675575f80fd5b50610690600480360381019061068b91906146de565b611f47565b60405161069d91906146be565b60405180910390f35b3480156106b1575f80fd5b506106cc60048036038101906106c79190615097565b611fe6565b005b6106e860048036038101906106e39190615117565b61200b565b6040516106f59190614a09565b60405180910390f35b348015610709575f80fd5b50610724600480360381019061071f91906146de565b6120c0565b60405161073191906146be565b60405180910390f35b348015610745575f80fd5b50610760600480360381019061075b9190614a72565b612ba8565b60405161076d9190614b54565b60405180910390f35b348015610781575f80fd5b5061079c600480360381019061079791906151b3565b612c3b565b6040516107a9919061459b565b60405180910390f35b3480156107bd575f80fd5b506107d860048036038101906107d391906146de565b612cc9565b6040516107e59190614a09565b60405180910390f35b3480156107f9575f80fd5b50610814600480360381019061080f9190614a72565b612d07565b005b600c602052815f5260405f20602052805f5260405f205f915091509054906101000a900460ff1681565b5f7f80ac58cd000000000000000000000000000000000000000000000000000000007bffffffffffffffffffffffffffffffffffffffffffffffffffffffff1916827bffffffffffffffffffffffffffffffffffffffffffffffffffffffff1916148061090a57507f5b5e139f000000000000000000000000000000000000000000000000000000007bffffffffffffffffffffffffffffffffffffffffffffffffffffffff1916827bffffffffffffffffffffffffffffffffffffffffffffffffffffffff1916145b8061091a575061091982612d8b565b5b9050919050565b60605f805461092f9061521e565b80601f016020809104026020016040519081016040528092919081815260200182805461095b9061521e565b80156109a65780601f1061097d576101008083540402835291602001916109a6565b820191905f5260205f20905b81548152906001019060200180831161098957829003601f168201915b5050505050905090565b6060600b5f8381526020019081526020015f20805480602002602001604051908101604052809291908181526020018280548015610a4057602002820191905f5260205f20905b815f9054906101000a900473ffffffffffffffffffffffffffffffffffffffff1673ffffffffffffffffffffffffffffffffffffffff16815260200190600101908083116109f7575b50505050509050919050565b5f610a5682612df4565b50610a6082612e7a565b9050919050565b610a798282610a74612eb3565b612eba565b5050565b5f60085f8381526020019081526020015f209050600180811115610aa457610aa3614bbb565b5b816006015f9054906101000a900460ff166001811115610ac757610ac6614bbb565b5b14610afe576040517f26e2213b00000000000000000000000000000000000000000000000000000000815260040160405180910390fd5b5f6002811115610b1157610b10614bbb565b5b8160030160159054906101000a900460ff166002811115610b3557610b34614bbb565b5b14610b6c576040517f21e30f1400000000000000000000000000000000000000000000000000000000815260040160405180910390fd5b600c5f8381526020019081526020015f205f3373ffffffffffffffffffffffffffffffffffffffff1673ffffffffffffffffffffffffffffffffffffffff1681526020019081526020015f205f9054906101000a900460ff1615610bfc576040517fb0bd6aca00000000000000000000000000000000000000000000000000000000815260040160405180910390fd5b5f80600b5f8581526020019081526020015f20805480602002602001604051908101604052809291908181526020018280548015610c8c57602002820191905f5260205f20905b815f9054906101000a900473ffffffffffffffffffffffffffffffffffffffff1673ffffffffffffffffffffffffffffffffffffffff1681526020019060010190808311610c43575b505050505090505f5b8151811015610d01573373ffffffffffffffffffffffffffffffffffffffff16828281518110610cc857610cc761524e565b5b602002602001015173ffffffffffffffffffffffffffffffffffffffff1603610cf45760019250610d01565b8080600101915050610c95565b5081610d39576040517f54ac7bfc00000000000000000000000000000000000000000000000000000000815260040160405180910390fd5b6001600c5f8681526020019081526020015f205f3373ffffffffffffffffffffffffffffffffffffffff1673ffffffffffffffffffffffffffffffffffffffff1681526020019081526020015f205f6101000a81548160ff021916908315150217905550826008015f815480929190610db1906152a8565b91905055503373ffffffffffffffffffffffffffffffffffffffff16847f40ab680ba2c361b94936efbc039bfec1443221d8d0451a8cde0292ef7ba34fbe85600801548660070154604051610e079291906152ef565b60405180910390a38260070154836008015410610f555760028360030160156101000a81548160ff02191690836002811115610e4657610e45614bbb565b5b02179055505f836005015490505f811115610f04575f610e6586611747565b73ffffffffffffffffffffffffffffffffffffffff1682604051610e8890615343565b5f6040518083038185875af1925050503d805f8114610ec2576040519150601f19603f3d011682016040523d82523d5f602084013e610ec7565b606091505b5050905080610f02576040517f6d963f8800000000000000000000000000000000000000000000000000000000815260040160405180910390fd5b505b3373ffffffffffffffffffffffffffffffffffffffff16857f76270c867e16c1b02d645adea00d6836b88bed7c2c734a1e50e1fb94c86e2a4383604051610f4b9190614a09565b60405180910390a3505b50505050565b5f428311610f95576040517fae130dfb00000000000000000000000000000000000000000000000000000000815260040160405180910390fd5b610fa184843385612ecc565b90509392505050565b5f73ffffffffffffffffffffffffffffffffffffffff168273ffffffffffffffffffffffffffffffffffffffff160361101a575f6040517f64a0ae9200000000000000000000000000000000000000000000000000000000815260040161101191906147ef565b60405180910390fd5b5f61102d8383611028612eb3565b613267565b90508373ffffffffffffffffffffffffffffffffffffffff168173ffffffffffffffffffffffffffffffffffffffff16146110a3578382826040517f64283d7b00000000000000000000000000000000000000000000000000000000815260040161109a93929190615357565b60405180910390fd5b50505050565b6060600d5f8373ffffffffffffffffffffffffffffffffffffffff1673ffffffffffffffffffffffffffffffffffffffff1681526020019081526020015f2080548060200260200160405190810160405280929190818152602001828054801561113057602002820191905f5260205f20905b81548152602001906001019080831161111c575b50505050509050919050565b61115683838360405180602001604052805f815250611fe6565b505050565b611163613472565b80601190816111729190615529565b5050565b6008602052805f5260405f205f91509050805f0180546111959061521e565b80601f01602080910402602001604051908101604052809291908181526020018280546111c19061521e565b801561120c5780601f106111e35761010080835404028352916020019161120c565b820191905f5260205f20905b8154815290600101906020018083116111ef57829003601f168201915b505050505090806001015490806002015f9054906101000a900473ffffffffffffffffffffffffffffffffffffffff1690806003015f9054906101000a900473ffffffffffffffffffffffffffffffffffffffff16908060030160149054906101000a900460ff16908060030160159054906101000a900460ff16908060040180546112979061521e565b80601f01602080910402602001604051908101604052809291908181526020018280546112c39061521e565b801561130e5780601f106112e55761010080835404028352916020019161130e565b820191905f5260205f20905b8154815290600101906020018083116112f157829003601f168201915b505050505090806005015490806006015f9054906101000a900460ff1690806007015490806008015490508b565b611344613472565b82600e5f600381106113595761135861524e565b5b0190816113669190615529565b5081600e60016003811061137d5761137c61524e565b5b01908161138a9190615529565b5080600e6002600381106113a1576113a061524e565b5b0190816113ae9190615529565b507f9d5c38b5c5339df574a86ce9eb4aaf46b455171bc49022b18d4ee56e8166ffe58383836040516113e2939291906155f8565b60405180910390a1505050565b5f60085f8381526020019081526020015f2090505f600181111561141657611415614bbb565b5b816006015f9054906101000a900460ff16600181111561143957611438614bbb565b5b14611470576040517f323eb39300000000000000000000000000000000000000000000000000000000815260040160405180910390fd5b3373ffffffffffffffffffffffffffffffffffffffff1661149083611747565b73ffffffffffffffffffffffffffffffffffffffff16146114dd576040517f30cd747100000000000000000000000000000000000000000000000000000000815260040160405180910390fd5b806001015442101561151b576040517fbb5e828400000000000000000000000000000000000000000000000000000000815260040160405180910390fd5b60028081111561152e5761152d614bbb565b5b8160030160159054906101000a900460ff16600281111561155257611551614bbb565b5b03611589576040517f21e30f1400000000000000000000000000000000000000000000000000000000815260040160405180910390fd5b60028160030160156101000a81548160ff021916908360028111156115b1576115b0614bbb565b5b02179055505f816005015490505f811115611667575f3373ffffffffffffffffffffffffffffffffffffffff16826040516115eb90615343565b5f6040518083038185875af1925050503d805f8114611625576040519150601f19603f3d011682016040523d82523d5f602084013e61162a565b606091505b5050905080611665576040517f6d963f8800000000000000000000000000000000000000000000000000000000815260040160405180910390fd5b505b3373ffffffffffffffffffffffffffffffffffffffff16837f76270c867e16c1b02d645adea00d6836b88bed7c2c734a1e50e1fb94c86e2a43836040516116ae9190614a09565b60405180910390a3505050565b601180546116c89061521e565b80601f01602080910402602001604051908101604052809291908181526020018280546116f49061521e565b801561173f5780601f106117165761010080835404028352916020019161173f565b820191905f5260205f20905b81548152906001019060200180831161172257829003601f168201915b505050505081565b5f61175182612df4565b9050919050565b5f600284511015611795576040517fe9b271d000000000000000000000000000000000000000000000000000000000815260040160405180910390fd5b60028310156117d0576040517f398ecf8a00000000000000000000000000000000000000000000000000000000815260040160405180910390fd5b835183111561180b576040517fe56d58cf00000000000000000000000000000000000000000000000000000000815260040160405180910390fd5b5f60075f81548092919061181e906152a8565b9190505590506040518061016001604052808781526020015f81526020013373ffffffffffffffffffffffffffffffffffffffff1681526020013373ffffffffffffffffffffffffffffffffffffffff16815260200160028081111561188757611886614bbb565b5b81526020015f600281111561189f5761189e614bbb565b5b81526020018481526020013481526020016001808111156118c3576118c2614bbb565b5b81526020018581526020015f81525060085f8381526020019081526020015f205f820151815f0190816118f69190615529565b50602082015181600101556040820151816002015f6101000a81548173ffffffffffffffffffffffffffffffffffffffff021916908373ffffffffffffffffffffffffffffffffffffffff1602179055506060820151816003015f6101000a81548173ffffffffffffffffffffffffffffffffffffffff021916908373ffffffffffffffffffffffffffffffffffffffff16021790555060808201518160030160146101000a81548160ff021916908360028111156119b8576119b7614bbb565b5b021790555060a08201518160030160156101000a81548160ff021916908360028111156119e8576119e7614bbb565b5b021790555060c0820151816004019081611a029190615529565b5060e08201518160050155610100820151816006015f6101000a81548160ff02191690836001811115611a3857611a37614bbb565b5b0217905550610120820151816007015561014082015181600801559050505f5b8551811015611bf1575f73ffffffffffffffffffffffffffffffffffffffff16868281518110611a8b57611a8a61524e565b5b602002602001015173ffffffffffffffffffffffffffffffffffffffff1603611ae0576040517f815e1d6400000000000000000000000000000000000000000000000000000000815260040160405180910390fd5b600b5f8381526020019081526020015f20868281518110611b0457611b0361524e565b5b6020026020010151908060018154018082558091505060019003905f5260205f20015f9091909190916101000a81548173ffffffffffffffffffffffffffffffffffffffff021916908373ffffffffffffffffffffffffffffffffffffffff160217905550600d5f878381518110611b7f57611b7e61524e565b5b602002602001015173ffffffffffffffffffffffffffffffffffffffff1673ffffffffffffffffffffffffffffffffffffffff1681526020019081526020015f2082908060018154018082558091505060019003905f5260205f20015f90919091909150558080600101915050611a58565b5060095f3373ffffffffffffffffffffffffffffffffffffffff1673ffffffffffffffffffffffffffffffffffffffff1681526020019081526020015f2081908060018154018082558091505060019003905f5260205f20015f9091909190915055600a5f3373ffffffffffffffffffffffffffffffffffffffff1673ffffffffffffffffffffffffffffffffffffffff1681526020019081526020015f2081908060018154018082558091505060019003905f5260205f20015f9091909190915055611cbe33826134f9565b3373ffffffffffffffffffffffffffffffffffffffff16817f25d73009d8060d7eedcfc839f660e0168773ef220401623b4a7d698603e87b3b878734604051611d0993929190615642565b60405180910390a380915050949350505050565b5f8073ffffffffffffffffffffffffffffffffffffffff168273ffffffffffffffffffffffffffffffffffffffff1603611d8e575f6040517f89c62b64000000000000000000000000000000000000000000000000000000008152600401611d8591906147ef565b60405180910390fd5b60035f8373ffffffffffffffffffffffffffffffffffffffff1673ffffffffffffffffffffffffffffffffffffffff1681526020019081526020015f20549050919050565b611ddb613472565b611de45f613516565b565b6060600a5f8373ffffffffffffffffffffffffffffffffffffffff1673ffffffffffffffffffffffffffffffffffffffff1681526020019081526020015f20805480602002602001604051908101604052809291908181526020018280548015611e6d57602002820191905f5260205f20905b815481526020019060010190808311611e59575b50505050509050919050565b5f60065f9054906101000a900473ffffffffffffffffffffffffffffffffffffffff16905090565b606060018054611eb09061521e565b80601f0160208091040260200160405190810160405280929190818152602001828054611edc9061521e565b8015611f275780601f10611efe57610100808354040283529160200191611f27565b820191905f5260205f20905b815481529060010190602001808311611f0a57829003601f168201915b5050505050905090565b611f43611f3c612eb3565b83836135d9565b5050565b600e8160038110611f56575f80fd5b015f915090508054611f679061521e565b80601f0160208091040260200160405190810160405280929190818152602001828054611f939061521e565b8015611fde5780601f10611fb557610100808354040283529160200191611fde565b820191905f5260205f20905b815481529060010190602001808311611fc157829003601f168201915b505050505081565b611ff1848484610faa565b612005611ffc612eb3565b858585856137b2565b50505050565b5f428411612045576040517fae130dfb00000000000000000000000000000000000000000000000000000000815260040160405180910390fd5b5f73ffffffffffffffffffffffffffffffffffffffff168373ffffffffffffffffffffffffffffffffffffffff16036120aa576040517f1e4ec46b00000000000000000000000000000000000000000000000000000000815260040160405180910390fd5b6120b685858585612ecc565b9050949350505050565b60606120cb82612df4565b505f60085f8481526020019081526020015f20604051806101600160405290815f820180546120f99061521e565b80601f01602080910402602001604051908101604052809291908181526020018280546121259061521e565b80156121705780601f1061214757610100808354040283529160200191612170565b820191905f5260205f20905b81548152906001019060200180831161215357829003601f168201915b5050505050815260200160018201548152602001600282015f9054906101000a900473ffffffffffffffffffffffffffffffffffffffff1673ffffffffffffffffffffffffffffffffffffffff1673ffffffffffffffffffffffffffffffffffffffff168152602001600382015f9054906101000a900473ffffffffffffffffffffffffffffffffffffffff1673ffffffffffffffffffffffffffffffffffffffff1673ffffffffffffffffffffffffffffffffffffffff1681526020016003820160149054906101000a900460ff16600281111561225257612251614bbb565b5b600281111561226457612263614bbb565b5b81526020016003820160159054906101000a900460ff16600281111561228d5761228c614bbb565b5b600281111561229f5761229e614bbb565b5b81526020016004820180546122b39061521e565b80601f01602080910402602001604051908101604052809291908181526020018280546122df9061521e565b801561232a5780601f106123015761010080835404028352916020019161232a565b820191905f5260205f20905b81548152906001019060200180831161230d57829003601f168201915b5050505050815260200160058201548152602001600682015f9054906101000a900460ff16600181111561236157612360614bbb565b5b600181111561237357612372614bbb565b5b81526020016007820154815260200160088201548152505090506060805f6001808111156123a4576123a3614bbb565b5b84610100015160018111156123bc576123bb614bbb565b5b1490506002808111156123d2576123d1614bbb565b5b8460a0015160028111156123e9576123e8614bbb565b5b036124a4578061242e576040518060400160405280600681526020017f4f70656e65640000000000000000000000000000000000000000000000000000815250612465565b6040518060400160405280600d81526020017f50616374204578656375746564000000000000000000000000000000000000008152505b92506040518060400160405280600781526020017f233161316132650000000000000000000000000000000000000000000000000081525091506127c6565b8015612525576124b884610140015161395e565b6124c685610120015161395e565b6040516020016124d7929190615796565b60405160208183030381529060405292506040518060400160405280600781526020017f233064306430640000000000000000000000000000000000000000000000000081525091506127c5565b8360200151421061267c576040518060400160405280600d81526020017f526561647920746f204f70656e0000000000000000000000000000000000000081525092505f600281111561257b5761257a614bbb565b5b8460800151600281111561259257612591614bbb565b5b1461263e57600160028111156125ab576125aa614bbb565b5b846080015160028111156125c2576125c1614bbb565b5b14612602576040518060400160405280600781526020017f2331613161316100000000000000000000000000000000000000000000000000815250612639565b6040518060400160405280600781526020017f23464632443535000000000000000000000000000000000000000000000000008152505b612675565b6040518060400160405280600781526020017f23464635464346000000000000000000000000000000000000000000000000008152505b91506127c4565b6040518060400160405280600681526020017f4c6f636b6564000000000000000000000000000000000000000000000000000081525092505f60028111156126c7576126c6614bbb565b5b846080015160028111156126de576126dd614bbb565b5b1461278a57600160028111156126f7576126f6614bbb565b5b8460800151600281111561270e5761270d614bbb565b5b1461274e576040518060400160405280600781526020017f2330643064306400000000000000000000000000000000000000000000000000815250612785565b6040518060400160405280600781526020017f23386231613261000000000000000000000000000000000000000000000000008152505b6127c1565b6040518060400160405280600781526020017f23633036323861000000000000000000000000000000000000000000000000008152505b91505b5b5b5f8060028111156127da576127d9614bbb565b5b856080015160028111156127f1576127f0614bbb565b5b14612835576001600281111561280a57612809614bbb565b5b8560800151600281111561282157612820614bbb565b5b1461282d576002612830565b60015b612837565b5f5b90505f82612951575f600281111561285257612851614bbb565b5b8660800151600281111561286957612868614bbb565b5b14612915576001600281111561288257612881614bbb565b5b8660800151600281111561289957612898614bbb565b5b146128d9576040518060400160405280600581526020017f426c61636b000000000000000000000000000000000000000000000000000000815250612910565b6040518060400160405280600381526020017f52656400000000000000000000000000000000000000000000000000000000008152505b61294c565b6040518060400160405280600481526020017f50696e6b000000000000000000000000000000000000000000000000000000008152505b612988565b6040518060400160405280600481526020017f50616374000000000000000000000000000000000000000000000000000000008152505b90506060831580156129bd57505f600e8460ff16600381106129ad576129ac61524e565b5b0180546129b99061521e565b9050115b15612a03576011600e8460ff16600381106129db576129da61524e565b5b016040516020016129ed92919061585a565b6040516020818303038152906040529050612a17565b612a148760c001518787858d613a28565b90505b5f612a218a61395e565b612a2e8960c00151613a99565b86612a6e576040518060400160405280600b81526020017f74696d652d6c6f636b6564000000000000000000000000000000000000000000815250612aa5565b6040518060400160405280600e81526020017f6d756c74692d73696720706163740000000000000000000000000000000000008152505b8488612ae6576040518060400160405280600a81526020017f54696d654c6f636b656400000000000000000000000000000000000000000000815250612b1d565b6040518060400160405280600481526020017f50616374000000000000000000000000000000000000000000000000000000008152505b8b88612b448f6040015173ffffffffffffffffffffffffffffffffffffffff166014613aa3565b8f5f0151604051602001612b6099989796959493929190615cf9565b6040516020818303038152906040529050612b7a81613ce1565b604051602001612b8a9190615e9d565b60405160208183030381529060405298505050505050505050919050565b606060095f8373ffffffffffffffffffffffffffffffffffffffff1673ffffffffffffffffffffffffffffffffffffffff1681526020019081526020015f20805480602002602001604051908101604052809291908181526020018280548015612c2f57602002820191905f5260205f20905b815481526020019060010190808311612c1b575b50505050509050919050565b5f60055f8473ffffffffffffffffffffffffffffffffffffffff1673ffffffffffffffffffffffffffffffffffffffff1681526020019081526020015f205f8373ffffffffffffffffffffffffffffffffffffffff1673ffffffffffffffffffffffffffffffffffffffff1681526020019081526020015f205f9054906101000a900460ff16905092915050565b5f8060085f8481526020019081526020015f20600101549050804210612cf2575f915050612d02565b4281612cfe9190615ebe565b9150505b919050565b612d0f613472565b5f73ffffffffffffffffffffffffffffffffffffffff168173ffffffffffffffffffffffffffffffffffffffff1603612d7f575f6040517f1e4fbdf7000000000000000000000000000000000000000000000000000000008152600401612d7691906147ef565b60405180910390fd5b612d8881613516565b50565b5f7f01ffc9a7000000000000000000000000000000000000000000000000000000007bffffffffffffffffffffffffffffffffffffffffffffffffffffffff1916827bffffffffffffffffffffffffffffffffffffffffffffffffffffffff1916149050919050565b5f80612dff83613cf4565b90505f73ffffffffffffffffffffffffffffffffffffffff168173ffffffffffffffffffffffffffffffffffffffff1603612e7157826040517f7e273289000000000000000000000000000000000000000000000000000000008152600401612e689190614a09565b60405180910390fd5b80915050919050565b5f60045f8381526020019081526020015f205f9054906101000a900473ffffffffffffffffffffffffffffffffffffffff169050919050565b5f33905090565b612ec78383836001613d2d565b505050565b5f8060075f815480929190612ee0906152a8565b9190505590505f612ef086613eec565b90506040518061016001604052808881526020018781526020013373ffffffffffffffffffffffffffffffffffffffff1681526020018673ffffffffffffffffffffffffffffffffffffffff168152602001826002811115612f5557612f54614bbb565b5b81526020015f6002811115612f6d57612f6c614bbb565b5b81526020018581526020013481526020015f6001811115612f9157612f90614bbb565b5b81526020015f81526020015f81525060085f8481526020019081526020015f205f820151815f019081612fc49190615529565b50602082015181600101556040820151816002015f6101000a81548173ffffffffffffffffffffffffffffffffffffffff021916908373ffffffffffffffffffffffffffffffffffffffff1602179055506060820151816003015f6101000a81548173ffffffffffffffffffffffffffffffffffffffff021916908373ffffffffffffffffffffffffffffffffffffffff16021790555060808201518160030160146101000a81548160ff0219169083600281111561308657613085614bbb565b5b021790555060a08201518160030160156101000a81548160ff021916908360028111156130b6576130b5614bbb565b5b021790555060c08201518160040190816130d09190615529565b5060e08201518160050155610100820151816006015f6101000a81548160ff0219169083600181111561310657613105614bbb565b5b02179055506101208201518160070155610140820151816008015590505060095f3373ffffffffffffffffffffffffffffffffffffffff1673ffffffffffffffffffffffffffffffffffffffff1681526020019081526020015f2082908060018154018082558091505060019003905f5260205f20015f9091909190915055600a5f8673ffffffffffffffffffffffffffffffffffffffff1673ffffffffffffffffffffffffffffffffffffffff1681526020019081526020015f2082908060018154018082558091505060019003905f5260205f20015f90919091909150556131f085836134f9565b8473ffffffffffffffffffffffffffffffffffffffff163373ffffffffffffffffffffffffffffffffffffffff16837f2cc0f144b0ac4d92bfca72e509641cd9f349ac6277a8bbd8d74655253067e74189853460405161325293929190615ef1565b60405180910390a48192505050949350505050565b5f8061327284613cf4565b90505f73ffffffffffffffffffffffffffffffffffffffff168373ffffffffffffffffffffffffffffffffffffffff16146132b3576132b2818486613f31565b5b5f73ffffffffffffffffffffffffffffffffffffffff168173ffffffffffffffffffffffffffffffffffffffff161461333e576132f25f855f80613d2d565b600160035f8373ffffffffffffffffffffffffffffffffffffffff1673ffffffffffffffffffffffffffffffffffffffff1681526020019081526020015f205f82825403925050819055505b5f73ffffffffffffffffffffffffffffffffffffffff168573ffffffffffffffffffffffffffffffffffffffff16146133bd57600160035f8773ffffffffffffffffffffffffffffffffffffffff1673ffffffffffffffffffffffffffffffffffffffff1681526020019081526020015f205f82825401925050819055505b8460025f8681526020019081526020015f205f6101000a81548173ffffffffffffffffffffffffffffffffffffffff021916908373ffffffffffffffffffffffffffffffffffffffff160217905550838573ffffffffffffffffffffffffffffffffffffffff168273ffffffffffffffffffffffffffffffffffffffff167fddf252ad1be2c89b69c2b068fc378daa952ba7f163c4a11628f55a4df523b3ef60405160405180910390a4809150509392505050565b61347a612eb3565b73ffffffffffffffffffffffffffffffffffffffff16613498611e79565b73ffffffffffffffffffffffffffffffffffffffff16146134f7576134bb612eb3565b6040517f118cdaa70000000000000000000000000000000000000000000000000000000081526004016134ee91906147ef565b60405180910390fd5b565b613512828260405180602001604052805f815250613ff4565b5050565b5f60065f9054906101000a900473ffffffffffffffffffffffffffffffffffffffff1690508160065f6101000a81548173ffffffffffffffffffffffffffffffffffffffff021916908373ffffffffffffffffffffffffffffffffffffffff1602179055508173ffffffffffffffffffffffffffffffffffffffff168173ffffffffffffffffffffffffffffffffffffffff167f8be0079c531659141344cd1fd0a4f28419497f9722a3daafe3b4186f6b6457e060405160405180910390a35050565b5f73ffffffffffffffffffffffffffffffffffffffff168373ffffffffffffffffffffffffffffffffffffffff1603613649575f6040517fa9fbf51f00000000000000000000000000000000000000000000000000000000815260040161364091906147ef565b60405180910390fd5b5f73ffffffffffffffffffffffffffffffffffffffff168273ffffffffffffffffffffffffffffffffffffffff16036136b957816040517f5b08ba180000000000000000000000000000000000000000000000000000000081526004016136b091906147ef565b60405180910390fd5b8060055f8573ffffffffffffffffffffffffffffffffffffffff1673ffffffffffffffffffffffffffffffffffffffff1681526020019081526020015f205f8473ffffffffffffffffffffffffffffffffffffffff1673ffffffffffffffffffffffffffffffffffffffff1681526020019081526020015f205f6101000a81548160ff0219169083151502179055508173ffffffffffffffffffffffffffffffffffffffff168373ffffffffffffffffffffffffffffffffffffffff167f17307eab39ab6107e8899845ad3d59bd9653f200f220920489ca2b5937696c31836040516137a5919061459b565b60405180910390a3505050565b5f8373ffffffffffffffffffffffffffffffffffffffff163b1115613957578273ffffffffffffffffffffffffffffffffffffffff1663150b7a02868685856040518563ffffffff1660e01b81526004016138109493929190615f78565b6020604051808303815f875af192505050801561384b57506040513d601f19601f820116820180604052508101906138489190615fd6565b60015b6138cc573d805f8114613879576040519150601f19603f3d011682016040523d82523d5f602084013e61387e565b606091505b505f8151036138c457836040517f64a0ae920000000000000000000000000000000000000000000000000000000081526004016138bb91906147ef565b60405180910390fd5b805160208201fd5b63150b7a0260e01b7bffffffffffffffffffffffffffffffffffffffffffffffffffffffff1916817bffffffffffffffffffffffffffffffffffffffffffffffffffffffff19161461395557836040517f64a0ae9200000000000000000000000000000000000000000000000000000000815260040161394c91906147ef565b60405180910390fd5b505b5050505050565b60605f600161396c84614017565b0190505f8167ffffffffffffffff81111561398a5761398961484e565b5b6040519080825280601f01601f1916602001820160405280156139bc5781602001600182028036833780820191505090505b5090505f82602083010190505b600115613a1d578080600190039150507f3031323334353637383961626364656600000000000000000000000000000000600a86061a8153600a8581613a1257613a11616001565b5b0494505f85036139c9575b819350505050919050565b60605f84613a3588613a99565b8786613a408761395e565b604051602001613a54959493929190616500565b6040516020818303038152906040529050613a6e81613ce1565b604051602001613a7e9190616618565b60405160208183030381529060405291505095945050505050565b6060819050919050565b60605f8390505f6002846002613ab99190616639565b613ac3919061667a565b67ffffffffffffffff811115613adc57613adb61484e565b5b6040519080825280601f01601f191660200182016040528015613b0e5781602001600182028036833780820191505090505b5090507f3000000000000000000000000000000000000000000000000000000000000000815f81518110613b4557613b4461524e565b5b60200101907effffffffffffffffffffffffffffffffffffffffffffffffffffffffffffff191690815f1a9053507f780000000000000000000000000000000000000000000000000000000000000081600181518110613ba857613ba761524e565b5b60200101907effffffffffffffffffffffffffffffffffffffffffffffffffffffffffffff191690815f1a9053505f6001856002613be69190616639565b613bf0919061667a565b90505b6001811115613c8f577f3031323334353637383961626364656600000000000000000000000000000000600f841660108110613c3257613c3161524e565b5b1a60f81b828281518110613c4957613c4861524e565b5b60200101907effffffffffffffffffffffffffffffffffffffffffffffffffffffffffffff191690815f1a905350600483901c925080613c88906166ad565b9050613bf3565b505f8214613cd65784846040517fe22e27eb000000000000000000000000000000000000000000000000000000008152600401613ccd9291906152ef565b60405180910390fd5b809250505092915050565b6060613ced825f614168565b9050919050565b5f60025f8381526020019081526020015f205f9054906101000a900473ffffffffffffffffffffffffffffffffffffffff169050919050565b8080613d6557505f73ffffffffffffffffffffffffffffffffffffffff168273ffffffffffffffffffffffffffffffffffffffff1614155b15613e97575f613d7484612df4565b90505f73ffffffffffffffffffffffffffffffffffffffff168373ffffffffffffffffffffffffffffffffffffffff1614158015613dde57508273ffffffffffffffffffffffffffffffffffffffff168173ffffffffffffffffffffffffffffffffffffffff1614155b8015613df15750613def8184612c3b565b155b15613e3357826040517fa9fbf51f000000000000000000000000000000000000000000000000000000008152600401613e2a91906147ef565b60405180910390fd5b8115613e9557838573ffffffffffffffffffffffffffffffffffffffff168273ffffffffffffffffffffffffffffffffffffffff167f8c5be1e5ebec7d5bd14f71427d1e84f3dd0314c0f7b2291e5b200ac8c7c3b92560405160405180910390a45b505b8360045f8581526020019081526020015f205f6101000a81548173ffffffffffffffffffffffffffffffffffffffff021916908373ffffffffffffffffffffffffffffffffffffffff16021790555050505050565b5f804283613efa9190615ebe565b905062ed4e00811015613f10575f915050613f2c565b6303c26700811015613f26576001915050613f2c565b60029150505b919050565b613f3c8383836142f2565b613fef575f73ffffffffffffffffffffffffffffffffffffffff168373ffffffffffffffffffffffffffffffffffffffff1603613fb057806040517f7e273289000000000000000000000000000000000000000000000000000000008152600401613fa79190614a09565b60405180910390fd5b81816040517f177e802f000000000000000000000000000000000000000000000000000000008152600401613fe69291906166d4565b60405180910390fd5b505050565b613ffe83836143b2565b614012614009612eb3565b5f8585856137b2565b505050565b5f805f90507a184f03e93ff9f4daa797ed6e38ed64bf6a1f0100000000000000008310614073577a184f03e93ff9f4daa797ed6e38ed64bf6a1f010000000000000000838161406957614068616001565b5b0492506040810190505b6d04ee2d6d415b85acef810000000083106140b0576d04ee2d6d415b85acef810000000083816140a6576140a5616001565b5b0492506020810190505b662386f26fc1000083106140df57662386f26fc1000083816140d5576140d4616001565b5b0492506010810190505b6305f5e1008310614108576305f5e10083816140fe576140fd616001565b5b0492506008810190505b612710831061412d57612710838161412357614122616001565b5b0492506004810190505b60648310614150576064838161414657614145616001565b5b0492506002810190505b600a831061415f576001810190505b80915050919050565b60605f8351036141885760405180602001604052805f81525090506142ec565b5f826141b95760036002855161419e919061667a565b6141a891906166fb565b60046141b49190616639565b6141e0565b60036002855160046141cb9190616639565b6141d5919061667a565b6141df91906166fb565b5b905060405191507f4142434445464748494a4b4c4d4e4f505152535455565758595a616263646566601f5261067083027f6768696a6b6c6d6e6f707172737475767778797a303132333435363738392b2f18603f526020820181810185865187016020810180515f82525b8284101561429e576003840193508351603f8160121c16518753600187019650603f81600c1c16518753600187019650603f8160061c16518753600187019650603f81165187536001870196505061424b565b808252886142dd5760038a5106600181146142c057600281146142d3576142db565b603d6001880353603d60028803536142db565b603d60018803535b505b86885284604052505050505050505b92915050565b5f8073ffffffffffffffffffffffffffffffffffffffff168373ffffffffffffffffffffffffffffffffffffffff16141580156143a957508273ffffffffffffffffffffffffffffffffffffffff168473ffffffffffffffffffffffffffffffffffffffff16148061436a57506143698484612c3b565b5b806143a857508273ffffffffffffffffffffffffffffffffffffffff1661439083612e7a565b73ffffffffffffffffffffffffffffffffffffffff16145b5b90509392505050565b5f73ffffffffffffffffffffffffffffffffffffffff168273ffffffffffffffffffffffffffffffffffffffff1603614422575f6040517f64a0ae9200000000000000000000000000000000000000000000000000000000815260040161441991906147ef565b60405180910390fd5b5f61442e83835f613267565b90505f73ffffffffffffffffffffffffffffffffffffffff168173ffffffffffffffffffffffffffffffffffffffff16146144a0575f6040517f73c6ac6e00000000000000000000000000000000000000000000000000000000815260040161449791906147ef565b60405180910390fd5b505050565b5f604051905090565b5f80fd5b5f80fd5b5f819050919050565b6144c8816144b6565b81146144d2575f80fd5b50565b5f813590506144e3816144bf565b92915050565b5f73ffffffffffffffffffffffffffffffffffffffff82169050919050565b5f614512826144e9565b9050919050565b61452281614508565b811461452c575f80fd5b50565b5f8135905061453d81614519565b92915050565b5f8060408385031215614559576145586144ae565b5b5f614566858286016144d5565b92505060206145778582860161452f565b9150509250929050565b5f8115159050919050565b61459581614581565b82525050565b5f6020820190506145ae5f83018461458c565b92915050565b5f7fffffffff0000000000000000000000000000000000000000000000000000000082169050919050565b6145e8816145b4565b81146145f2575f80fd5b50565b5f81359050614603816145df565b92915050565b5f6020828403121561461e5761461d6144ae565b5b5f61462b848285016145f5565b91505092915050565b5f81519050919050565b5f82825260208201905092915050565b5f5b8381101561466b578082015181840152602081019050614650565b5f8484015250505050565b5f601f19601f8301169050919050565b5f61469082614634565b61469a818561463e565b93506146aa81856020860161464e565b6146b381614676565b840191505092915050565b5f6020820190508181035f8301526146d68184614686565b905092915050565b5f602082840312156146f3576146f26144ae565b5b5f614700848285016144d5565b91505092915050565b5f81519050919050565b5f82825260208201905092915050565b5f819050602082019050919050565b61473b81614508565b82525050565b5f61474c8383614732565b60208301905092915050565b5f602082019050919050565b5f61476e82614709565b6147788185614713565b935061478383614723565b805f5b838110156147b357815161479a8882614741565b97506147a583614758565b925050600181019050614786565b5085935050505092915050565b5f6020820190508181035f8301526147d88184614764565b905092915050565b6147e981614508565b82525050565b5f6020820190506148025f8301846147e0565b92915050565b5f806040838503121561481e5761481d6144ae565b5b5f61482b8582860161452f565b925050602061483c858286016144d5565b9150509250929050565b5f80fd5b5f80fd5b7f4e487b71000000000000000000000000000000000000000000000000000000005f52604160045260245ffd5b61488482614676565b810181811067ffffffffffffffff821117156148a3576148a261484e565b5b80604052505050565b5f6148b56144a5565b90506148c1828261487b565b919050565b5f67ffffffffffffffff8211156148e0576148df61484e565b5b6148e982614676565b9050602081019050919050565b828183375f83830152505050565b5f614916614911846148c6565b6148ac565b9050828152602081018484840111156149325761493161484a565b5b61493d8482856148f6565b509392505050565b5f82601f83011261495957614958614846565b5b8135614969848260208601614904565b91505092915050565b5f805f60608486031215614989576149886144ae565b5b5f84013567ffffffffffffffff8111156149a6576149a56144b2565b5b6149b286828701614945565b93505060206149c3868287016144d5565b925050604084013567ffffffffffffffff8111156149e4576149e36144b2565b5b6149f086828701614945565b9150509250925092565b614a03816144b6565b82525050565b5f602082019050614a1c5f8301846149fa565b92915050565b5f805f60608486031215614a3957614a386144ae565b5b5f614a468682870161452f565b9350506020614a578682870161452f565b9250506040614a68868287016144d5565b9150509250925092565b5f60208284031215614a8757614a866144ae565b5b5f614a948482850161452f565b91505092915050565b5f81519050919050565b5f82825260208201905092915050565b5f819050602082019050919050565b614acf816144b6565b82525050565b5f614ae08383614ac6565b60208301905092915050565b5f602082019050919050565b5f614b0282614a9d565b614b0c8185614aa7565b9350614b1783614ab7565b805f5b83811015614b47578151614b2e8882614ad5565b9750614b3983614aec565b925050600181019050614b1a565b5085935050505092915050565b5f6020820190508181035f830152614b6c8184614af8565b905092915050565b5f60208284031215614b8957614b886144ae565b5b5f82013567ffffffffffffffff811115614ba657614ba56144b2565b5b614bb284828501614945565b91505092915050565b7f4e487b71000000000000000000000000000000000000000000000000000000005f52602160045260245ffd5b60038110614bf957614bf8614bbb565b5b50565b5f819050614c0982614be8565b919050565b5f614c1882614bfc565b9050919050565b614c2881614c0e565b82525050565b60038110614c3f57614c3e614bbb565b5b50565b5f819050614c4f82614c2e565b919050565b5f614c5e82614c42565b9050919050565b614c6e81614c54565b82525050565b60028110614c8557614c84614bbb565b5b50565b5f819050614c9582614c74565b919050565b5f614ca482614c88565b9050919050565b614cb481614c9a565b82525050565b5f610160820190508181035f830152614cd3818e614686565b9050614ce2602083018d6149fa565b614cef604083018c6147e0565b614cfc606083018b6147e0565b614d09608083018a614c1f565b614d1660a0830189614c65565b81810360c0830152614d288188614686565b9050614d3760e08301876149fa565b614d45610100830186614cab565b614d536101208301856149fa565b614d616101408301846149fa565b9c9b505050505050505050505050565b5f805f60608486031215614d8857614d876144ae565b5b5f84013567ffffffffffffffff811115614da557614da46144b2565b5b614db186828701614945565b935050602084013567ffffffffffffffff811115614dd257614dd16144b2565b5b614dde86828701614945565b925050604084013567ffffffffffffffff811115614dff57614dfe6144b2565b5b614e0b86828701614945565b9150509250925092565b5f67ffffffffffffffff821115614e2f57614e2e61484e565b5b602082029050602081019050919050565b5f80fd5b5f614e56614e5184614e15565b6148ac565b90508083825260208201905060208402830185811115614e7957614e78614e40565b5b835b81811015614ea25780614e8e888261452f565b845260208401935050602081019050614e7b565b5050509392505050565b5f82601f830112614ec057614ebf614846565b5b8135614ed0848260208601614e44565b91505092915050565b5f805f8060808587031215614ef157614ef06144ae565b5b5f85013567ffffffffffffffff811115614f0e57614f0d6144b2565b5b614f1a87828801614945565b945050602085013567ffffffffffffffff811115614f3b57614f3a6144b2565b5b614f4787828801614eac565b9350506040614f58878288016144d5565b925050606085013567ffffffffffffffff811115614f7957614f786144b2565b5b614f8587828801614945565b91505092959194509250565b614f9a81614581565b8114614fa4575f80fd5b50565b5f81359050614fb581614f91565b92915050565b5f8060408385031215614fd157614fd06144ae565b5b5f614fde8582860161452f565b9250506020614fef85828601614fa7565b9150509250929050565b5f67ffffffffffffffff8211156150135761501261484e565b5b61501c82614676565b9050602081019050919050565b5f61503b61503684614ff9565b6148ac565b9050828152602081018484840111156150575761505661484a565b5b6150628482856148f6565b509392505050565b5f82601f83011261507e5761507d614846565b5b813561508e848260208601615029565b91505092915050565b5f805f80608085870312156150af576150ae6144ae565b5b5f6150bc8782880161452f565b94505060206150cd8782880161452f565b93505060406150de878288016144d5565b925050606085013567ffffffffffffffff8111156150ff576150fe6144b2565b5b61510b8782880161506a565b91505092959194509250565b5f805f806080858703121561512f5761512e6144ae565b5b5f85013567ffffffffffffffff81111561514c5761514b6144b2565b5b61515887828801614945565b9450506020615169878288016144d5565b935050604061517a8782880161452f565b925050606085013567ffffffffffffffff81111561519b5761519a6144b2565b5b6151a787828801614945565b91505092959194509250565b5f80604083850312156151c9576151c86144ae565b5b5f6151d68582860161452f565b92505060206151e78582860161452f565b9150509250929050565b7f4e487b71000000000000000000000000000000000000000000000000000000005f52602260045260245ffd5b5f600282049050600182168061523557607f821691505b602082108103615248576152476151f1565b5b50919050565b7f4e487b71000000000000000000000000000000000000000000000000000000005f52603260045260245ffd5b7f4e487b71000000000000000000000000000000000000000000000000000000005f52601160045260245ffd5b5f6152b2826144b6565b91507fffffffffffffffffffffffffffffffffffffffffffffffffffffffffffffffff82036152e4576152e361527b565b5b600182019050919050565b5f6040820190506153025f8301856149fa565b61530f60208301846149fa565b9392505050565b5f81905092915050565b50565b5f61532e5f83615316565b915061533982615320565b5f82019050919050565b5f61534d82615323565b9150819050919050565b5f60608201905061536a5f8301866147e0565b61537760208301856149fa565b61538460408301846147e0565b949350505050565b5f819050815f5260205f209050919050565b5f6020601f8301049050919050565b5f82821b905092915050565b5f600883026153e87fffffffffffffffffffffffffffffffffffffffffffffffffffffffffffffffff826153ad565b6153f286836153ad565b95508019841693508086168417925050509392505050565b5f819050919050565b5f61542d615428615423846144b6565b61540a565b6144b6565b9050919050565b5f819050919050565b61544683615413565b61545a61545282615434565b8484546153b9565b825550505050565b5f90565b61546e615462565b61547981848461543d565b505050565b5b8181101561549c576154915f82615466565b60018101905061547f565b5050565b601f8211156154e1576154b28161538c565b6154bb8461539e565b810160208510156154ca578190505b6154de6154d68561539e565b83018261547e565b50505b505050565b5f82821c905092915050565b5f6155015f19846008026154e6565b1980831691505092915050565b5f61551983836154f2565b9150826002028217905092915050565b61553282614634565b67ffffffffffffffff81111561554b5761554a61484e565b5b615555825461521e565b6155608282856154a0565b5f60209050601f831160018114615591575f841561557f578287015190505b615589858261550e565b8655506155f0565b601f19841661559f8661538c565b5f5b828110156155c6578489015182556001820191506020850194506020810190506155a1565b868310156155e357848901516155df601f8916826154f2565b8355505b6001600288020188555050505b505050505050565b5f6060820190508181035f8301526156108186614686565b905081810360208301526156248185614686565b905081810360408301526156388184614686565b9050949350505050565b5f6060820190508181035f83015261565a8186614764565b905061566960208301856149fa565b61567660408301846149fa565b949350505050565b5f81905092915050565b7f506163743a2000000000000000000000000000000000000000000000000000005f82015250565b5f6156bc60068361567e565b91506156c782615688565b600682019050919050565b5f6156dc82614634565b6156e6818561567e565b93506156f681856020860161464e565b80840191505092915050565b7f2f000000000000000000000000000000000000000000000000000000000000005f82015250565b5f61573660018361567e565b915061574182615702565b600182019050919050565b7f205369676e6564000000000000000000000000000000000000000000000000005f82015250565b5f61578060078361567e565b915061578b8261574c565b600782019050919050565b5f6157a0826156b0565b91506157ac82856156d2565b91506157b78261572a565b91506157c382846156d2565b91506157ce82615774565b91508190509392505050565b5f81546157e68161521e565b6157f0818661567e565b9450600182165f811461580a576001811461581f57615851565b60ff1983168652811515820286019350615851565b6158288561538c565b5f5b838110156158495781548189015260018201915060208101905061582a565b838801955050505b50505092915050565b5f61586582856157da565b915061587182846157da565b91508190509392505050565b7f7b226e616d65223a2243617073756c20230000000000000000000000000000005f82015250565b5f6158b160118361567e565b91506158bc8261587d565b601182019050919050565b7f202d2000000000000000000000000000000000000000000000000000000000005f82015250565b5f6158fb60038361567e565b9150615906826158c7565b600382019050919050565b7f222c0000000000000000000000000000000000000000000000000000000000005f82015250565b5f61594560028361567e565b915061595082615911565b600282019050919050565b7f226465736372697074696f6e223a2241200000000000000000000000000000005f82015250565b5f61598f60118361567e565b915061599a8261595b565b601182019050919050565b7f2063617073756c652e00000000000000000000000000000000000000000000005f82015250565b5f6159d960098361567e565b91506159e4826159a5565b600982019050919050565b7f22696d616765223a2200000000000000000000000000000000000000000000005f82015250565b5f615a2360098361567e565b9150615a2e826159ef565b600982019050919050565b7f2261747472696275746573223a5b0000000000000000000000000000000000005f82015250565b5f615a6d600e8361567e565b9150615a7882615a39565b600e82019050919050565b7f7b2274726169745f74797065223a2254797065222c2276616c7565223a2200005f82015250565b5f615ab7601e8361567e565b9150615ac282615a83565b601e82019050919050565b7f227d2c00000000000000000000000000000000000000000000000000000000005f82015250565b5f615b0160038361567e565b9150615b0c82615acd565b600382019050919050565b7f7b2274726169745f74797065223a22537461747573222c2276616c7565223a225f82015250565b5f615b4b60208361567e565b9150615b5682615b17565b602082019050919050565b7f7b2274726169745f74797065223a2254696572222c2276616c7565223a2200005f82015250565b5f615b95601e8361567e565b9150615ba082615b61565b601e82019050919050565b7f7b2274726169745f74797065223a2253656e646572222c2276616c7565223a225f82015250565b5f615bdf60208361567e565b9150615bea82615bab565b602082019050919050565b7f7b2274726169745f74797065223a22456e6372797074656420434944222c22765f8201527f616c7565223a2200000000000000000000000000000000000000000000000000602082015250565b5f615c4f60278361567e565b9150615c5a82615bf5565b602782019050919050565b7f227d0000000000000000000000000000000000000000000000000000000000005f82015250565b5f615c9960028361567e565b9150615ca482615c65565b600282019050919050565b7f5d7d0000000000000000000000000000000000000000000000000000000000005f82015250565b5f615ce360028361567e565b9150615cee82615caf565b600282019050919050565b5f615d03826158a5565b9150615d0f828c6156d2565b9150615d1a826158ef565b9150615d26828b6156d2565b9150615d3182615939565b9150615d3c82615983565b9150615d48828a6156d2565b9150615d53826159cd565b9150615d5e82615939565b9150615d6982615a17565b9150615d7582896156d2565b9150615d8082615939565b9150615d8b82615a61565b9150615d9682615aab565b9150615da282886156d2565b9150615dad82615af5565b9150615db882615b3f565b9150615dc482876156d2565b9150615dcf82615af5565b9150615dda82615b89565b9150615de682866156d2565b9150615df182615af5565b9150615dfc82615bd3565b9150615e0882856156d2565b9150615e1382615af5565b9150615e1e82615c43565b9150615e2a82846156d2565b9150615e3582615c8d565b9150615e4082615cd7565b91508190509a9950505050505050505050565b7f646174613a6170706c69636174696f6e2f6a736f6e3b6261736536342c0000005f82015250565b5f615e87601d8361567e565b9150615e9282615e53565b601d82019050919050565b5f615ea782615e7b565b9150615eb382846156d2565b915081905092915050565b5f615ec8826144b6565b9150615ed3836144b6565b9250828203905081811115615eeb57615eea61527b565b5b92915050565b5f606082019050615f045f8301866149fa565b615f116020830185614c1f565b615f1e60408301846149fa565b949350505050565b5f81519050919050565b5f82825260208201905092915050565b5f615f4a82615f26565b615f548185615f30565b9350615f6481856020860161464e565b615f6d81614676565b840191505092915050565b5f608082019050615f8b5f8301876147e0565b615f9860208301866147e0565b615fa560408301856149fa565b8181036060830152615fb78184615f40565b905095945050505050565b5f81519050615fd0816145df565b92915050565b5f60208284031215615feb57615fea6144ae565b5b5f615ff884828501615fc2565b91505092915050565b7f4e487b71000000000000000000000000000000000000000000000000000000005f52601260045260245ffd5b7f3c73766720786d6c6e733d22687474703a2f2f7777772e77332e6f72672f32305f8201527f30302f737667222076696577426f783d223020302034303020343030223e0000602082015250565b5f616088603e8361567e565b91506160938261602e565b603e82019050919050565b7f3c726563742077696474683d2234303022206865696768743d223430302220665f8201527f696c6c3d22000000000000000000000000000000000000000000000000000000602082015250565b5f6160f860258361567e565b91506161038261609e565b602582019050919050565b7f222f3e00000000000000000000000000000000000000000000000000000000005f82015250565b5f61614260038361567e565b915061614d8261610e565b600382019050919050565b7f3c7465787420783d223230302220793d223136302220746578742d616e63686f5f8201527f723d226d6964646c652220666f6e742d73697a653d223634222066696c6c3d2260208201527f7768697465223e26233132383232383b3c2f746578743e000000000000000000604082015250565b5f6161d860578361567e565b91506161e382616158565b605782019050919050565b7f3c7465787420783d223230302220793d223232302220746578742d616e63686f5f8201527f723d226d6964646c652220666f6e742d66616d696c793d22417269616c22206660208201527f6f6e742d73697a653d223230222066696c6c3d2277686974652220666f6e742d60408201527f7765696768743d22626f6c64223e000000000000000000000000000000000000606082015250565b5f616294606e8361567e565b915061629f826161ee565b606e82019050919050565b7f3c2f746578743e000000000000000000000000000000000000000000000000005f82015250565b5f6162de60078361567e565b91506162e9826162aa565b600782019050919050565b7f3c7465787420783d223230302220793d223235352220746578742d616e63686f5f8201527f723d226d6964646c652220666f6e742d66616d696c793d22417269616c22206660208201527f6f6e742d73697a653d223134222066696c6c3d2272676261283235352c32353560408201527f2c3235352c302e3729223e000000000000000000000000000000000000000000606082015250565b5f61639a606b8361567e565b91506163a5826162f4565b606b82019050919050565b7f3c7465787420783d223230302220793d223238352220746578742d616e63686f5f8201527f723d226d6964646c652220666f6e742d66616d696c793d22417269616c22206660208201527f6f6e742d73697a653d223132222066696c6c3d2272676261283235352c32353560408201527f2c3235352c302e3529223e000000000000000000000000000000000000000000606082015250565b5f616456606b8361567e565b9150616461826163b0565b606b82019050919050565b7f20230000000000000000000000000000000000000000000000000000000000005f82015250565b5f6164a060028361567e565b91506164ab8261646c565b600282019050919050565b7f3c2f7376673e00000000000000000000000000000000000000000000000000005f82015250565b5f6164ea60068361567e565b91506164f5826164b6565b600682019050919050565b5f61650a8261607c565b9150616515826160ec565b915061652182886156d2565b915061652c82616136565b9150616537826161cc565b915061654282616288565b915061654e82876156d2565b9150616559826162d2565b91506165648261638e565b915061657082866156d2565b915061657b826162d2565b91506165868261644a565b915061659282856156d2565b915061659d82616494565b91506165a982846156d2565b91506165b4826162d2565b91506165bf826164de565b91508190509695505050505050565b7f646174613a696d6167652f7376672b786d6c3b6261736536342c0000000000005f82015250565b5f616602601a8361567e565b915061660d826165ce565b601a82019050919050565b5f616622826165f6565b915061662e82846156d2565b915081905092915050565b5f616643826144b6565b915061664e836144b6565b925082820261665c816144b6565b915082820484148315176166735761667261527b565b5b5092915050565b5f616684826144b6565b915061668f836144b6565b92508282019050808211156166a7576166a661527b565b5b92915050565b5f6166b7826144b6565b91505f82036166c9576166c861527b565b5b600182039050919050565b5f6040820190506166e75f8301856147e0565b6166f460208301846149fa565b9392505050565b5f616705826144b6565b9150616710836144b6565b9250826167205761671f616001565b5b82820490509291505056fea2646970667358221220878d98e31354e6c3cf958de6f7c824e1df1c4a5ae1518d36308a51f37434412e64736f6c6343000818003368747470733a2f2f676174657761792e70696e6174612e636c6f75642f697066732f",
  "linkReferences": {},
  "deployedLinkReferences": {}
}