{
  "_format": "hh-sol-artifact-1",
  "contractName": "CapsulMe",
  "sourceName": "contracts/CapsulMe.sol",
  "abi": [
    {
      "inputs": [],
      "stateMutability": "nonpayable",
      "type": "constructor"
    },
    {
      "inputs": [
        {
          "internalType": "address",
          "name": "sender",
          "type": "address"
        },
        {
          "internalType": "uint256",
          "name": "tokenId",
          "type": "uint256"
        },
        {
          "internalType": "address",
          "name": "owner",
          "type": "address"
        }
      ],
      "name": "ERC721IncorrectOwner",
      "type": "error"
    },
    {
      "inputs": [
        {
          "internalType": "address",
          "name": "operator",
          "type": "address"
        },
        {
          "internalType": "uint256",
          "name": "tokenId",
          "type": "uint256"
        }
      ],
      "name": "ERC721InsufficientApproval",
      "type": "error"
    },
    {
      "inputs": [
        {
          "internalType": "address",
          "name": "approver",
          "type": "address"
        }
      ],
      "name": "ERC721InvalidApprover",
      "type": "error"
    },
    {
      "inputs": [
        {
          "internalType": "address",
          "name": "operator",
          "type": "address"
        }
      ],
      "name": "ERC721InvalidOperator",
      "type": "error"
    },
    {
      "inputs": [
        {
          "internalType": "address",
          "name": "owner",
          "type": "address"
        }
      ],
      "name": "ERC721InvalidOwner",
      "type": "error"
    },
    {
      "inputs": [
        {
          "internalType": "address",
          "name": "receiver",
          "type": "address"
        }
      ],
      "name": "ERC721InvalidReceiver",
      "type": "error"
    },
    {
      "inputs": [
        {
          "internalType": "address",
          "name": "sender",
          "type": "address"
        }
      ],
      "name": "ERC721InvalidSender",
      "type": "error"
    },
    {
      "inputs": [
        {
          "internalType": "uint256",
          "name": "tokenId",
          "type": "uint256"
        }
      ],
      "name": "ERC721NonexistentToken",
      "type": "error"
    },
    {
      "inputs": [
        {
          "internalType": "address",
          "name": "owner",
          "type": "address"
        }
      ],
      "name": "OwnableInvalidOwner",
      "type": "error"
    },
    {
      "inputs": [
        {
          "internalType": "address",
          "name": "account",
          "type": "address"
        }
      ],
      "name": "OwnableUnauthorizedAccount",
      "type": "error"
    },
    {
      "inputs": [
        {
          "internalType": "uint256",
          "name": "value",
          "type": "uint256"
        },
        {
          "internalType": "uint256",
          "name": "length",
          "type": "uint256"
        }
      ],
      "name": "StringsInsufficientHexLength",
      "type": "error"
    },
    {
      "anonymous": false,
      "inputs": [
        {
          "indexed": true,
          "internalType": "address",
          "name": "owner",
          "type": "address"
        },
        {
          "indexed": true,
          "internalType": "address",
          "name": "approved",
          "type": "address"
        },
        {
          "indexed": true,
          "internalType": "uint256",
          "name": "tokenId",
          "type": "uint256"
        }
      ],
      "name": "Approval",
      "type": "event"
    },
    {
      "anonymous": false,
      "inputs": [
        {
          "indexed": true,
          "internalType": "address",
          "name": "owner",
          "type": "address"
        },
        {
          "indexed": true,
          "internalType": "address",
          "name": "operator",
          "type": "address"
        },
        {
          "indexed": false,
          "internalType": "bool",
          "name": "approved",
          "type": "bool"
        }
      ],
      "name": "ApprovalForAll",
      "type": "event"
    },
    {
      "anonymous": false,
      "inputs": [
        {
          "indexed": true,
          "internalType": "uint256",
          "name": "tokenId",
          "type": "uint256"
        },
        {
          "indexed": true,
          "internalType": "address",
          "name": "sender",
          "type": "address"
        },
        {
          "indexed": true,
          "internalType": "address",
          "name": "receiver",
          "type": "address"
        },
        {
          "indexed": false,
          "internalType": "uint256",
          "name": "unlockTime",
          "type": "uint256"
        },
        {
          "indexed": false,
          "internalType": "enum CapsulMe.Tier",
          "name": "tier",
          "type": "uint8"
        },
        {
          "indexed": false,
          "internalType": "uint256",
          "name": "value",
          "type": "uint256"
        }
      ],
      "name": "CapsuleMinted",
      "type": "event"
    },
    {
      "anonymous": false,
      "inputs": [
        {
          "indexed": true,
          "internalType": "uint256",
          "name": "tokenId",
          "type": "uint256"
        },
        {
          "indexed": true,
          "internalType": "address",
          "name": "opener",
          "type": "address"
        },
        {
          "indexed": false,
          "internalType": "uint256",
          "name": "claimedValue",
          "type": "uint256"
        }
      ],
      "name": "CapsuleOpened",
      "type": "event"
    },
    {
      "anonymous": false,
      "inputs": [
        {
          "indexed": false,
          "internalType": "string",
          "name": "pinkCID",
          "type": "string"
        },
        {
          "indexed": false,
          "internalType": "string",
          "name": "redCID",
          "type": "string"
        },
        {
          "indexed": false,
          "internalType": "string",
          "name": "blackCID",
          "type": "string"
        }
      ],
      "name": "ImageCIDsUpdated",
      "type": "event"
    },
    {
      "anonymous": false,
      "inputs": [
        {
          "indexed": true,
          "internalType": "address",
          "name": "previousOwner",
          "type": "address"
        },
        {
          "indexed": true,
          "internalType": "address",
          "name": "newOwner",
          "type": "address"
        }
      ],
      "name": "OwnershipTransferred",
      "type": "event"
    },
    {
      "anonymous": false,
      "inputs": [
        {
          "indexed": true,
          "internalType": "address",
          "name": "from",
          "type": "address"
        },
        {
          "indexed": true,
          "internalType": "address",
          "name": "to",
          "type": "address"
        },
        {
          "indexed": true,
          "internalType": "uint256",
          "name": "tokenId",
          "type": "uint256"
        }
      ],
      "name": "Transfer",
      "type": "event"
    },
    {
      "inputs": [
        {
          "internalType": "address",
          "name": "to",
          "type": "address"
        },
        {
          "internalType": "uint256",
          "name": "tokenId",
          "type": "uint256"
        }
      ],
      "name": "approve",
      "outputs": [],
      "stateMutability": "nonpayable",
      "type": "function"
    },
    {
      "inputs": [
        {
          "internalType": "address",
          "name": "owner",
          "type": "address"
        }
      ],
      "name": "balanceOf",
      "outputs": [
        {
          "internalType": "uint256",
          "name": "",
          "type": "uint256"
        }
      ],
      "stateMutability": "view",
      "type": "function"
    },
    {
      "inputs": [
        {
          "internalType": "uint256",
          "name": "",
          "type": "uint256"
        }
      ],
      "name": "capsules",
      "outputs": [
        {
          "internalType": "string",
          "name": "encryptedCID",
          "type": "string"
        },
        {
          "internalType": "uint256",
          "name": "unlockTime",
          "type": "uint256"
        },
        {
          "internalType": "address",
          "name": "sender",
          "type": "address"
        },
        {
          "internalType": "address",
          "name": "receiver",
          "type": "address"
        },
        {
          "internalType": "enum CapsulMe.Tier",
          "name": "tier",
          "type": "uint8"
        },
        {
          "internalType": "enum CapsulMe.Status",
          "name": "status",
          "type": "uint8"
        },
        {
          "internalType": "string",
          "name": "title",
          "type": "string"
        },
        {
          "internalType": "uint256",
          "name": "lockedValue",
          "type": "uint256"
        }
      ],
      "stateMutability": "view",
      "type": "function"
    },
    {
      "inputs": [
        {
          "internalType": "uint256",
          "name": "tokenId",
          "type": "uint256"
        }
      ],
      "name": "getApproved",
      "outputs": [
        {
          "internalType": "address",
          "name": "",
          "type": "address"
        }
      ],
      "stateMutability": "view",
      "type": "function"
    },
    {
      "inputs": [
        {
          "internalType": "address",
          "name": "_user",
          "type": "address"
        }
      ],
      "name": "getReceivedCapsules",
      "outputs": [
        {
          "internalType": "uint256[]",
          "name": "",
          "type": "uint256[]"
        }
      ],
      "stateMutability": "view",
      "type": "function"
    },
    {
      "inputs": [
        {
          "internalType": "address",
          "name": "_user",
          "type": "address"
        }
      ],
      "name": "getSentCapsules",
      "outputs": [
        {
          "internalType": "uint256[]",
          "name": "",
          "type": "uint256[]"
        }
      ],
      "stateMutability": "view",
      "type": "function"
    },
    {
      "inputs": [],
      "name": "ipfsGateway",
      "outputs": [
        {
          "internalType": "string",
          "name": "",
          "type": "string"
        }
      ],
      "stateMutability": "view",
      "type": "function"
    },
    {
      "inputs": [
        {
          "internalType": "address",
          "name": "owner",
          "type": "address"
        },
        {
          "internalType": "address",
          "name": "operator",
          "type": "address"
        }
      ],
      "name": "isApprovedForAll",
      "outputs": [
        {
          "internalType": "bool",
          "name": "",
          "type": "bool"
        }
      ],
      "stateMutability": "view",
      "type": "function"
    },
    {
      "inputs": [
        {
          "internalType": "string",
          "name": "_encryptedCID",
          "type": "string"
        },
        {
          "internalType": "uint256",
          "name": "_unlockTime",
          "type": "uint256"
        },
        {
          "internalType": "string",
          "name": "_title",
          "type": "string"
        }
      ],
      "name": "mintSelfCapsule",
      "outputs": [
        {
          "internalType": "uint256",
          "name": "",
          "type": "uint256"
        }
      ],
      "stateMutability": "payable",
      "type": "function"
    },
    {
      "inputs": [
        {
          "internalType": "string",
          "name": "_encryptedCID",
          "type": "string"
        },
        {
          "internalType": "uint256",
          "name": "_unlockTime",
          "type": "uint256"
        },
        {
          "internalType": "address",
          "name": "_receiver",
          "type": "address"
        },
        {
          "internalType": "string",
          "name": "_title",
          "type": "string"
        }
      ],
      "name": "mintSendCapsule",
      "outputs": [
        {
          "internalType": "uint256",
          "name": "",
          "type": "uint256"
        }
      ],
      "stateMutability": "payable",
      "type": "function"
    },
    {
      "inputs": [],
      "name": "name",
      "outputs": [
        {
          "internalType": "string",
          "name": "",
          "type": "string"
        }
      ],
      "stateMutability": "view",
      "type": "function"
    },
    {
      "inputs": [
        {
          "internalType": "uint256",
          "name": "_tokenId",
          "type": "uint256"
        }
      ],
      "name": "openCapsule",
      "outputs": [],
      "stateMutability": "nonpayable",
      "type": "function"
    },
    {
      "inputs": [],
      "name": "owner",
      "outputs": [
        {
          "internalType": "address",
          "name": "",
          "type": "address"
        }
      ],
      "stateMutability": "view",
      "type": "function"
    },
    {
      "inputs": [
        {
          "internalType": "uint256",
          "name": "tokenId",
          "type": "uint256"
        }
      ],
      "name": "ownerOf",
      "outputs": [
        {
          "internalType": "address",
          "name": "",
          "type": "address"
        }
      ],
      "stateMutability": "view",
      "type": "function"
    },
    {
      "inputs": [],
      "name": "renounceOwnership",
      "outputs": [],
      "stateMutability": "nonpayable",
      "type": "function"
    },
    {
      "inputs": [
        {
          "internalType": "address",
          "name": "from",
          "type": "address"
        },
        {
          "internalType": "address",
          "name": "to",
          "type": "address"
        },
        {
          "internalType": "uint256",
          "name": "tokenId",
          "type": "uint256"
        }
      ],
      "name": "safeTransferFrom",
      "outputs": [],
      "stateMutability": "nonpayable",
      "type": "function"
    },
    {
      "inputs": [
        {
          "internalType": "address",
          "name": "from",
          "type": "address"
        },
        {
          "internalType": "address",
          "name": "to",
          "type": "address"
        },
        {
          "internalType": "uint256",
          "name": "tokenId",
          "type": "uint256"
        },
        {
          "internalType": "bytes",
          "name": "data",
          "type": "bytes"
        }
      ],
      "name": "safeTransferFrom",
      "outputs": [],
      "stateMutability": "nonpayable",
      "type": "function"
    },
    {
      "inputs": [
        {
          "internalType": "address",
          "name": "operator",
          "type": "address"
        },
        {
          "internalType": "bool",
          "name": "approved",
          "type": "bool"
        }
      ],
      "name": "setApprovalForAll",
      "outputs": [],
      "stateMutability": "nonpayable",
      "type": "function"
    },
    {
      "inputs": [
        {
          "internalType": "string",
          "name": "_pinkCID",
          "type": "string"
        },
        {
          "internalType": "string",
          "name": "_redCID",
          "type": "string"
        },
        {
          "internalType": "string",
          "name": "_blackCID",
          "type": "string"
        }
      ],
      "name": "setImageCIDs",
      "outputs": [],
      "stateMutability": "nonpayable",
      "type": "function"
    },
    {
      "inputs": [
        {
          "internalType": "string",
          "name": "_gateway",
          "type": "string"
        }
      ],
      "name": "setIpfsGateway",
      "outputs": [],
      "stateMutability": "nonpayable",
      "type": "function"
    },
    {
      "inputs": [
        {
          "internalType": "bytes4",
          "name": "interfaceId",
          "type": "bytes4"
        }
      ],
      "name": "supportsInterface",
      "outputs": [
        {
          "internalType": "bool",
          "name": "",
          "type": "bool"
        }
      ],
      "stateMutability": "view",
      "type": "function"
    },
    {
      "inputs": [],
      "name": "symbol",
      "outputs": [
        {
          "internalType": "string",
          "name": "",
          "type": "string"
        }
      ],
      "stateMutability": "view",
      "type": "function"
    },
    {
      "inputs": [
        {
          "internalType": "uint256",
          "name": "",
          "type": "uint256"
        }
      ],
      "name": "tierImageCIDs",
      "outputs": [
        {
          "internalType": "string",
          "name": "",
          "type": "string"
        }
      ],
      "stateMutability": "view",
      "type": "function"
    },
    {
      "inputs": [
        {
          "internalType": "uint256",
          "name": "_tokenId",
          "type": "uint256"
        }
      ],
      "name": "timeRemaining",
      "outputs": [
        {
          "internalType": "uint256",
          "name": "",
          "type": "uint256"
        }
      ],
      "stateMutability": "view",
      "type": "function"
    },
    {
      "inputs": [
        {
          "internalType": "uint256",
          "name": "tokenId",
          "type": "uint256"
        }
      ],
      "name": "tokenURI",
      "outputs": [
        {
          "internalType": "string",
          "name": "",
          "type": "string"
        }
      ],
      "stateMutability": "view",
      "type": "function"
    },
    {
      "inputs": [
        {
          "internalType": "address",
          "name": "from",
          "type": "address"
        },
        {
          "internalType": "address",
          "name": "to",
          "type": "address"
        },
        {
          "internalType": "uint256",
          "name": "tokenId",
          "type": "uint256"
        }
      ],
      "name": "transferFrom",
      "outputs": [],
      "stateMutability": "nonpayable",
      "type": "function"
    },
    {
      "inputs": [
        {
          "internalType": "address",
          "name": "newOwner",
          "type": "address"
        }
      ],
      "name": "transferOwnership",
      "outputs": [],
      "stateMutability": "nonpayable",
      "type": "function"
    }
  ],
  "bytecode": "0x608060405260405180606001604052806022815260200162005b8f60229139600e90816200002e919062000480565b503480156200003b575f80fd5b50336040518060400160405280600881526020017f43617073756c4d650000000000000000000000000000000000000000000000008152506040518060400160405280600481526020017f4341505300000000000000000000000000000000000000000000000000000000815250815f9081620000b9919062000480565b508060019081620000cb919062000480565b5050505f73ffffffffffffffffffffffffffffffffffffffff168173ffffffffffffffffffffffffffffffffffffffff160362000141575f6040517f1e4fbdf7000000000000000000000000000000000000000000000000000000008152600401620001389190620005a7565b60405180910390fd5b62000152816200015960201b60201c565b50620005c2565b5f60065f9054906101000a900473ffffffffffffffffffffffffffffffffffffffff1690508160065f6101000a81548173ffffffffffffffffffffffffffffffffffffffff021916908373ffffffffffffffffffffffffffffffffffffffff1602179055508173ffffffffffffffffffffffffffffffffffffffff168173ffffffffffffffffffffffffffffffffffffffff167f8be0079c531659141344cd1fd0a4f28419497f9722a3daafe3b4186f6b6457e060405160405180910390a35050565b5f81519050919050565b7f4e487b71000000000000000000000000000000000000000000000000000000005f52604160045260245ffd5b7f4e487b71000000000000000000000000000000000000000000000000000000005f52602260045260245ffd5b5f60028204905060018216806200029857607f821691505b602082108103620002ae57620002ad62000253565b5b50919050565b5f819050815f5260205f209050919050565b5f6020601f8301049050919050565b5f82821b905092915050565b5f60088302620003127fffffffffffffffffffffffffffffffffffffffffffffffffffffffffffffffff82620002d5565b6200031e8683620002d5565b95508019841693508086168417925050509392505050565b5f819050919050565b5f819050919050565b5f62000368620003626200035c8462000336565b6200033f565b62000336565b9050919050565b5f819050919050565b620003838362000348565b6200039b62000392826200036f565b848454620002e1565b825550505050565b5f90565b620003b1620003a3565b620003be81848462000378565b505050565b5b81811015620003e557620003d95f82620003a7565b600181019050620003c4565b5050565b601f8211156200043457620003fe81620002b4565b6200040984620002c6565b8101602085101562000419578190505b620004316200042885620002c6565b830182620003c3565b50505b505050565b5f82821c905092915050565b5f620004565f198460080262000439565b1980831691505092915050565b5f62000470838362000445565b9150826002028217905092915050565b6200048b826200021c565b67ffffffffffffffff811115620004a757620004a662000226565b5b620004b3825462000280565b620004c0828285620003e9565b5f60209050601f831160018114620004f6575f8415620004e1578287015190505b620004ed858262000463565b8655506200055c565b601f1984166200050686620002b4565b5f5b828110156200052f5784890151825560018201915060208501945060208101905062000508565b868310156200054f57848901516200054b601f89168262000445565b8355505b6001600288020188555050505b505050505050565b5f73ffffffffffffffffffffffffffffffffffffffff82169050919050565b5f6200058f8262000564565b9050919050565b620005a18162000583565b82525050565b5f602082019050620005bc5f83018462000596565b92915050565b6155bf80620005d05f395ff3fe60806040526004361061019b575f3560e01c806370a08231116100eb578063b88d4fde11610089578063e24e3ffb11610063578063e24e3ffb146105e4578063e985e9c514610620578063ea3d90201461065c578063f2fde38b146106985761019b565b8063b88d4fde14610550578063c749c9b014610578578063c87b56dd146105a85761019b565b80638da5cb5b116100c55780638da5cb5b1461049857806395d89b41146104c2578063a22cb465146104ec578063aeefb0e4146105145761019b565b806370a082311461040a578063715018a614610446578063880aad751461045c5761019b565b806342842e0e116101585780635996a271116101325780635996a271146103545780635c18e55c1461037c5780635e6ffac7146103a45780636352211e146103ce5761019b565b806342842e0e146102c157806344e1748a146102e9578063517bbf46146103115761019b565b806301ffc9a71461019f57806306fdde03146101db578063081812fc14610205578063095ea7b314610241578063187bc2cd1461026957806323b872dd14610299575b5f80fd5b3480156101aa575f80fd5b506101c560048036038101906101c091906134ce565b6106c0565b6040516101d29190613513565b60405180910390f35b3480156101e6575f80fd5b506101ef6107a1565b6040516101fc91906135b6565b60405180910390f35b348015610210575f80fd5b5061022b60048036038101906102269190613609565b610830565b6040516102389190613673565b60405180910390f35b34801561024c575f80fd5b50610267600480360381019061026291906136b6565b61084b565b005b610283600480360381019061027e9190613820565b610861565b60405161029091906138b7565b60405180910390f35b3480156102a4575f80fd5b506102bf60048036038101906102ba91906138d0565b6108b9565b005b3480156102cc575f80fd5b506102e760048036038101906102e291906138d0565b6109b8565b005b3480156102f4575f80fd5b5061030f600480360381019061030a9190613920565b6109d7565b005b34801561031c575f80fd5b5061033760048036038101906103329190613609565b6109f2565b60405161034b989796959493929190613a20565b60405180910390f35b34801561035f575f80fd5b5061037a60048036038101906103759190613aaa565b610b9a565b005b348015610387575f80fd5b506103a2600480360381019061039d9190613609565b610c4d565b005b3480156103af575f80fd5b506103b8610efb565b6040516103c591906135b6565b60405180910390f35b3480156103d9575f80fd5b506103f460048036038101906103ef9190613609565b610f87565b6040516104019190613673565b60405180910390f35b348015610415575f80fd5b50610430600480360381019061042b9190613b4e565b610f98565b60405161043d91906138b7565b60405180910390f35b348015610451575f80fd5b5061045a61104e565b005b348015610467575f80fd5b50610482600480360381019061047d9190613b4e565b611061565b60405161048f9190613c30565b60405180910390f35b3480156104a3575f80fd5b506104ac6110f4565b6040516104b99190613673565b60405180910390f35b3480156104cd575f80fd5b506104d661111c565b6040516104e391906135b6565b60405180910390f35b3480156104f7575f80fd5b50610512600480360381019061050d9190613c7a565b6111ac565b005b34801561051f575f80fd5b5061053a60048036038101906105359190613609565b6111c2565b60405161054791906135b6565b60405180910390f35b34801561055b575f80fd5b5061057660048036038101906105719190613d56565b611261565b005b610592600480360381019061058d9190613dd6565b611286565b60405161059f91906138b7565b60405180910390f35b3480156105b3575f80fd5b506105ce60048036038101906105c99190613609565b61134d565b6040516105db91906135b6565b60405180910390f35b3480156105ef575f80fd5b5061060a60048036038101906106059190613b4e565b611bd5565b6040516106179190613c30565b60405180910390f35b34801561062b575f80fd5b5061064660048036038101906106419190613e72565b611c68565b6040516106539190613513565b60405180910390f35b348015610667575f80fd5b50610682600480360381019061067d9190613609565b611cf6565b60405161068f91906138b7565b60405180910390f35b3480156106a3575f80fd5b506106be60048036038101906106b99190613b4e565b611d34565b005b5f7f80ac58cd000000000000000000000000000000000000000000000000000000007bffffffffffffffffffffffffffffffffffffffffffffffffffffffff1916827bffffffffffffffffffffffffffffffffffffffffffffffffffffffff1916148061078a57507f5b5e139f000000000000000000000000000000000000000000000000000000007bffffffffffffffffffffffffffffffffffffffffffffffffffffffff1916827bffffffffffffffffffffffffffffffffffffffffffffffffffffffff1916145b8061079a575061079982611db8565b5b9050919050565b60605f80546107af90613edd565b80601f01602080910402602001604051908101604052809291908181526020018280546107db90613edd565b80156108265780601f106107fd57610100808354040283529160200191610826565b820191905f5260205f20905b81548152906001019060200180831161080957829003601f168201915b5050505050905090565b5f61083a82611e21565b5061084482611ea7565b9050919050565b61085d8282610858611ee0565b611ee7565b5050565b5f4283116108a4576040517f08c379a000000000000000000000000000000000000000000000000000000000815260040161089b90613f7d565b60405180910390fd5b6108b084843385611ef9565b90509392505050565b5f73ffffffffffffffffffffffffffffffffffffffff168273ffffffffffffffffffffffffffffffffffffffff1603610929575f6040517f64a0ae920000000000000000000000000000000000000000000000000000000081526004016109209190613673565b60405180910390fd5b5f61093c8383610937611ee0565b61222a565b90508373ffffffffffffffffffffffffffffffffffffffff168173ffffffffffffffffffffffffffffffffffffffff16146109b2578382826040517f64283d7b0000000000000000000000000000000000000000000000000000000081526004016109a993929190613f9b565b60405180910390fd5b50505050565b6109d283838360405180602001604052805f815250611261565b505050565b6109df612435565b80600e90816109ee919061416d565b5050565b6008602052805f5260405f205f91509050805f018054610a1190613edd565b80601f0160208091040260200160405190810160405280929190818152602001828054610a3d90613edd565b8015610a885780601f10610a5f57610100808354040283529160200191610a88565b820191905f5260205f20905b815481529060010190602001808311610a6b57829003601f168201915b505050505090806001015490806002015f9054906101000a900473ffffffffffffffffffffffffffffffffffffffff1690806003015f9054906101000a900473ffffffffffffffffffffffffffffffffffffffff16908060030160149054906101000a900460ff16908060030160159054906101000a900460ff1690806004018054610b1390613edd565b80601f0160208091040260200160405190810160405280929190818152602001828054610b3f90613edd565b8015610b8a5780601f10610b6157610100808354040283529160200191610b8a565b820191905f5260205f20905b815481529060010190602001808311610b6d57829003601f168201915b5050505050908060050154905088565b610ba2612435565b82600b5f60038110610bb757610bb661423c565b5b019081610bc4919061416d565b5081600b600160038110610bdb57610bda61423c565b5b019081610be8919061416d565b5080600b600260038110610bff57610bfe61423c565b5b019081610c0c919061416d565b507f9d5c38b5c5339df574a86ce9eb4aaf46b455171bc49022b18d4ee56e8166ffe5838383604051610c4093929190614269565b60405180910390a1505050565b3373ffffffffffffffffffffffffffffffffffffffff16610c6d82610f87565b73ffffffffffffffffffffffffffffffffffffffff1614610cc3576040517f08c379a0000000000000000000000000000000000000000000000000000000008152600401610cba906142fd565b60405180910390fd5b60085f8281526020019081526020015f2060010154421015610d1a576040517f08c379a0000000000000000000000000000000000000000000000000000000008152600401610d1190614365565b60405180910390fd5b600280811115610d2d57610d2c613967565b5b60085f8381526020019081526020015f2060030160159054906101000a900460ff166002811115610d6157610d60613967565b5b03610da1576040517f08c379a0000000000000000000000000000000000000000000000000000000008152600401610d98906143cd565b60405180910390fd5b600260085f8381526020019081526020015f2060030160156101000a81548160ff02191690836002811115610dd957610dd8613967565b5b02179055505f60085f8381526020019081526020015f206005015490505f811115610ea8575f3373ffffffffffffffffffffffffffffffffffffffff1682604051610e2390614418565b5f6040518083038185875af1925050503d805f8114610e5d576040519150601f19603f3d011682016040523d82523d5f602084013e610e62565b606091505b5050905080610ea6576040517f08c379a0000000000000000000000000000000000000000000000000000000008152600401610e9d90614476565b60405180910390fd5b505b3373ffffffffffffffffffffffffffffffffffffffff16827f76270c867e16c1b02d645adea00d6836b88bed7c2c734a1e50e1fb94c86e2a4383604051610eef91906138b7565b60405180910390a35050565b600e8054610f0890613edd565b80601f0160208091040260200160405190810160405280929190818152602001828054610f3490613edd565b8015610f7f5780601f10610f5657610100808354040283529160200191610f7f565b820191905f5260205f20905b815481529060010190602001808311610f6257829003601f168201915b505050505081565b5f610f9182611e21565b9050919050565b5f8073ffffffffffffffffffffffffffffffffffffffff168273ffffffffffffffffffffffffffffffffffffffff1603611009575f6040517f89c62b640000000000000000000000000000000000000000000000000000000081526004016110009190613673565b60405180910390fd5b60035f8373ffffffffffffffffffffffffffffffffffffffff1673ffffffffffffffffffffffffffffffffffffffff1681526020019081526020015f20549050919050565b611056612435565b61105f5f6124bc565b565b6060600a5f8373ffffffffffffffffffffffffffffffffffffffff1673ffffffffffffffffffffffffffffffffffffffff1681526020019081526020015f208054806020026020016040519081016040528092919081815260200182805480156110e857602002820191905f5260205f20905b8154815260200190600101908083116110d4575b50505050509050919050565b5f60065f9054906101000a900473ffffffffffffffffffffffffffffffffffffffff16905090565b60606001805461112b90613edd565b80601f016020809104026020016040519081016040528092919081815260200182805461115790613edd565b80156111a25780601f10611179576101008083540402835291602001916111a2565b820191905f5260205f20905b81548152906001019060200180831161118557829003601f168201915b5050505050905090565b6111be6111b7611ee0565b838361257f565b5050565b600b81600381106111d1575f80fd5b015f9150905080546111e290613edd565b80601f016020809104026020016040519081016040528092919081815260200182805461120e90613edd565b80156112595780601f1061123057610100808354040283529160200191611259565b820191905f5260205f20905b81548152906001019060200180831161123c57829003601f168201915b505050505081565b61126c8484846108b9565b611280611277611ee0565b85858585612758565b50505050565b5f4284116112c9576040517f08c379a00000000000000000000000000000000000000000000000000000000081526004016112c090613f7d565b60405180910390fd5b5f73ffffffffffffffffffffffffffffffffffffffff168373ffffffffffffffffffffffffffffffffffffffff1603611337576040517f08c379a000000000000000000000000000000000000000000000000000000000815260040161132e906144de565b60405180910390fd5b61134385858585611ef9565b9050949350505050565b606061135882611e21565b505f60085f8481526020019081526020015f20604051806101000160405290815f8201805461138690613edd565b80601f01602080910402602001604051908101604052809291908181526020018280546113b290613edd565b80156113fd5780601f106113d4576101008083540402835291602001916113fd565b820191905f5260205f20905b8154815290600101906020018083116113e057829003601f168201915b5050505050815260200160018201548152602001600282015f9054906101000a900473ffffffffffffffffffffffffffffffffffffffff1673ffffffffffffffffffffffffffffffffffffffff1673ffffffffffffffffffffffffffffffffffffffff168152602001600382015f9054906101000a900473ffffffffffffffffffffffffffffffffffffffff1673ffffffffffffffffffffffffffffffffffffffff1673ffffffffffffffffffffffffffffffffffffffff1681526020016003820160149054906101000a900460ff1660028111156114df576114de613967565b5b60028111156114f1576114f0613967565b5b81526020016003820160159054906101000a900460ff16600281111561151a57611519613967565b5b600281111561152c5761152b613967565b5b815260200160048201805461154090613edd565b80601f016020809104026020016040519081016040528092919081815260200182805461156c90613edd565b80156115b75780601f1061158e576101008083540402835291602001916115b7565b820191905f5260205f20905b81548152906001019060200180831161159a57829003601f168201915b5050505050815260200160058201548152505090506060806002808111156115e2576115e1613967565b5b8360a0015160028111156115f9576115f8613967565b5b03611673576040518060400160405280600681526020017f4f70656e6564000000000000000000000000000000000000000000000000000081525091506040518060400160405280600781526020017f23316131613265000000000000000000000000000000000000000000000000008152509050611913565b826020015142106117ca576040518060400160405280600d81526020017f526561647920746f204f70656e0000000000000000000000000000000000000081525091505f60028111156116c9576116c8613967565b5b836080015160028111156116e0576116df613967565b5b1461178c57600160028111156116f9576116f8613967565b5b836080015160028111156117105761170f613967565b5b14611750576040518060400160405280600781526020017f2331613161316100000000000000000000000000000000000000000000000000815250611787565b6040518060400160405280600781526020017f23464632443535000000000000000000000000000000000000000000000000008152505b6117c3565b6040518060400160405280600781526020017f23464635464346000000000000000000000000000000000000000000000000008152505b9050611912565b6040518060400160405280600681526020017f4c6f636b6564000000000000000000000000000000000000000000000000000081525091505f600281111561181557611814613967565b5b8360800151600281111561182c5761182b613967565b5b146118d8576001600281111561184557611844613967565b5b8360800151600281111561185c5761185b613967565b5b1461189c576040518060400160405280600781526020017f23306430643064000000000000000000000000000000000000000000000000008152506118d3565b6040518060400160405280600781526020017f23386231613261000000000000000000000000000000000000000000000000008152505b61190f565b6040518060400160405280600781526020017f23633036323861000000000000000000000000000000000000000000000000008152505b90505b5b5f80600281111561192757611926613967565b5b8460800151600281111561193e5761193d613967565b5b14611982576001600281111561195757611956613967565b5b8460800151600281111561196e5761196d613967565b5b1461197a57600261197d565b60015b611984565b5f5b90505f80600281111561199a57611999613967565b5b856080015160028111156119b1576119b0613967565b5b14611a5d57600160028111156119ca576119c9613967565b5b856080015160028111156119e1576119e0613967565b5b14611a21576040518060400160405280600581526020017f426c61636b000000000000000000000000000000000000000000000000000000815250611a58565b6040518060400160405280600381526020017f52656400000000000000000000000000000000000000000000000000000000008152505b611a94565b6040518060400160405280600481526020017f50696e6b000000000000000000000000000000000000000000000000000000008152505b905060605f600b8460ff1660038110611ab057611aaf61423c565b5b018054611abc90613edd565b90501115611b0557600e600b8460ff1660038110611add57611adc61423c565b5b01604051602001611aef929190614586565b6040516020818303038152906040529050611b19565b611b168660c001518686858c612904565b90505b5f611b2389612975565b611b308860c00151612a3f565b611b3d8960200151612975565b848987611b658d6040015173ffffffffffffffffffffffffffffffffffffffff166014612a49565b611b728e60200151612975565b8e5f0151604051602001611b8e99989796959493929190614ac7565b6040516020818303038152906040529050611ba881612c87565b604051602001611bb89190614c60565b604051602081830303815290604052975050505050505050919050565b606060095f8373ffffffffffffffffffffffffffffffffffffffff1673ffffffffffffffffffffffffffffffffffffffff1681526020019081526020015f20805480602002602001604051908101604052809291908181526020018280548015611c5c57602002820191905f5260205f20905b815481526020019060010190808311611c48575b50505050509050919050565b5f60055f8473ffffffffffffffffffffffffffffffffffffffff1673ffffffffffffffffffffffffffffffffffffffff1681526020019081526020015f205f8373ffffffffffffffffffffffffffffffffffffffff1673ffffffffffffffffffffffffffffffffffffffff1681526020019081526020015f205f9054906101000a900460ff16905092915050565b5f8060085f8481526020019081526020015f20600101549050804210611d1f575f915050611d2f565b4281611d2b9190614cae565b9150505b919050565b611d3c612435565b5f73ffffffffffffffffffffffffffffffffffffffff168173ffffffffffffffffffffffffffffffffffffffff1603611dac575f6040517f1e4fbdf7000000000000000000000000000000000000000000000000000000008152600401611da39190613673565b60405180910390fd5b611db5816124bc565b50565b5f7f01ffc9a7000000000000000000000000000000000000000000000000000000007bffffffffffffffffffffffffffffffffffffffffffffffffffffffff1916827bffffffffffffffffffffffffffffffffffffffffffffffffffffffff1916149050919050565b5f80611e2c83612c9a565b90505f73ffffffffffffffffffffffffffffffffffffffff168173ffffffffffffffffffffffffffffffffffffffff1603611e9e57826040517f7e273289000000000000000000000000000000000000000000000000000000008152600401611e9591906138b7565b60405180910390fd5b80915050919050565b5f60045f8381526020019081526020015f205f9054906101000a900473ffffffffffffffffffffffffffffffffffffffff169050919050565b5f33905090565b611ef48383836001612cd3565b505050565b5f8060075f815480929190611f0d90614ce1565b9190505590505f611f1d86612e92565b90506040518061010001604052808881526020018781526020013373ffffffffffffffffffffffffffffffffffffffff1681526020018673ffffffffffffffffffffffffffffffffffffffff168152602001826002811115611f8257611f81613967565b5b81526020015f6002811115611f9a57611f99613967565b5b81526020018581526020013481525060085f8481526020019081526020015f205f820151815f019081611fcd919061416d565b50602082015181600101556040820151816002015f6101000a81548173ffffffffffffffffffffffffffffffffffffffff021916908373ffffffffffffffffffffffffffffffffffffffff1602179055506060820151816003015f6101000a81548173ffffffffffffffffffffffffffffffffffffffff021916908373ffffffffffffffffffffffffffffffffffffffff16021790555060808201518160030160146101000a81548160ff0219169083600281111561208f5761208e613967565b5b021790555060a08201518160030160156101000a81548160ff021916908360028111156120bf576120be613967565b5b021790555060c08201518160040190816120d9919061416d565b5060e0820151816005015590505060095f3373ffffffffffffffffffffffffffffffffffffffff1673ffffffffffffffffffffffffffffffffffffffff1681526020019081526020015f2082908060018154018082558091505060019003905f5260205f20015f9091909190915055600a5f8673ffffffffffffffffffffffffffffffffffffffff1673ffffffffffffffffffffffffffffffffffffffff1681526020019081526020015f2082908060018154018082558091505060019003905f5260205f20015f90919091909150556121b38583612ed7565b8473ffffffffffffffffffffffffffffffffffffffff163373ffffffffffffffffffffffffffffffffffffffff16837f2cc0f144b0ac4d92bfca72e509641cd9f349ac6277a8bbd8d74655253067e74189853460405161221593929190614d28565b60405180910390a48192505050949350505050565b5f8061223584612c9a565b90505f73ffffffffffffffffffffffffffffffffffffffff168373ffffffffffffffffffffffffffffffffffffffff161461227657612275818486612ef4565b5b5f73ffffffffffffffffffffffffffffffffffffffff168173ffffffffffffffffffffffffffffffffffffffff1614612301576122b55f855f80612cd3565b600160035f8373ffffffffffffffffffffffffffffffffffffffff1673ffffffffffffffffffffffffffffffffffffffff1681526020019081526020015f205f82825403925050819055505b5f73ffffffffffffffffffffffffffffffffffffffff168573ffffffffffffffffffffffffffffffffffffffff161461238057600160035f8773ffffffffffffffffffffffffffffffffffffffff1673ffffffffffffffffffffffffffffffffffffffff1681526020019081526020015f205f82825401925050819055505b8460025f8681526020019081526020015f205f6101000a81548173ffffffffffffffffffffffffffffffffffffffff021916908373ffffffffffffffffffffffffffffffffffffffff160217905550838573ffffffffffffffffffffffffffffffffffffffff168273ffffffffffffffffffffffffffffffffffffffff167fddf252ad1be2c89b69c2b068fc378daa952ba7f163c4a11628f55a4df523b3ef60405160405180910390a4809150509392505050565b61243d611ee0565b73ffffffffffffffffffffffffffffffffffffffff1661245b6110f4565b73ffffffffffffffffffffffffffffffffffffffff16146124ba5761247e611ee0565b6040517f118cdaa70000000000000000000000000000000000000000000000000000000081526004016124b19190613673565b60405180910390fd5b565b5f60065f9054906101000a900473ffffffffffffffffffffffffffffffffffffffff1690508160065f6101000a81548173ffffffffffffffffffffffffffffffffffffffff021916908373ffffffffffffffffffffffffffffffffffffffff1602179055508173ffffffffffffffffffffffffffffffffffffffff168173ffffffffffffffffffffffffffffffffffffffff167f8be0079c531659141344cd1fd0a4f28419497f9722a3daafe3b4186f6b6457e060405160405180910390a35050565b5f73ffffffffffffffffffffffffffffffffffffffff168373ffffffffffffffffffffffffffffffffffffffff16036125ef575f6040517fa9fbf51f0000000000000000000000000000000000000000000000000000000081526004016125e69190613673565b60405180910390fd5b5f73ffffffffffffffffffffffffffffffffffffffff168273ffffffffffffffffffffffffffffffffffffffff160361265f57816040517f5b08ba180000000000000000000000000000000000000000000000000000000081526004016126569190613673565b60405180910390fd5b8060055f8573ffffffffffffffffffffffffffffffffffffffff1673ffffffffffffffffffffffffffffffffffffffff1681526020019081526020015f205f8473ffffffffffffffffffffffffffffffffffffffff1673ffffffffffffffffffffffffffffffffffffffff1681526020019081526020015f205f6101000a81548160ff0219169083151502179055508173ffffffffffffffffffffffffffffffffffffffff168373ffffffffffffffffffffffffffffffffffffffff167f17307eab39ab6107e8899845ad3d59bd9653f200f220920489ca2b5937696c318360405161274b9190613513565b60405180910390a3505050565b5f8373ffffffffffffffffffffffffffffffffffffffff163b11156128fd578273ffffffffffffffffffffffffffffffffffffffff1663150b7a02868685856040518563ffffffff1660e01b81526004016127b69493929190614daf565b6020604051808303815f875af19250505080156127f157506040513d601f19601f820116820180604052508101906127ee9190614e0d565b60015b612872573d805f811461281f576040519150601f19603f3d011682016040523d82523d5f602084013e612824565b606091505b505f81510361286a57836040517f64a0ae920000000000000000000000000000000000000000000000000000000081526004016128619190613673565b60405180910390fd5b805160208201fd5b63150b7a0260e01b7bffffffffffffffffffffffffffffffffffffffffffffffffffffffff1916817bffffffffffffffffffffffffffffffffffffffffffffffffffffffff1916146128fb57836040517f64a0ae920000000000000000000000000000000000000000000000000000000081526004016128f29190613673565b60405180910390fd5b505b5050505050565b60605f8461291188612a3f565b878661291c87612975565b60405160200161293095949392919061530a565b604051602081830303815290604052905061294a81612c87565b60405160200161295a9190615422565b60405160208183030381529060405291505095945050505050565b60605f600161298384612fb7565b0190505f8167ffffffffffffffff8111156129a1576129a06136fc565b5b6040519080825280601f01601f1916602001820160405280156129d35781602001600182028036833780820191505090505b5090505f82602083010190505b600115612a34578080600190039150507f3031323334353637383961626364656600000000000000000000000000000000600a86061a8153600a8581612a2957612a28615443565b5b0494505f85036129e0575b819350505050919050565b6060819050919050565b60605f8390505f6002846002612a5f9190615470565b612a6991906154b1565b67ffffffffffffffff811115612a8257612a816136fc565b5b6040519080825280601f01601f191660200182016040528015612ab45781602001600182028036833780820191505090505b5090507f3000000000000000000000000000000000000000000000000000000000000000815f81518110612aeb57612aea61423c565b5b60200101907effffffffffffffffffffffffffffffffffffffffffffffffffffffffffffff191690815f1a9053507f780000000000000000000000000000000000000000000000000000000000000081600181518110612b4e57612b4d61423c565b5b60200101907effffffffffffffffffffffffffffffffffffffffffffffffffffffffffffff191690815f1a9053505f6001856002612b8c9190615470565b612b9691906154b1565b90505b6001811115612c35577f3031323334353637383961626364656600000000000000000000000000000000600f841660108110612bd857612bd761423c565b5b1a60f81b828281518110612bef57612bee61423c565b5b60200101907effffffffffffffffffffffffffffffffffffffffffffffffffffffffffffff191690815f1a905350600483901c925080612c2e906154e4565b9050612b99565b505f8214612c7c5784846040517fe22e27eb000000000000000000000000000000000000000000000000000000008152600401612c7392919061550b565b60405180910390fd5b809250505092915050565b6060612c93825f613108565b9050919050565b5f60025f8381526020019081526020015f205f9054906101000a900473ffffffffffffffffffffffffffffffffffffffff169050919050565b8080612d0b57505f73ffffffffffffffffffffffffffffffffffffffff168273ffffffffffffffffffffffffffffffffffffffff1614155b15612e3d575f612d1a84611e21565b90505f73ffffffffffffffffffffffffffffffffffffffff168373ffffffffffffffffffffffffffffffffffffffff1614158015612d8457508273ffffffffffffffffffffffffffffffffffffffff168173ffffffffffffffffffffffffffffffffffffffff1614155b8015612d975750612d958184611c68565b155b15612dd957826040517fa9fbf51f000000000000000000000000000000000000000000000000000000008152600401612dd09190613673565b60405180910390fd5b8115612e3b57838573ffffffffffffffffffffffffffffffffffffffff168273ffffffffffffffffffffffffffffffffffffffff167f8c5be1e5ebec7d5bd14f71427d1e84f3dd0314c0f7b2291e5b200ac8c7c3b92560405160405180910390a45b505b8360045f8581526020019081526020015f205f6101000a81548173ffffffffffffffffffffffffffffffffffffffff021916908373ffffffffffffffffffffffffffffffffffffffff16021790555050505050565b5f804283612ea09190614cae565b905062ed4e00811015612eb6575f915050612ed2565b6303c26700811015612ecc576001915050612ed2565b60029150505b919050565b612ef0828260405180602001604052805f815250613292565b5050565b612eff8383836132b5565b612fb2575f73ffffffffffffffffffffffffffffffffffffffff168373ffffffffffffffffffffffffffffffffffffffff1603612f7357806040517f7e273289000000000000000000000000000000000000000000000000000000008152600401612f6a91906138b7565b60405180910390fd5b81816040517f177e802f000000000000000000000000000000000000000000000000000000008152600401612fa9929190615532565b60405180910390fd5b505050565b5f805f90507a184f03e93ff9f4daa797ed6e38ed64bf6a1f0100000000000000008310613013577a184f03e93ff9f4daa797ed6e38ed64bf6a1f010000000000000000838161300957613008615443565b5b0492506040810190505b6d04ee2d6d415b85acef81000000008310613050576d04ee2d6d415b85acef8100000000838161304657613045615443565b5b0492506020810190505b662386f26fc10000831061307f57662386f26fc10000838161307557613074615443565b5b0492506010810190505b6305f5e10083106130a8576305f5e100838161309e5761309d615443565b5b0492506008810190505b61271083106130cd5761271083816130c3576130c2615443565b5b0492506004810190505b606483106130f057606483816130e6576130e5615443565b5b0492506002810190505b600a83106130ff576001810190505b80915050919050565b60605f8351036131285760405180602001604052805f815250905061328c565b5f826131595760036002855161313e91906154b1565b6131489190615559565b60046131549190615470565b613180565b600360028551600461316b9190615470565b61317591906154b1565b61317f9190615559565b5b905060405191507f4142434445464748494a4b4c4d4e4f505152535455565758595a616263646566601f5261067083027f6768696a6b6c6d6e6f707172737475767778797a303132333435363738392b2f18603f526020820181810185865187016020810180515f82525b8284101561323e576003840193508351603f8160121c16518753600187019650603f81600c1c16518753600187019650603f8160061c16518753600187019650603f8116518753600187019650506131eb565b8082528861327d5760038a51066001811461326057600281146132735761327b565b603d6001880353603d600288035361327b565b603d60018803535b505b86885284604052505050505050505b92915050565b61329c8383613375565b6132b06132a7611ee0565b5f858585612758565b505050565b5f8073ffffffffffffffffffffffffffffffffffffffff168373ffffffffffffffffffffffffffffffffffffffff161415801561336c57508273ffffffffffffffffffffffffffffffffffffffff168473ffffffffffffffffffffffffffffffffffffffff16148061332d575061332c8484611c68565b5b8061336b57508273ffffffffffffffffffffffffffffffffffffffff1661335383611ea7565b73ffffffffffffffffffffffffffffffffffffffff16145b5b90509392505050565b5f73ffffffffffffffffffffffffffffffffffffffff168273ffffffffffffffffffffffffffffffffffffffff16036133e5575f6040517f64a0ae920000000000000000000000000000000000000000000000000000000081526004016133dc9190613673565b60405180910390fd5b5f6133f183835f61222a565b90505f73ffffffffffffffffffffffffffffffffffffffff168173ffffffffffffffffffffffffffffffffffffffff1614613463575f6040517f73c6ac6e00000000000000000000000000000000000000000000000000000000815260040161345a9190613673565b60405180910390fd5b505050565b5f604051905090565b5f80fd5b5f80fd5b5f7fffffffff0000000000000000000000000000000000000000000000000000000082169050919050565b6134ad81613479565b81146134b7575f80fd5b50565b5f813590506134c8816134a4565b92915050565b5f602082840312156134e3576134e2613471565b5b5f6134f0848285016134ba565b91505092915050565b5f8115159050919050565b61350d816134f9565b82525050565b5f6020820190506135265f830184613504565b92915050565b5f81519050919050565b5f82825260208201905092915050565b5f5b83811015613563578082015181840152602081019050613548565b5f8484015250505050565b5f601f19601f8301169050919050565b5f6135888261352c565b6135928185613536565b93506135a2818560208601613546565b6135ab8161356e565b840191505092915050565b5f6020820190508181035f8301526135ce818461357e565b905092915050565b5f819050919050565b6135e8816135d6565b81146135f2575f80fd5b50565b5f81359050613603816135df565b92915050565b5f6020828403121561361e5761361d613471565b5b5f61362b848285016135f5565b91505092915050565b5f73ffffffffffffffffffffffffffffffffffffffff82169050919050565b5f61365d82613634565b9050919050565b61366d81613653565b82525050565b5f6020820190506136865f830184613664565b92915050565b61369581613653565b811461369f575f80fd5b50565b5f813590506136b08161368c565b92915050565b5f80604083850312156136cc576136cb613471565b5b5f6136d9858286016136a2565b92505060206136ea858286016135f5565b9150509250929050565b5f80fd5b5f80fd5b7f4e487b71000000000000000000000000000000000000000000000000000000005f52604160045260245ffd5b6137328261356e565b810181811067ffffffffffffffff82111715613751576137506136fc565b5b80604052505050565b5f613763613468565b905061376f8282613729565b919050565b5f67ffffffffffffffff82111561378e5761378d6136fc565b5b6137978261356e565b9050602081019050919050565b828183375f83830152505050565b5f6137c46137bf84613774565b61375a565b9050828152602081018484840111156137e0576137df6136f8565b5b6137eb8482856137a4565b509392505050565b5f82601f830112613807576138066136f4565b5b81356138178482602086016137b2565b91505092915050565b5f805f6060848603121561383757613836613471565b5b5f84013567ffffffffffffffff81111561385457613853613475565b5b613860868287016137f3565b9350506020613871868287016135f5565b925050604084013567ffffffffffffffff81111561389257613891613475565b5b61389e868287016137f3565b9150509250925092565b6138b1816135d6565b82525050565b5f6020820190506138ca5f8301846138a8565b92915050565b5f805f606084860312156138e7576138e6613471565b5b5f6138f4868287016136a2565b9350506020613905868287016136a2565b9250506040613916868287016135f5565b9150509250925092565b5f6020828403121561393557613934613471565b5b5f82013567ffffffffffffffff81111561395257613951613475565b5b61395e848285016137f3565b91505092915050565b7f4e487b71000000000000000000000000000000000000000000000000000000005f52602160045260245ffd5b600381106139a5576139a4613967565b5b50565b5f8190506139b582613994565b919050565b5f6139c4826139a8565b9050919050565b6139d4816139ba565b82525050565b600381106139eb576139ea613967565b5b50565b5f8190506139fb826139da565b919050565b5f613a0a826139ee565b9050919050565b613a1a81613a00565b82525050565b5f610100820190508181035f830152613a39818b61357e565b9050613a48602083018a6138a8565b613a556040830189613664565b613a626060830188613664565b613a6f60808301876139cb565b613a7c60a0830186613a11565b81810360c0830152613a8e818561357e565b9050613a9d60e08301846138a8565b9998505050505050505050565b5f805f60608486031215613ac157613ac0613471565b5b5f84013567ffffffffffffffff811115613ade57613add613475565b5b613aea868287016137f3565b935050602084013567ffffffffffffffff811115613b0b57613b0a613475565b5b613b17868287016137f3565b925050604084013567ffffffffffffffff811115613b3857613b37613475565b5b613b44868287016137f3565b9150509250925092565b5f60208284031215613b6357613b62613471565b5b5f613b70848285016136a2565b91505092915050565b5f81519050919050565b5f82825260208201905092915050565b5f819050602082019050919050565b613bab816135d6565b82525050565b5f613bbc8383613ba2565b60208301905092915050565b5f602082019050919050565b5f613bde82613b79565b613be88185613b83565b9350613bf383613b93565b805f5b83811015613c23578151613c0a8882613bb1565b9750613c1583613bc8565b925050600181019050613bf6565b5085935050505092915050565b5f6020820190508181035f830152613c488184613bd4565b905092915050565b613c59816134f9565b8114613c63575f80fd5b50565b5f81359050613c7481613c50565b92915050565b5f8060408385031215613c9057613c8f613471565b5b5f613c9d858286016136a2565b9250506020613cae85828601613c66565b9150509250929050565b5f67ffffffffffffffff821115613cd257613cd16136fc565b5b613cdb8261356e565b9050602081019050919050565b5f613cfa613cf584613cb8565b61375a565b905082815260208101848484011115613d1657613d156136f8565b5b613d218482856137a4565b509392505050565b5f82601f830112613d3d57613d3c6136f4565b5b8135613d4d848260208601613ce8565b91505092915050565b5f805f8060808587031215613d6e57613d6d613471565b5b5f613d7b878288016136a2565b9450506020613d8c878288016136a2565b9350506040613d9d878288016135f5565b925050606085013567ffffffffffffffff811115613dbe57613dbd613475565b5b613dca87828801613d29565b91505092959194509250565b5f805f8060808587031215613dee57613ded613471565b5b5f85013567ffffffffffffffff811115613e0b57613e0a613475565b5b613e17878288016137f3565b9450506020613e28878288016135f5565b9350506040613e39878288016136a2565b925050606085013567ffffffffffffffff811115613e5a57613e59613475565b5b613e66878288016137f3565b91505092959194509250565b5f8060408385031215613e8857613e87613471565b5b5f613e95858286016136a2565b9250506020613ea6858286016136a2565b9150509250929050565b7f4e487b71000000000000000000000000000000000000000000000000000000005f52602260045260245ffd5b5f6002820490506001821680613ef457607f821691505b602082108103613f0757613f06613eb0565b5b50919050565b7f556e6c6f636b2074696d65206d75737420626520696e207468652066757475725f8201527f6500000000000000000000000000000000000000000000000000000000000000602082015250565b5f613f67602183613536565b9150613f7282613f0d565b604082019050919050565b5f6020820190508181035f830152613f9481613f5b565b9050919050565b5f606082019050613fae5f830186613664565b613fbb60208301856138a8565b613fc86040830184613664565b949350505050565b5f819050815f5260205f209050919050565b5f6020601f8301049050919050565b5f82821b905092915050565b5f6008830261402c7fffffffffffffffffffffffffffffffffffffffffffffffffffffffffffffffff82613ff1565b6140368683613ff1565b95508019841693508086168417925050509392505050565b5f819050919050565b5f61407161406c614067846135d6565b61404e565b6135d6565b9050919050565b5f819050919050565b61408a83614057565b61409e61409682614078565b848454613ffd565b825550505050565b5f90565b6140b26140a6565b6140bd818484614081565b505050565b5b818110156140e0576140d55f826140aa565b6001810190506140c3565b5050565b601f821115614125576140f681613fd0565b6140ff84613fe2565b8101602085101561410e578190505b61412261411a85613fe2565b8301826140c2565b50505b505050565b5f82821c905092915050565b5f6141455f198460080261412a565b1980831691505092915050565b5f61415d8383614136565b9150826002028217905092915050565b6141768261352c565b67ffffffffffffffff81111561418f5761418e6136fc565b5b6141998254613edd565b6141a48282856140e4565b5f60209050601f8311600181146141d5575f84156141c3578287015190505b6141cd8582614152565b865550614234565b601f1984166141e386613fd0565b5f5b8281101561420a578489015182556001820191506020850194506020810190506141e5565b868310156142275784890151614223601f891682614136565b8355505b6001600288020188555050505b505050505050565b7f4e487b71000000000000000000000000000000000000000000000000000000005f52603260045260245ffd5b5f6060820190508181035f830152614281818661357e565b90508181036020830152614295818561357e565b905081810360408301526142a9818461357e565b9050949350505050565b7f4e6f7420746865206f776e6572000000000000000000000000000000000000005f82015250565b5f6142e7600d83613536565b91506142f2826142b3565b602082019050919050565b5f6020820190508181035f830152614314816142db565b9050919050565b7f4e6f74207965742074696d6520746f206f70656e0000000000000000000000005f82015250565b5f61434f601483613536565b915061435a8261431b565b602082019050919050565b5f6020820190508181035f83015261437c81614343565b9050919050565b7f416c7265616479206f70656e65640000000000000000000000000000000000005f82015250565b5f6143b7600e83613536565b91506143c282614383565b602082019050919050565b5f6020820190508181035f8301526143e4816143ab565b9050919050565b5f81905092915050565b50565b5f6144035f836143eb565b915061440e826143f5565b5f82019050919050565b5f614422826143f8565b9150819050919050565b7f455448207472616e73666572206661696c6564000000000000000000000000005f82015250565b5f614460601383613536565b915061446b8261442c565b602082019050919050565b5f6020820190508181035f83015261448d81614454565b9050919050565b7f496e76616c6964207265636569766572206164647265737300000000000000005f82015250565b5f6144c8601883613536565b91506144d382614494565b602082019050919050565b5f6020820190508181035f8301526144f5816144bc565b9050919050565b5f81905092915050565b5f815461451281613edd565b61451c81866144fc565b9450600182165f8114614536576001811461454b5761457d565b60ff198316865281151582028601935061457d565b61455485613fd0565b5f5b8381101561457557815481890152600182019150602081019050614556565b838801955050505b50505092915050565b5f6145918285614506565b915061459d8284614506565b91508190509392505050565b7f7b226e616d65223a2243617073756c20230000000000000000000000000000005f82015250565b5f6145dd6011836144fc565b91506145e8826145a9565b601182019050919050565b5f6145fd8261352c565b61460781856144fc565b9350614617818560208601613546565b80840191505092915050565b7f202d2000000000000000000000000000000000000000000000000000000000005f82015250565b5f6146576003836144fc565b915061466282614623565b600382019050919050565b7f222c0000000000000000000000000000000000000000000000000000000000005f82015250565b5f6146a16002836144fc565b91506146ac8261466d565b600282019050919050565b7f226465736372697074696f6e223a22412074696d652d6c6f636b6564206d65735f8201527f736167652063617073756c65206f6e2043617073756c4d652e20556e6c6f636b60208201527f3a20000000000000000000000000000000000000000000000000000000000000604082015250565b5f6147376042836144fc565b9150614742826146b7565b604282019050919050565b7f22696d616765223a2200000000000000000000000000000000000000000000005f82015250565b5f6147816009836144fc565b915061478c8261474d565b600982019050919050565b7f2261747472696275746573223a5b0000000000000000000000000000000000005f82015250565b5f6147cb600e836144fc565b91506147d682614797565b600e82019050919050565b7f7b2274726169745f74797065223a22537461747573222c2276616c7565223a225f82015250565b5f6148156020836144fc565b9150614820826147e1565b602082019050919050565b7f227d2c00000000000000000000000000000000000000000000000000000000005f82015250565b5f61485f6003836144fc565b915061486a8261482b565b600382019050919050565b7f7b2274726169745f74797065223a2254696572222c2276616c7565223a2200005f82015250565b5f6148a9601e836144fc565b91506148b482614875565b601e82019050919050565b7f7b2274726169745f74797065223a2253656e646572222c2276616c7565223a225f82015250565b5f6148f36020836144fc565b91506148fe826148bf565b602082019050919050565b7f7b2274726169745f74797065223a22556e6c6f636b2054696d65222c2276616c5f8201527f7565223a00000000000000000000000000000000000000000000000000000000602082015250565b5f6149636024836144fc565b915061496e82614909565b602482019050919050565b7f7d2c0000000000000000000000000000000000000000000000000000000000005f82015250565b5f6149ad6002836144fc565b91506149b882614979565b600282019050919050565b7f7b2274726169745f74797065223a22456e6372797074656420434944222c22765f8201527f616c7565223a2200000000000000000000000000000000000000000000000000602082015250565b5f614a1d6027836144fc565b9150614a28826149c3565b602782019050919050565b7f227d0000000000000000000000000000000000000000000000000000000000005f82015250565b5f614a676002836144fc565b9150614a7282614a33565b600282019050919050565b7f5d7d0000000000000000000000000000000000000000000000000000000000005f82015250565b5f614ab16002836144fc565b9150614abc82614a7d565b600282019050919050565b5f614ad1826145d1565b9150614add828c6145f3565b9150614ae88261464b565b9150614af4828b6145f3565b9150614aff82614695565b9150614b0a8261472b565b9150614b16828a6145f3565b9150614b2182614695565b9150614b2c82614775565b9150614b3882896145f3565b9150614b4382614695565b9150614b4e826147bf565b9150614b5982614809565b9150614b6582886145f3565b9150614b7082614853565b9150614b7b8261489d565b9150614b8782876145f3565b9150614b9282614853565b9150614b9d826148e7565b9150614ba982866145f3565b9150614bb482614853565b9150614bbf82614957565b9150614bcb82856145f3565b9150614bd6826149a1565b9150614be182614a11565b9150614bed82846145f3565b9150614bf882614a5b565b9150614c0382614aa5565b91508190509a9950505050505050505050565b7f646174613a6170706c69636174696f6e2f6a736f6e3b6261736536342c0000005f82015250565b5f614c4a601d836144fc565b9150614c5582614c16565b601d82019050919050565b5f614c6a82614c3e565b9150614c7682846145f3565b915081905092915050565b7f4e487b71000000000000000000000000000000000000000000000000000000005f52601160045260245ffd5b5f614cb8826135d6565b9150614cc3836135d6565b9250828203905081811115614cdb57614cda614c81565b5b92915050565b5f614ceb826135d6565b91507fffffffffffffffffffffffffffffffffffffffffffffffffffffffffffffffff8203614d1d57614d1c614c81565b5b600182019050919050565b5f606082019050614d3b5f8301866138a8565b614d4860208301856139cb565b614d5560408301846138a8565b949350505050565b5f81519050919050565b5f82825260208201905092915050565b5f614d8182614d5d565b614d8b8185614d67565b9350614d9b818560208601613546565b614da48161356e565b840191505092915050565b5f608082019050614dc25f830187613664565b614dcf6020830186613664565b614ddc60408301856138a8565b8181036060830152614dee8184614d77565b905095945050505050565b5f81519050614e07816134a4565b92915050565b5f60208284031215614e2257614e21613471565b5b5f614e2f84828501614df9565b91505092915050565b7f3c73766720786d6c6e733d22687474703a2f2f7777772e77332e6f72672f32305f8201527f30302f737667222076696577426f783d223020302034303020343030223e0000602082015250565b5f614e92603e836144fc565b9150614e9d82614e38565b603e82019050919050565b7f3c726563742077696474683d2234303022206865696768743d223430302220665f8201527f696c6c3d22000000000000000000000000000000000000000000000000000000602082015250565b5f614f026025836144fc565b9150614f0d82614ea8565b602582019050919050565b7f222f3e00000000000000000000000000000000000000000000000000000000005f82015250565b5f614f4c6003836144fc565b9150614f5782614f18565b600382019050919050565b7f3c7465787420783d223230302220793d223136302220746578742d616e63686f5f8201527f723d226d6964646c652220666f6e742d73697a653d223634222066696c6c3d2260208201527f7768697465223e26233132383232383b3c2f746578743e000000000000000000604082015250565b5f614fe26057836144fc565b9150614fed82614f62565b605782019050919050565b7f3c7465787420783d223230302220793d223232302220746578742d616e63686f5f8201527f723d226d6964646c652220666f6e742d66616d696c793d22417269616c22206660208201527f6f6e742d73697a653d223230222066696c6c3d2277686974652220666f6e742d60408201527f7765696768743d22626f6c64223e000000000000000000000000000000000000606082015250565b5f61509e606e836144fc565b91506150a982614ff8565b606e82019050919050565b7f3c2f746578743e000000000000000000000000000000000000000000000000005f82015250565b5f6150e86007836144fc565b91506150f3826150b4565b600782019050919050565b7f3c7465787420783d223230302220793d223235352220746578742d616e63686f5f8201527f723d226d6964646c652220666f6e742d66616d696c793d22417269616c22206660208201527f6f6e742d73697a653d223134222066696c6c3d2272676261283235352c32353560408201527f2c3235352c302e3729223e000000000000000000000000000000000000000000606082015250565b5f6151a4606b836144fc565b91506151af826150fe565b606b82019050919050565b7f3c7465787420783d223230302220793d223238352220746578742d616e63686f5f8201527f723d226d6964646c652220666f6e742d66616d696c793d22417269616c22206660208201527f6f6e742d73697a653d223132222066696c6c3d2272676261283235352c32353560408201527f2c3235352c302e3529223e000000000000000000000000000000000000000000606082015250565b5f615260606b836144fc565b915061526b826151ba565b606b82019050919050565b7f2054696572202662756c6c3b20230000000000000000000000000000000000005f82015250565b5f6152aa600e836144fc565b91506152b582615276565b600e82019050919050565b7f3c2f7376673e00000000000000000000000000000000000000000000000000005f82015250565b5f6152f46006836144fc565b91506152ff826152c0565b600682019050919050565b5f61531482614e86565b915061531f82614ef6565b915061532b82886145f3565b915061533682614f40565b915061534182614fd6565b915061534c82615092565b915061535882876145f3565b9150615363826150dc565b915061536e82615198565b915061537a82866145f3565b9150615385826150dc565b915061539082615254565b915061539c82856145f3565b91506153a78261529e565b91506153b382846145f3565b91506153be826150dc565b91506153c9826152e8565b91508190509695505050505050565b7f646174613a696d6167652f7376672b786d6c3b6261736536342c0000000000005f82015250565b5f61540c601a836144fc565b9150615417826153d8565b601a82019050919050565b5f61542c82615400565b915061543882846145f3565b915081905092915050565b7f4e487b71000000000000000000000000000000000000000000000000000000005f52601260045260245ffd5b5f61547a826135d6565b9150615485836135d6565b9250828202615493816135d6565b915082820484148315176154aa576154a9614c81565b5b5092915050565b5f6154bb826135d6565b91506154c6836135d6565b92508282019050808211156154de576154dd614c81565b5b92915050565b5f6154ee826135d6565b91505f8203615500576154ff614c81565b5b600182039050919050565b5f60408201905061551e5f8301856138a8565b61552b60208301846138a8565b9392505050565b5f6040820190506155455f830185613664565b61555260208301846138a8565b9392505050565b5f615563826135d6565b915061556e836135d6565b92508261557e5761557d615443565b5b82820490509291505056fea2646970667358221220e6c653f78ef3cb82a04cf9bd55de6c7b2a3a7e9ac7ed78960593294f6da6df0a64736f6c6343000818003368747470733a2f2f676174657761792e70696e6174612e636c6f75642f697066732f",
  "linkReferences": {},
  "deployedLinkReferences": {}
}