{"contracts/CapsulMe.sol":{"CapsulMe":{"abi":[{"inputs":[],"stateMutability":"nonpayable","type":"constructor"},{"inputs":[{"internalType":"address","name":"sender","type":"address"},{"internalType":"uint256","name":"tokenId","type":"uint256"},{"internalType":"address","name":"owner","type":"address"}],"name":"ERC721IncorrectOwner","type":"error"},{"inputs":[{"internalType":"address","name":"operator","type":"address"},{"internalType":"uint256","name":"tokenId","type":"uint256"}],"name":"ERC721InsufficientApproval","type":"error"},{"inputs":[{"internalType":"address","name":"approver","type":"address"}],"name":"ERC721InvalidApprover","type":"error"},{"inputs":[{"internalType":"address","name":"operator","type":"address"}],"name":"ERC721InvalidOperator","type":"error"},{"inputs":[{"internalType":"address","name":"owner","type":"address"}],"name":"ERC721InvalidOwner","type":"error"},{"inputs":[{"internalType":"address","name":"receiver","type":"address"}],"name":"ERC721InvalidReceiver","type":"error"},{"inputs":[{"internalType":"address","name":"sender","type":"address"}],"name":"ERC721InvalidSender","type":"error"},{"inputs":[{"internalType":"uint256","name":"tokenId","type":"uint256"}],"name":"ERC721NonexistentToken","type":"error"},{"inputs":[{"internalType":"address","name":"owner","type":"address"}],"name":"OwnableInvalidOwner","type":"error"},{"inputs":[{"internalType":"address","name":"account","type":"address"}],"name":"OwnableUnauthorizedAccount","type":"error"},{"inputs":[{"internalType":"uint256","name":"value","type":"uint256"},{"internalType":"uint256","name":"length","type":"uint256"}],"name":"StringsInsufficientHexLength","type":"error"},{"anonymous":false,"inputs":[{"indexed":true,"internalType":"address","name":"owner","type":"address"},{"indexed":true,"internalType":"address","name":"approved","type":"address"},{"indexed":true,"internalType":"uint256","name":"tokenId","type":"uint256"}],"name":"Approval","type":"event"},{"anonymous":false,"inputs":[{"indexed":true,"internalType":"address","name":"owner","type":"address"},{"indexed":true,"internalType":"address","name":"operator","type":"address"},{"indexed":false,"internalType":"bool","name":"approved","type":"bool"}],"name":"ApprovalForAll","type":"event"},{"anonymous":false,"inputs":[{"indexed":true,"internalType":"uint256","name":"tokenId","type":"uint256"},{"indexed":true,"internalType":"address","name":"sender","type":"address"},{"indexed":true,"internalType":"address","name":"receiver","type":"address"},{"indexed":false,"internalType":"uint256","name":"unlockTime","type":"uint256"},{"indexed":false,"internalType":"enum CapsulMe.Tier","name":"tier","type":"uint8"}],"name":"CapsuleMinted","type":"event"},{"anonymous":false,"inputs":[{"indexed":true,"internalType":"uint256","name":"tokenId","type":"uint256"},{"indexed":true,"internalType":"address","name":"opener","type":"address"}],"name":"CapsuleOpened","type":"event"},{"anonymous":false,"inputs":[{"indexed":true,"internalType":"address","name":"previousOwner","type":"address"},{"indexed":true,"internalType":"address","name":"newOwner","type":"address"}],"name":"OwnershipTransferred","type":"event"},{"anonymous":false,"inputs":[{"indexed":true,"internalType":"address","name":"from","type":"address"},{"indexed":true,"internalType":"address","name":"to","type":"address"},{"indexed":true,"internalType":"uint256","name":"tokenId","type":"uint256"}],"name":"Transfer","type":"event"},{"inputs":[{"internalType":"address","name":"to","type":"address"},{"internalType":"uint256","name":"tokenId","type":"uint256"}],"name":"approve","outputs":[],"stateMutability":"nonpayable","type":"function"},{"inputs":[{"internalType":"address","name":"owner","type":"address"}],"name":"balanceOf","outputs":[{"internalType":"uint256","name":"","type":"uint256"}],"stateMutability":"view","type":"function"},{"inputs":[{"internalType":"uint256","name":"","type":"uint256"}],"name":"capsules","outputs":[{"internalType":"string","name":"encryptedCID","type":"string"},{"internalType":"uint256","name":"unlockTime","type":"uint256"},{"internalType":"address","name":"sender","type":"address"},{"internalType":"address","name":"receiver","type":"address"},{"internalType":"enum CapsulMe.Tier","name":"tier","type":"uint8"},{"internalType":"enum CapsulMe.Status","name":"status","type":"uint8"},{"internalType":"string","name":"title","type":"string"}],"stateMutability":"view","type":"function"},{"inputs":[{"internalType":"uint256","name":"tokenId","type":"uint256"}],"name":"getApproved","outputs":[{"internalType":"address","name":"","type":"address"}],"stateMutability":"view","type":"function"},{"inputs":[{"internalType":"address","name":"_user","type":"address"}],"name":"getReceivedCapsules","outputs":[{"internalType":"uint256[]","name":"","type":"uint256[]"}],"stateMutability":"view","type":"function"},{"inputs":[{"internalType":"address","name":"_user","type":"address"}],"name":"getSentCapsules","outputs":[{"internalType":"uint256[]","name":"","type":"uint256[]"}],"stateMutability":"view","type":"function"},{"inputs":[{"internalType":"address","name":"owner","type":"address"},{"internalType":"address","name":"operator","type":"address"}],"name":"isApprovedForAll","outputs":[{"internalType":"bool","name":"","type":"bool"}],"stateMutability":"view","type":"function"},{"inputs":[{"internalType":"string","name":"_encryptedCID","type":"string"},{"internalType":"uint256","name":"_unlockTime","type":"uint256"},{"internalType":"string","name":"_title","type":"string"}],"name":"mintSelfCapsule","outputs":[{"internalType":"uint256","name":"","type":"uint256"}],"stateMutability":"nonpayable","type":"function"},{"inputs":[{"internalType":"string","name":"_encryptedCID","type":"string"},{"internalType":"uint256","name":"_unlockTime","type":"uint256"},{"internalType":"address","name":"_receiver","type":"address"},{"internalType":"string","name":"_title","type":"string"}],"name":"mintSendCapsule","outputs":[{"internalType":"uint256","name":"","type":"uint256"}],"stateMutability":"nonpayable","type":"function"},{"inputs":[],"name":"name","outputs":[{"internalType":"string","name":"","type":"string"}],"stateMutability":"view","type":"function"},{"inputs":[{"internalType":"uint256","name":"_tokenId","type":"uint256"}],"name":"openCapsule","outputs":[],"stateMutability":"nonpayable","type":"function"},{"inputs":[],"name":"owner","outputs":[{"internalType":"address","name":"","type":"address"}],"stateMutability":"view","type":"function"},{"inputs":[{"internalType":"uint256","name":"tokenId","type":"uint256"}],"name":"ownerOf","outputs":[{"internalType":"address","name":"","type":"address"}],"stateMutability":"view","type":"function"},{"inputs":[],"name":"renounceOwnership","outputs":[],"stateMutability":"nonpayable","type":"function"},{"inputs":[{"internalType":"address","name":"from","type":"address"},{"internalType":"address","name":"to","type":"address"},{"internalType":"uint256","name":"tokenId","type":"uint256"}],"name":"safeTransferFrom","outputs":[],"stateMutability":"nonpayable","type":"function"},{"inputs":[{"internalType":"address","name":"from","type":"address"},{"internalType":"address","name":"to","type":"address"},{"internalType":"uint256","name":"tokenId","type":"uint256"},{"internalType":"bytes","name":"data","type":"bytes"}],"name":"safeTransferFrom","outputs":[],"stateMutability":"nonpayable","type":"function"},{"inputs":[{"internalType":"address","name":"operator","type":"address"},{"internalType":"bool","name":"approved","type":"bool"}],"name":"setApprovalForAll","outputs":[],"stateMutability":"nonpayable","type":"function"},{"inputs":[{"internalType":"bytes4","name":"interfaceId","type":"bytes4"}],"name":"supportsInterface","outputs":[{"internalType":"bool","name":"","type":"bool"}],"stateMutability":"view","type":"function"},{"inputs":[],"name":"symbol","outputs":[{"internalType":"string","name":"","type":"string"}],"stateMutability":"view","type":"function"},{"inputs":[{"internalType":"uint256","name":"_tokenId","type":"uint256"}],"name":"timeRemaining","outputs":[{"internalType":"uint256","name":"","type":"uint256"}],"stateMutability":"view","type":"function"},{"inputs":[{"internalType":"uint256","name":"tokenId","type":"uint256"}],"name":"tokenURI","outputs":[{"internalType":"string","name":"","type":"string"}],"stateMutability":"view","type":"function"},{"inputs":[{"internalType":"address","name":"from","type":"address"},{"internalType":"address","name":"to","type":"address"},{"internalType":"uint256","name":"tokenId","type":"uint256"}],"name":"transferFrom","outputs":[],"stateMutability":"nonpayable","type":"function"},{"inputs":[{"internalType":"address","name":"newOwner","type":"address"}],"name":"transferOwnership","outputs":[],"stateMutability":"nonpayable","type":"function"}],"evm":{"bytecode":{"linkReferences":{},"object":"608060405234801562000010575f80fd5b50336040518060400160405280600881526020017f43617073756c4d650000000000000000000000000000000000000000000000008152506040518060400160405280600481526020017f4341505300000000000000000000000000000000000000000000000000000000815250815f90816200008e919062000455565b508060019081620000a0919062000455565b5050505f73ffffffffffffffffffffffffffffffffffffffff168173ffffffffffffffffffffffffffffffffffffffff160362000116575f6040517f1e4fbdf70000000000000000000000000000000000000000000000000000000081526004016200010d91906200057c565b60405180910390fd5b62000127816200012e60201b60201c565b5062000597565b5f60065f9054906101000a900473ffffffffffffffffffffffffffffffffffffffff1690508160065f6101000a81548173ffffffffffffffffffffffffffffffffffffffff021916908373ffffffffffffffffffffffffffffffffffffffff1602179055508173ffffffffffffffffffffffffffffffffffffffff168173ffffffffffffffffffffffffffffffffffffffff167f8be0079c531659141344cd1fd0a4f28419497f9722a3daafe3b4186f6b6457e060405160405180910390a35050565b5f81519050919050565b7f4e487b71000000000000000000000000000000000000000000000000000000005f52604160045260245ffd5b7f4e487b71000000000000000000000000000000000000000000000000000000005f52602260045260245ffd5b5f60028204905060018216806200026d57607f821691505b60208210810362000283576200028262000228565b5b50919050565b5f819050815f5260205f209050919050565b5f6020601f8301049050919050565b5f82821b905092915050565b5f60088302620002e77fffffffffffffffffffffffffffffffffffffffffffffffffffffffffffffffff82620002aa565b620002f38683620002aa565b95508019841693508086168417925050509392505050565b5f819050919050565b5f819050919050565b5f6200033d6200033762000331846200030b565b62000314565b6200030b565b9050919050565b5f819050919050565b62000358836200031d565b62000370620003678262000344565b848454620002b6565b825550505050565b5f90565b6200038662000378565b620003938184846200034d565b505050565b5b81811015620003ba57620003ae5f826200037c565b60018101905062000399565b5050565b601f8211156200040957620003d38162000289565b620003de846200029b565b81016020851015620003ee578190505b62000406620003fd856200029b565b83018262000398565b50505b505050565b5f82821c905092915050565b5f6200042b5f19846008026200040e565b1980831691505092915050565b5f6200044583836200041a565b9150826002028217905092915050565b6200046082620001f1565b67ffffffffffffffff8111156200047c576200047b620001fb565b5b62000488825462000255565b62000495828285620003be565b5f60209050601f831160018114620004cb575f8415620004b6578287015190505b620004c2858262000438565b86555062000531565b601f198416620004db8662000289565b5f5b828110156200050457848901518255600182019150602085019450602081019050620004dd565b8683101562000524578489015162000520601f8916826200041a565b8355505b6001600288020188555050505b505050505050565b5f73ffffffffffffffffffffffffffffffffffffffff82169050919050565b5f620005648262000539565b9050919050565b620005768162000558565b82525050565b5f602082019050620005915f8301846200056b565b92915050565b614bbd80620005a55f395ff3fe608060405234801561000f575f80fd5b506004361061014b575f3560e01c8063715018a6116100c1578063c749c9b01161007a578063c749c9b0146103b1578063c87b56dd146103e1578063e24e3ffb14610411578063e985e9c514610441578063ea3d902014610471578063f2fde38b146104a15761014b565b8063715018a614610303578063880aad751461030d5780638da5cb5b1461033d57806395d89b411461035b578063a22cb46514610379578063b88d4fde146103955761014b565b806323b872dd1161011357806323b872dd1461021957806342842e0e14610235578063517bbf46146102515780635c18e55c146102875780636352211e146102a357806370a08231146102d35761014b565b806301ffc9a71461014f57806306fdde031461017f578063081812fc1461019d578063095ea7b3146101cd578063187bc2cd146101e9575b5f80fd5b61016960048036038101906101649190612ea4565b6104bd565b6040516101769190612ee9565b60405180910390f35b61018761059e565b6040516101949190612f8c565b60405180910390f35b6101b760048036038101906101b29190612fdf565b61062d565b6040516101c49190613049565b60405180910390f35b6101e760048036038101906101e2919061308c565b610648565b005b61020360048036038101906101fe91906131f6565b61065e565b604051610210919061328d565b60405180910390f35b610233600480360381019061022e91906132a6565b6106b6565b005b61024f600480360381019061024a91906132a6565b6107b5565b005b61026b60048036038101906102669190612fdf565b6107d4565b60405161027e97969594939291906133af565b60405180910390f35b6102a1600480360381019061029c9190612fdf565b610976565b005b6102bd60048036038101906102b89190612fdf565b610b4e565b6040516102ca9190613049565b60405180910390f35b6102ed60048036038101906102e8919061342a565b610b5f565b6040516102fa919061328d565b60405180910390f35b61030b610c15565b005b6103276004803603810190610322919061342a565b610c28565b604051610334919061350c565b60405180910390f35b610345610cbb565b6040516103529190613049565b60405180910390f35b610363610ce3565b6040516103709190612f8c565b60405180910390f35b610393600480360381019061038e9190613556565b610d73565b005b6103af60048036038101906103aa9190613632565b610d89565b005b6103cb60048036038101906103c691906136b2565b610dae565b6040516103d8919061328d565b60405180910390f35b6103fb60048036038101906103f69190612fdf565b610e75565b6040516104089190612f8c565b60405180910390f35b61042b6004803603810190610426919061342a565b61162f565b604051610438919061350c565b60405180910390f35b61045b6004803603810190610456919061374e565b6116c2565b6040516104689190612ee9565b60405180910390f35b61048b60048036038101906104869190612fdf565b611750565b604051610498919061328d565b60405180910390f35b6104bb60048036038101906104b6919061342a565b61178e565b005b5f7f80ac58cd000000000000000000000000000000000000000000000000000000007bffffffffffffffffffffffffffffffffffffffffffffffffffffffff1916827bffffffffffffffffffffffffffffffffffffffffffffffffffffffff1916148061058757507f5b5e139f000000000000000000000000000000000000000000000000000000007bffffffffffffffffffffffffffffffffffffffffffffffffffffffff1916827bffffffffffffffffffffffffffffffffffffffffffffffffffffffff1916145b80610597575061059682611812565b5b9050919050565b60605f80546105ac906137b9565b80601f01602080910402602001604051908101604052809291908181526020018280546105d8906137b9565b80156106235780601f106105fa57610100808354040283529160200191610623565b820191905f5260205f20905b81548152906001019060200180831161060657829003601f168201915b5050505050905090565b5f6106378261187b565b5061064182611901565b9050919050565b61065a828261065561193a565b611941565b5050565b5f4283116106a1576040517f08c379a000000000000000000000000000000000000000000000000000000000815260040161069890613859565b60405180910390fd5b6106ad84843385611953565b90509392505050565b5f73ffffffffffffffffffffffffffffffffffffffff168273ffffffffffffffffffffffffffffffffffffffff1603610726575f6040517f64a0ae9200000000000000000000000000000000000000000000000000000000815260040161071d9190613049565b60405180910390fd5b5f610739838361073461193a565b611c71565b90508373ffffffffffffffffffffffffffffffffffffffff168173ffffffffffffffffffffffffffffffffffffffff16146107af578382826040517f64283d7b0000000000000000000000000000000000000000000000000000000081526004016107a693929190613877565b60405180910390fd5b50505050565b6107cf83838360405180602001604052805f815250610d89565b505050565b6008602052805f5260405f205f91509050805f0180546107f3906137b9565b80601f016020809104026020016040519081016040528092919081815260200182805461081f906137b9565b801561086a5780601f106108415761010080835404028352916020019161086a565b820191905f5260205f20905b81548152906001019060200180831161084d57829003601f168201915b505050505090806001015490806002015f9054906101000a900473ffffffffffffffffffffffffffffffffffffffff1690806003015f9054906101000a900473ffffffffffffffffffffffffffffffffffffffff16908060030160149054906101000a900460ff16908060030160159054906101000a900460ff16908060040180546108f5906137b9565b80601f0160208091040260200160405190810160405280929190818152602001828054610921906137b9565b801561096c5780601f106109435761010080835404028352916020019161096c565b820191905f5260205f20905b81548152906001019060200180831161094f57829003601f168201915b5050505050905087565b3373ffffffffffffffffffffffffffffffffffffffff1661099682610b4e565b73ffffffffffffffffffffffffffffffffffffffff16146109ec576040517f08c379a00000000000000000000000000000000000000000000000000000000081526004016109e3906138f6565b60405180910390fd5b60085f8281526020019081526020015f2060010154421015610a43576040517f08c379a0000000000000000000000000000000000000000000000000000000008152600401610a3a9061395e565b60405180910390fd5b600280811115610a5657610a556132f6565b5b60085f8381526020019081526020015f2060030160159054906101000a900460ff166002811115610a8a57610a896132f6565b5b03610aca576040517f08c379a0000000000000000000000000000000000000000000000000000000008152600401610ac1906139c6565b60405180910390fd5b600260085f8381526020019081526020015f2060030160156101000a81548160ff02191690836002811115610b0257610b016132f6565b5b02179055503373ffffffffffffffffffffffffffffffffffffffff16817f7d3112e72b789ad7c63705ec623a9760c64dd2b02125a7a8d5e96d252c4009f660405160405180910390a350565b5f610b588261187b565b9050919050565b5f8073ffffffffffffffffffffffffffffffffffffffff168273ffffffffffffffffffffffffffffffffffffffff1603610bd0575f6040517f89c62b64000000000000000000000000000000000000000000000000000000008152600401610bc79190613049565b60405180910390fd5b60035f8373ffffffffffffffffffffffffffffffffffffffff1673ffffffffffffffffffffffffffffffffffffffff1681526020019081526020015f20549050919050565b610c1d611e7c565b610c265f611f03565b565b6060600a5f8373ffffffffffffffffffffffffffffffffffffffff1673ffffffffffffffffffffffffffffffffffffffff1681526020019081526020015f20805480602002602001604051908101604052809291908181526020018280548015610caf57602002820191905f5260205f20905b815481526020019060010190808311610c9b575b50505050509050919050565b5f60065f9054906101000a900473ffffffffffffffffffffffffffffffffffffffff16905090565b606060018054610cf2906137b9565b80601f0160208091040260200160405190810160405280929190818152602001828054610d1e906137b9565b8015610d695780601f10610d4057610100808354040283529160200191610d69565b820191905f5260205f20905b815481529060010190602001808311610d4c57829003601f168201915b5050505050905090565b610d85610d7e61193a565b8383611fc6565b5050565b610d948484846106b6565b610da8610d9f61193a565b8585858561219f565b50505050565b5f428411610df1576040517f08c379a0000000000000000000000000000000000000000000000000000000008152600401610de890613859565b60405180910390fd5b5f73ffffffffffffffffffffffffffffffffffffffff168373ffffffffffffffffffffffffffffffffffffffff1603610e5f576040517f08c379a0000000000000000000000000000000000000000000000000000000008152600401610e5690613a2e565b60405180910390fd5b610e6b85858585611953565b9050949350505050565b6060610e808261187b565b505f60085f8481526020019081526020015f206040518060e00160405290815f82018054610ead906137b9565b80601f0160208091040260200160405190810160405280929190818152602001828054610ed9906137b9565b8015610f245780601f10610efb57610100808354040283529160200191610f24565b820191905f5260205f20905b815481529060010190602001808311610f0757829003601f168201915b5050505050815260200160018201548152602001600282015f9054906101000a900473ffffffffffffffffffffffffffffffffffffffff1673ffffffffffffffffffffffffffffffffffffffff1673ffffffffffffffffffffffffffffffffffffffff168152602001600382015f9054906101000a900473ffffffffffffffffffffffffffffffffffffffff1673ffffffffffffffffffffffffffffffffffffffff1673ffffffffffffffffffffffffffffffffffffffff1681526020016003820160149054906101000a900460ff166002811115611006576110056132f6565b5b6002811115611018576110176132f6565b5b81526020016003820160159054906101000a900460ff166002811115611041576110406132f6565b5b6002811115611053576110526132f6565b5b8152602001600482018054611067906137b9565b80601f0160208091040260200160405190810160405280929190818152602001828054611093906137b9565b80156110de5780601f106110b5576101008083540402835291602001916110de565b820191905f5260205f20905b8154815290600101906020018083116110c157829003601f168201915b50505050508152505090506060806002808111156110ff576110fe6132f6565b5b8360a001516002811115611116576111156132f6565b5b03611190576040518060400160405280600681526020017f4f70656e6564000000000000000000000000000000000000000000000000000081525091506040518060400160405280600781526020017f23316131613265000000000000000000000000000000000000000000000000008152509050611430565b826020015142106112e7576040518060400160405280600d81526020017f526561647920746f204f70656e0000000000000000000000000000000000000081525091505f60028111156111e6576111e56132f6565b5b836080015160028111156111fd576111fc6132f6565b5b146112a95760016002811115611216576112156132f6565b5b8360800151600281111561122d5761122c6132f6565b5b1461126d576040518060400160405280600781526020017f23316131613161000000000000000000000000000000000000000000000000008152506112a4565b6040518060400160405280600781526020017f23464632443535000000000000000000000000000000000000000000000000008152505b6112e0565b6040518060400160405280600781526020017f23464635464346000000000000000000000000000000000000000000000000008152505b905061142f565b6040518060400160405280600681526020017f4c6f636b6564000000000000000000000000000000000000000000000000000081525091505f6002811115611332576113316132f6565b5b83608001516002811115611349576113486132f6565b5b146113f55760016002811115611362576113616132f6565b5b83608001516002811115611379576113786132f6565b5b146113b9576040518060400160405280600781526020017f23306430643064000000000000000000000000000000000000000000000000008152506113f0565b6040518060400160405280600781526020017f23386231613261000000000000000000000000000000000000000000000000008152505b61142c565b6040518060400160405280600781526020017f23633036323861000000000000000000000000000000000000000000000000008152505b90505b5b5f806002811115611444576114436132f6565b5b8460800151600281111561145b5761145a6132f6565b5b146115075760016002811115611474576114736132f6565b5b8460800151600281111561148b5761148a6132f6565b5b146114cb576040518060400160405280600581526020017f426c61636b000000000000000000000000000000000000000000000000000000815250611502565b6040518060400160405280600381526020017f52656400000000000000000000000000000000000000000000000000000000008152505b61153e565b6040518060400160405280600481526020017f50696e6b000000000000000000000000000000000000000000000000000000008152505b90505f8261154f8660c0015161234b565b858461155a8b612355565b60405160200161156e959493929190613f58565b60405160208183030381529060405290505f61158988612355565b6115968760c0015161234b565b61159f8461241f565b87866115c68b6040015173ffffffffffffffffffffffffffffffffffffffff166014612432565b6115d38c60200151612355565b6040516020016115e99796959493929190614480565b60405160208183030381529060405290506116038161241f565b60405160200161161391906145de565b6040516020818303038152906040529650505050505050919050565b606060095f8373ffffffffffffffffffffffffffffffffffffffff1673ffffffffffffffffffffffffffffffffffffffff1681526020019081526020015f208054806020026020016040519081016040528092919081815260200182805480156116b657602002820191905f5260205f20905b8154815260200190600101908083116116a2575b50505050509050919050565b5f60055f8473ffffffffffffffffffffffffffffffffffffffff1673ffffffffffffffffffffffffffffffffffffffff1681526020019081526020015f205f8373ffffffffffffffffffffffffffffffffffffffff1673ffffffffffffffffffffffffffffffffffffffff1681526020019081526020015f205f9054906101000a900460ff16905092915050565b5f8060085f8481526020019081526020015f20600101549050804210611779575f915050611789565b4281611785919061462c565b9150505b919050565b611796611e7c565b5f73ffffffffffffffffffffffffffffffffffffffff168173ffffffffffffffffffffffffffffffffffffffff1603611806575f6040517f1e4fbdf70000000000000000000000000000000000000000000000000000000081526004016117fd9190613049565b60405180910390fd5b61180f81611f03565b50565b5f7f01ffc9a7000000000000000000000000000000000000000000000000000000007bffffffffffffffffffffffffffffffffffffffffffffffffffffffff1916827bffffffffffffffffffffffffffffffffffffffffffffffffffffffff1916149050919050565b5f8061188683612670565b90505f73ffffffffffffffffffffffffffffffffffffffff168173ffffffffffffffffffffffffffffffffffffffff16036118f857826040517f7e2732890000000000000000000000000000000000000000000000000000000081526004016118ef919061328d565b60405180910390fd5b80915050919050565b5f60045f8381526020019081526020015f205f9054906101000a900473ffffffffffffffffffffffffffffffffffffffff169050919050565b5f33905090565b61194e83838360016126a9565b505050565b5f8060075f8154809291906119679061465f565b9190505590505f61197786612868565b90506040518060e001604052808881526020018781526020013373ffffffffffffffffffffffffffffffffffffffff1681526020018673ffffffffffffffffffffffffffffffffffffffff1681526020018260028111156119db576119da6132f6565b5b81526020015f60028111156119f3576119f26132f6565b5b81526020018581525060085f8481526020019081526020015f205f820151815f019081611a209190614843565b50602082015181600101556040820151816002015f6101000a81548173ffffffffffffffffffffffffffffffffffffffff021916908373ffffffffffffffffffffffffffffffffffffffff1602179055506060820151816003015f6101000a81548173ffffffffffffffffffffffffffffffffffffffff021916908373ffffffffffffffffffffffffffffffffffffffff16021790555060808201518160030160146101000a81548160ff02191690836002811115611ae257611ae16132f6565b5b021790555060a08201518160030160156101000a81548160ff02191690836002811115611b1257611b116132f6565b5b021790555060c0820151816004019081611b2c9190614843565b5090505060095f3373ffffffffffffffffffffffffffffffffffffffff1673ffffffffffffffffffffffffffffffffffffffff1681526020019081526020015f2082908060018154018082558091505060019003905f5260205f20015f9091909190915055600a5f8673ffffffffffffffffffffffffffffffffffffffff1673ffffffffffffffffffffffffffffffffffffffff1681526020019081526020015f2082908060018154018082558091505060019003905f5260205f20015f9091909190915055611bfc85836128ad565b8473ffffffffffffffffffffffffffffffffffffffff163373ffffffffffffffffffffffffffffffffffffffff16837fc13e6a6e42d1e0b5b88f38d2ce7493b2ebec31f10920d92e3208102cd097eff88985604051611c5c929190614912565b60405180910390a48192505050949350505050565b5f80611c7c84612670565b90505f73ffffffffffffffffffffffffffffffffffffffff168373ffffffffffffffffffffffffffffffffffffffff1614611cbd57611cbc8184866128ca565b5b5f73ffffffffffffffffffffffffffffffffffffffff168173ffffffffffffffffffffffffffffffffffffffff1614611d4857611cfc5f855f806126a9565b600160035f8373ffffffffffffffffffffffffffffffffffffffff1673ffffffffffffffffffffffffffffffffffffffff1681526020019081526020015f205f82825403925050819055505b5f73ffffffffffffffffffffffffffffffffffffffff168573ffffffffffffffffffffffffffffffffffffffff1614611dc757600160035f8773ffffffffffffffffffffffffffffffffffffffff1673ffffffffffffffffffffffffffffffffffffffff1681526020019081526020015f205f82825401925050819055505b8460025f8681526020019081526020015f205f6101000a81548173ffffffffffffffffffffffffffffffffffffffff021916908373ffffffffffffffffffffffffffffffffffffffff160217905550838573ffffffffffffffffffffffffffffffffffffffff168273ffffffffffffffffffffffffffffffffffffffff167fddf252ad1be2c89b69c2b068fc378daa952ba7f163c4a11628f55a4df523b3ef60405160405180910390a4809150509392505050565b611e8461193a565b73ffffffffffffffffffffffffffffffffffffffff16611ea2610cbb565b73ffffffffffffffffffffffffffffffffffffffff1614611f0157611ec561193a565b6040517f118cdaa7000000000000000000000000000000000000000000000000000000008152600401611ef89190613049565b60405180910390fd5b565b5f60065f9054906101000a900473ffffffffffffffffffffffffffffffffffffffff1690508160065f6101000a81548173ffffffffffffffffffffffffffffffffffffffff021916908373ffffffffffffffffffffffffffffffffffffffff1602179055508173ffffffffffffffffffffffffffffffffffffffff168173ffffffffffffffffffffffffffffffffffffffff167f8be0079c531659141344cd1fd0a4f28419497f9722a3daafe3b4186f6b6457e060405160405180910390a35050565b5f73ffffffffffffffffffffffffffffffffffffffff168373ffffffffffffffffffffffffffffffffffffffff1603612036575f6040517fa9fbf51f00000000000000000000000000000000000000000000000000000000815260040161202d9190613049565b60405180910390fd5b5f73ffffffffffffffffffffffffffffffffffffffff168273ffffffffffffffffffffffffffffffffffffffff16036120a657816040517f5b08ba1800000000000000000000000000000000000000000000000000000000815260040161209d9190613049565b60405180910390fd5b8060055f8573ffffffffffffffffffffffffffffffffffffffff1673ffffffffffffffffffffffffffffffffffffffff1681526020019081526020015f205f8473ffffffffffffffffffffffffffffffffffffffff1673ffffffffffffffffffffffffffffffffffffffff1681526020019081526020015f205f6101000a81548160ff0219169083151502179055508173ffffffffffffffffffffffffffffffffffffffff168373ffffffffffffffffffffffffffffffffffffffff167f17307eab39ab6107e8899845ad3d59bd9653f200f220920489ca2b5937696c31836040516121929190612ee9565b60405180910390a3505050565b5f8373ffffffffffffffffffffffffffffffffffffffff163b1115612344578273ffffffffffffffffffffffffffffffffffffffff1663150b7a02868685856040518563ffffffff1660e01b81526004016121fd949392919061498b565b6020604051808303815f875af192505050801561223857506040513d601f19601f8201168201806040525081019061223591906149e9565b60015b6122b9573d805f8114612266576040519150601f19603f3d011682016040523d82523d5f602084013e61226b565b606091505b505f8151036122b157836040517f64a0ae920000000000000000000000000000000000000000000000000000000081526004016122a89190613049565b60405180910390fd5b805160208201fd5b63150b7a0260e01b7bffffffffffffffffffffffffffffffffffffffffffffffffffffffff1916817bffffffffffffffffffffffffffffffffffffffffffffffffffffffff19161461234257836040517f64a0ae920000000000000000000000000000000000000000000000000000000081526004016123399190613049565b60405180910390fd5b505b5050505050565b6060819050919050565b60605f60016123638461298d565b0190505f8167ffffffffffffffff811115612381576123806130d2565b5b6040519080825280601f01601f1916602001820160405280156123b35781602001600182028036833780820191505090505b5090505f82602083010190505b600115612414578080600190039150507f3031323334353637383961626364656600000000000000000000000000000000600a86061a8153600a858161240957612408614a14565b5b0494505f85036123c0575b819350505050919050565b606061242b825f612ade565b9050919050565b60605f8390505f60028460026124489190614a41565b6124529190614a82565b67ffffffffffffffff81111561246b5761246a6130d2565b5b6040519080825280601f01601f19166020018201604052801561249d5781602001600182028036833780820191505090505b5090507f3000000000000000000000000000000000000000000000000000000000000000815f815181106124d4576124d3614ab5565b5b60200101907effffffffffffffffffffffffffffffffffffffffffffffffffffffffffffff191690815f1a9053507f78000000000000000000000000000000000000000000000000000000000000008160018151811061253757612536614ab5565b5b60200101907effffffffffffffffffffffffffffffffffffffffffffffffffffffffffffff191690815f1a9053505f60018560026125759190614a41565b61257f9190614a82565b90505b600181111561261e577f3031323334353637383961626364656600000000000000000000000000000000600f8416601081106125c1576125c0614ab5565b5b1a60f81b8282815181106125d8576125d7614ab5565b5b60200101907effffffffffffffffffffffffffffffffffffffffffffffffffffffffffffff191690815f1a905350600483901c92508061261790614ae2565b9050612582565b505f82146126655784846040517fe22e27eb00000000000000000000000000000000000000000000000000000000815260040161265c929190614b09565b60405180910390fd5b809250505092915050565b5f60025f8381526020019081526020015f205f9054906101000a900473ffffffffffffffffffffffffffffffffffffffff169050919050565b80806126e157505f73ffffffffffffffffffffffffffffffffffffffff168273ffffffffffffffffffffffffffffffffffffffff1614155b15612813575f6126f08461187b565b90505f73ffffffffffffffffffffffffffffffffffffffff168373ffffffffffffffffffffffffffffffffffffffff161415801561275a57508273ffffffffffffffffffffffffffffffffffffffff168173ffffffffffffffffffffffffffffffffffffffff1614155b801561276d575061276b81846116c2565b155b156127af57826040517fa9fbf51f0000000000000000000000000000000000000000000000000000000081526004016127a69190613049565b60405180910390fd5b811561281157838573ffffffffffffffffffffffffffffffffffffffff168273ffffffffffffffffffffffffffffffffffffffff167f8c5be1e5ebec7d5bd14f71427d1e84f3dd0314c0f7b2291e5b200ac8c7c3b92560405160405180910390a45b505b8360045f8581526020019081526020015f205f6101000a81548173ffffffffffffffffffffffffffffffffffffffff021916908373ffffffffffffffffffffffffffffffffffffffff16021790555050505050565b5f804283612876919061462c565b905062ed4e0081101561288c575f9150506128a8565b6303c267008110156128a25760019150506128a8565b60029150505b919050565b6128c6828260405180602001604052805f815250612c68565b5050565b6128d5838383612c8b565b612988575f73ffffffffffffffffffffffffffffffffffffffff168373ffffffffffffffffffffffffffffffffffffffff160361294957806040517f7e273289000000000000000000000000000000000000000000000000000000008152600401612940919061328d565b60405180910390fd5b81816040517f177e802f00000000000000000000000000000000000000000000000000000000815260040161297f929190614b30565b60405180910390fd5b505050565b5f805f90507a184f03e93ff9f4daa797ed6e38ed64bf6a1f01000000000000000083106129e9577a184f03e93ff9f4daa797ed6e38ed64bf6a1f01000000000000000083816129df576129de614a14565b5b0492506040810190505b6d04ee2d6d415b85acef81000000008310612a26576d04ee2d6d415b85acef81000000008381612a1c57612a1b614a14565b5b0492506020810190505b662386f26fc100008310612a5557662386f26fc100008381612a4b57612a4a614a14565b5b0492506010810190505b6305f5e1008310612a7e576305f5e1008381612a7457612a73614a14565b5b0492506008810190505b6127108310612aa3576127108381612a9957612a98614a14565b5b0492506004810190505b60648310612ac65760648381612abc57612abb614a14565b5b0492506002810190505b600a8310612ad5576001810190505b80915050919050565b60605f835103612afe5760405180602001604052805f8152509050612c62565b5f82612b2f57600360028551612b149190614a82565b612b1e9190614b57565b6004612b2a9190614a41565b612b56565b6003600285516004612b419190614a41565b612b4b9190614a82565b612b559190614b57565b5b905060405191507f4142434445464748494a4b4c4d4e4f505152535455565758595a616263646566601f5261067083027f6768696a6b6c6d6e6f707172737475767778797a303132333435363738392b2f18603f526020820181810185865187016020810180515f82525b82841015612c14576003840193508351603f8160121c16518753600187019650603f81600c1c16518753600187019650603f8160061c16518753600187019650603f811651875360018701965050612bc1565b80825288612c535760038a510660018114612c365760028114612c4957612c51565b603d6001880353603d6002880353612c51565b603d60018803535b505b86885284604052505050505050505b92915050565b612c728383612d4b565b612c86612c7d61193a565b5f85858561219f565b505050565b5f8073ffffffffffffffffffffffffffffffffffffffff168373ffffffffffffffffffffffffffffffffffffffff1614158015612d4257508273ffffffffffffffffffffffffffffffffffffffff168473ffffffffffffffffffffffffffffffffffffffff161480612d035750612d0284846116c2565b5b80612d4157508273ffffffffffffffffffffffffffffffffffffffff16612d2983611901565b73ffffffffffffffffffffffffffffffffffffffff16145b5b90509392505050565b5f73ffffffffffffffffffffffffffffffffffffffff168273ffffffffffffffffffffffffffffffffffffffff1603612dbb575f6040517f64a0ae92000000000000000000000000000000000000000000000000000000008152600401612db29190613049565b60405180910390fd5b5f612dc783835f611c71565b90505f73ffffffffffffffffffffffffffffffffffffffff168173ffffffffffffffffffffffffffffffffffffffff1614612e39575f6040517f73c6ac6e000000000000000000000000000000000000000000000000000000008152600401612e309190613049565b60405180910390fd5b505050565b5f604051905090565b5f80fd5b5f80fd5b5f7fffffffff0000000000000000000000000000000000000000000000000000000082169050919050565b612e8381612e4f565b8114612e8d575f80fd5b50565b5f81359050612e9e81612e7a565b92915050565b5f60208284031215612eb957612eb8612e47565b5b5f612ec684828501612e90565b91505092915050565b5f8115159050919050565b612ee381612ecf565b82525050565b5f602082019050612efc5f830184612eda565b92915050565b5f81519050919050565b5f82825260208201905092915050565b5f5b83811015612f39578082015181840152602081019050612f1e565b5f8484015250505050565b5f601f19601f8301169050919050565b5f612f5e82612f02565b612f688185612f0c565b9350612f78818560208601612f1c565b612f8181612f44565b840191505092915050565b5f6020820190508181035f830152612fa48184612f54565b905092915050565b5f819050919050565b612fbe81612fac565b8114612fc8575f80fd5b50565b5f81359050612fd981612fb5565b92915050565b5f60208284031215612ff457612ff3612e47565b5b5f61300184828501612fcb565b91505092915050565b5f73ffffffffffffffffffffffffffffffffffffffff82169050919050565b5f6130338261300a565b9050919050565b61304381613029565b82525050565b5f60208201905061305c5f83018461303a565b92915050565b61306b81613029565b8114613075575f80fd5b50565b5f8135905061308681613062565b92915050565b5f80604083850312156130a2576130a1612e47565b5b5f6130af85828601613078565b92505060206130c085828601612fcb565b9150509250929050565b5f80fd5b5f80fd5b7f4e487b71000000000000000000000000000000000000000000000000000000005f52604160045260245ffd5b61310882612f44565b810181811067ffffffffffffffff82111715613127576131266130d2565b5b80604052505050565b5f613139612e3e565b905061314582826130ff565b919050565b5f67ffffffffffffffff821115613164576131636130d2565b5b61316d82612f44565b9050602081019050919050565b828183375f83830152505050565b5f61319a6131958461314a565b613130565b9050828152602081018484840111156131b6576131b56130ce565b5b6131c184828561317a565b509392505050565b5f82601f8301126131dd576131dc6130ca565b5b81356131ed848260208601613188565b91505092915050565b5f805f6060848603121561320d5761320c612e47565b5b5f84013567ffffffffffffffff81111561322a57613229612e4b565b5b613236868287016131c9565b935050602061324786828701612fcb565b925050604084013567ffffffffffffffff81111561326857613267612e4b565b5b613274868287016131c9565b9150509250925092565b61328781612fac565b82525050565b5f6020820190506132a05f83018461327e565b92915050565b5f805f606084860312156132bd576132bc612e47565b5b5f6132ca86828701613078565b93505060206132db86828701613078565b92505060406132ec86828701612fcb565b9150509250925092565b7f4e487b71000000000000000000000000000000000000000000000000000000005f52602160045260245ffd5b60038110613334576133336132f6565b5b50565b5f81905061334482613323565b919050565b5f61335382613337565b9050919050565b61336381613349565b82525050565b6003811061337a576133796132f6565b5b50565b5f81905061338a82613369565b919050565b5f6133998261337d565b9050919050565b6133a98161338f565b82525050565b5f60e0820190508181035f8301526133c7818a612f54565b90506133d6602083018961327e565b6133e3604083018861303a565b6133f0606083018761303a565b6133fd608083018661335a565b61340a60a08301856133a0565b81810360c083015261341c8184612f54565b905098975050505050505050565b5f6020828403121561343f5761343e612e47565b5b5f61344c84828501613078565b91505092915050565b5f81519050919050565b5f82825260208201905092915050565b5f819050602082019050919050565b61348781612fac565b82525050565b5f613498838361347e565b60208301905092915050565b5f602082019050919050565b5f6134ba82613455565b6134c4818561345f565b93506134cf8361346f565b805f5b838110156134ff5781516134e6888261348d565b97506134f1836134a4565b9250506001810190506134d2565b5085935050505092915050565b5f6020820190508181035f83015261352481846134b0565b905092915050565b61353581612ecf565b811461353f575f80fd5b50565b5f813590506135508161352c565b92915050565b5f806040838503121561356c5761356b612e47565b5b5f61357985828601613078565b925050602061358a85828601613542565b9150509250929050565b5f67ffffffffffffffff8211156135ae576135ad6130d2565b5b6135b782612f44565b9050602081019050919050565b5f6135d66135d184613594565b613130565b9050828152602081018484840111156135f2576135f16130ce565b5b6135fd84828561317a565b509392505050565b5f82601f830112613619576136186130ca565b5b81356136298482602086016135c4565b91505092915050565b5f805f806080858703121561364a57613649612e47565b5b5f61365787828801613078565b945050602061366887828801613078565b935050604061367987828801612fcb565b925050606085013567ffffffffffffffff81111561369a57613699612e4b565b5b6136a687828801613605565b91505092959194509250565b5f805f80608085870312156136ca576136c9612e47565b5b5f85013567ffffffffffffffff8111156136e7576136e6612e4b565b5b6136f3878288016131c9565b945050602061370487828801612fcb565b935050604061371587828801613078565b925050606085013567ffffffffffffffff81111561373657613735612e4b565b5b613742878288016131c9565b91505092959194509250565b5f806040838503121561376457613763612e47565b5b5f61377185828601613078565b925050602061378285828601613078565b9150509250929050565b7f4e487b71000000000000000000000000000000000000000000000000000000005f52602260045260245ffd5b5f60028204905060018216806137d057607f821691505b6020821081036137e3576137e261378c565b5b50919050565b7f556e6c6f636b2074696d65206d75737420626520696e207468652066757475725f8201527f6500000000000000000000000000000000000000000000000000000000000000602082015250565b5f613843602183612f0c565b915061384e826137e9565b604082019050919050565b5f6020820190508181035f83015261387081613837565b9050919050565b5f60608201905061388a5f83018661303a565b613897602083018561327e565b6138a4604083018461303a565b949350505050565b7f4e6f7420746865206f776e6572000000000000000000000000000000000000005f82015250565b5f6138e0600d83612f0c565b91506138eb826138ac565b602082019050919050565b5f6020820190508181035f83015261390d816138d4565b9050919050565b7f4e6f74207965742074696d6520746f206f70656e0000000000000000000000005f82015250565b5f613948601483612f0c565b915061395382613914565b602082019050919050565b5f6020820190508181035f8301526139758161393c565b9050919050565b7f416c7265616479206f70656e65640000000000000000000000000000000000005f82015250565b5f6139b0600e83612f0c565b91506139bb8261397c565b602082019050919050565b5f6020820190508181035f8301526139dd816139a4565b9050919050565b7f496e76616c6964207265636569766572206164647265737300000000000000005f82015250565b5f613a18601883612f0c565b9150613a23826139e4565b602082019050919050565b5f6020820190508181035f830152613a4581613a0c565b9050919050565b5f81905092915050565b7f3c73766720786d6c6e733d22687474703a2f2f7777772e77332e6f72672f32305f8201527f30302f737667222076696577426f783d223020302034303020343030223e0000602082015250565b5f613ab0603e83613a4c565b9150613abb82613a56565b603e82019050919050565b7f3c726563742077696474683d2234303022206865696768743d223430302220665f8201527f696c6c3d22000000000000000000000000000000000000000000000000000000602082015250565b5f613b20602583613a4c565b9150613b2b82613ac6565b602582019050919050565b5f613b4082612f02565b613b4a8185613a4c565b9350613b5a818560208601612f1c565b80840191505092915050565b7f222f3e00000000000000000000000000000000000000000000000000000000005f82015250565b5f613b9a600383613a4c565b9150613ba582613b66565b600382019050919050565b7f3c7465787420783d223230302220793d223136302220746578742d616e63686f5f8201527f723d226d6964646c652220666f6e742d73697a653d223634222066696c6c3d2260208201527f7768697465223e26233132383232383b3c2f746578743e000000000000000000604082015250565b5f613c30605783613a4c565b9150613c3b82613bb0565b605782019050919050565b7f3c7465787420783d223230302220793d223233302220746578742d616e63686f5f8201527f723d226d6964646c652220666f6e742d66616d696c793d22417269616c22206660208201527f6f6e742d73697a653d223230222066696c6c3d2277686974652220666f6e742d60408201527f7765696768743d22626f6c64223e000000000000000000000000000000000000606082015250565b5f613cec606e83613a4c565b9150613cf782613c46565b606e82019050919050565b7f3c2f746578743e000000000000000000000000000000000000000000000000005f82015250565b5f613d36600783613a4c565b9150613d4182613d02565b600782019050919050565b7f3c7465787420783d223230302220793d223236352220746578742d616e63686f5f8201527f723d226d6964646c652220666f6e742d66616d696c793d22417269616c22206660208201527f6f6e742d73697a653d223134222066696c6c3d2272676261283235352c32353560408201527f2c3235352c302e3729223e000000000000000000000000000000000000000000606082015250565b5f613df2606b83613a4c565b9150613dfd82613d4c565b606b82019050919050565b7f3c7465787420783d223230302220793d223239352220746578742d616e63686f5f8201527f723d226d6964646c652220666f6e742d66616d696c793d22417269616c22206660208201527f6f6e742d73697a653d223132222066696c6c3d2272676261283235352c32353560408201527f2c3235352c302e3529223e000000000000000000000000000000000000000000606082015250565b5f613eae606b83613a4c565b9150613eb982613e08565b606b82019050919050565b7f2054696572202662756c6c3b20230000000000000000000000000000000000005f82015250565b5f613ef8600e83613a4c565b9150613f0382613ec4565b600e82019050919050565b7f3c2f7376673e00000000000000000000000000000000000000000000000000005f82015250565b5f613f42600683613a4c565b9150613f4d82613f0e565b600682019050919050565b5f613f6282613aa4565b9150613f6d82613b14565b9150613f798288613b36565b9150613f8482613b8e565b9150613f8f82613c24565b9150613f9a82613ce0565b9150613fa68287613b36565b9150613fb182613d2a565b9150613fbc82613de6565b9150613fc88286613b36565b9150613fd382613d2a565b9150613fde82613ea2565b9150613fea8285613b36565b9150613ff582613eec565b91506140018284613b36565b915061400c82613d2a565b915061401782613f36565b91508190509695505050505050565b7f7b226e616d65223a2243617073756c20230000000000000000000000000000005f82015250565b5f61405a601183613a4c565b915061406582614026565b601182019050919050565b7f202d2000000000000000000000000000000000000000000000000000000000005f82015250565b5f6140a4600383613a4c565b91506140af82614070565b600382019050919050565b7f222c0000000000000000000000000000000000000000000000000000000000005f82015250565b5f6140ee600283613a4c565b91506140f9826140ba565b600282019050919050565b7f226465736372697074696f6e223a22412074696d652d6c6f636b6564206d65735f8201527f736167652063617073756c65206d696e746564206f6e2043617073756c4d652e60208201527f222c000000000000000000000000000000000000000000000000000000000000604082015250565b5f614184604283613a4c565b915061418f82614104565b604282019050919050565b7f22696d616765223a22646174613a696d6167652f7376672b786d6c3b626173655f8201527f36342c0000000000000000000000000000000000000000000000000000000000602082015250565b5f6141f4602383613a4c565b91506141ff8261419a565b602382019050919050565b7f2261747472696275746573223a5b0000000000000000000000000000000000005f82015250565b5f61423e600e83613a4c565b91506142498261420a565b600e82019050919050565b7f7b2274726169745f74797065223a22537461747573222c2276616c7565223a225f82015250565b5f614288602083613a4c565b915061429382614254565b602082019050919050565b7f227d2c00000000000000000000000000000000000000000000000000000000005f82015250565b5f6142d2600383613a4c565b91506142dd8261429e565b600382019050919050565b7f7b2274726169745f74797065223a2254696572222c2276616c7565223a2200005f82015250565b5f61431c601e83613a4c565b9150614327826142e8565b601e82019050919050565b7f7b2274726169745f74797065223a2253656e646572222c2276616c7565223a225f82015250565b5f614366602083613a4c565b915061437182614332565b602082019050919050565b7f7b2274726169745f74797065223a22556e6c6f636b2054696d65222c2276616c5f8201527f7565223a00000000000000000000000000000000000000000000000000000000602082015250565b5f6143d6602483613a4c565b91506143e18261437c565b602482019050919050565b7f7d000000000000000000000000000000000000000000000000000000000000005f82015250565b5f614420600183613a4c565b915061442b826143ec565b600182019050919050565b7f5d7d0000000000000000000000000000000000000000000000000000000000005f82015250565b5f61446a600283613a4c565b915061447582614436565b600282019050919050565b5f61448a8261404e565b9150614496828a613b36565b91506144a182614098565b91506144ad8289613b36565b91506144b8826140e2565b91506144c382614178565b91506144ce826141e8565b91506144da8288613b36565b91506144e5826140e2565b91506144f082614232565b91506144fb8261427c565b91506145078287613b36565b9150614512826142c6565b915061451d82614310565b91506145298286613b36565b9150614534826142c6565b915061453f8261435a565b915061454b8285613b36565b9150614556826142c6565b9150614561826143ca565b915061456d8284613b36565b915061457882614414565b91506145838261445e565b915081905098975050505050505050565b7f646174613a6170706c69636174696f6e2f6a736f6e3b6261736536342c0000005f82015250565b5f6145c8601d83613a4c565b91506145d382614594565b601d82019050919050565b5f6145e8826145bc565b91506145f48284613b36565b915081905092915050565b7f4e487b71000000000000000000000000000000000000000000000000000000005f52601160045260245ffd5b5f61463682612fac565b915061464183612fac565b9250828203905081811115614659576146586145ff565b5b92915050565b5f61466982612fac565b91507fffffffffffffffffffffffffffffffffffffffffffffffffffffffffffffffff820361469b5761469a6145ff565b5b600182019050919050565b5f819050815f5260205f209050919050565b5f6020601f8301049050919050565b5f82821b905092915050565b5f600883026147027fffffffffffffffffffffffffffffffffffffffffffffffffffffffffffffffff826146c7565b61470c86836146c7565b95508019841693508086168417925050509392505050565b5f819050919050565b5f61474761474261473d84612fac565b614724565b612fac565b9050919050565b5f819050919050565b6147608361472d565b61477461476c8261474e565b8484546146d3565b825550505050565b5f90565b61478861477c565b614793818484614757565b505050565b5b818110156147b6576147ab5f82614780565b600181019050614799565b5050565b601f8211156147fb576147cc816146a6565b6147d5846146b8565b810160208510156147e4578190505b6147f86147f0856146b8565b830182614798565b50505b505050565b5f82821c905092915050565b5f61481b5f1984600802614800565b1980831691505092915050565b5f614833838361480c565b9150826002028217905092915050565b61484c82612f02565b67ffffffffffffffff811115614865576148646130d2565b5b61486f82546137b9565b61487a8282856147ba565b5f60209050601f8311600181146148ab575f8415614899578287015190505b6148a38582614828565b86555061490a565b601f1984166148b9866146a6565b5f5b828110156148e0578489015182556001820191506020850194506020810190506148bb565b868310156148fd57848901516148f9601f89168261480c565b8355505b6001600288020188555050505b505050505050565b5f6040820190506149255f83018561327e565b614932602083018461335a565b9392505050565b5f81519050919050565b5f82825260208201905092915050565b5f61495d82614939565b6149678185614943565b9350614977818560208601612f1c565b61498081612f44565b840191505092915050565b5f60808201905061499e5f83018761303a565b6149ab602083018661303a565b6149b8604083018561327e565b81810360608301526149ca8184614953565b905095945050505050565b5f815190506149e381612e7a565b92915050565b5f602082840312156149fe576149fd612e47565b5b5f614a0b848285016149d5565b91505092915050565b7f4e487b71000000000000000000000000000000000000000000000000000000005f52601260045260245ffd5b5f614a4b82612fac565b9150614a5683612fac565b9250828202614a6481612fac565b91508282048414831517614a7b57614a7a6145ff565b5b5092915050565b5f614a8c82612fac565b9150614a9783612fac565b9250828201905080821115614aaf57614aae6145ff565b5b92915050565b7f4e487b71000000000000000000000000000000000000000000000000000000005f52603260045260245ffd5b5f614aec82612fac565b91505f8203614afe57614afd6145ff565b5b600182039050919050565b5f604082019050614b1c5f83018561327e565b614b29602083018461327e565b9392505050565b5f604082019050614b435f83018561303a565b614b50602083018461327e565b9392505050565b5f614b6182612fac565b9150614b6c83612fac565b925082614b7c57614b7b614a14565b5b82820490509291505056fea26469706673582212200f29ccbf637492134c188a913208b16558fc3b9cbe0c5797c03658d22ca7abd064736f6c63430008180033","opcodes":"PUSH1 0x80 PUSH1 0x40 MSTORE CALLVALUE DUP1 ISZERO PUSH3 0x10 JUMPI PUSH0 DUP1 REVERT JUMPDEST POP CALLER PUSH1 0x40 MLOAD DUP1 PUSH1 0x40 ADD PUSH1 0x40 MSTORE DUP1 PUSH1 0x8 DUP2 MSTORE PUSH1 0x20 ADD PUSH32 0x43617073756C4D65000000000000000000000000000000000000000000000000 DUP2 MSTORE POP PUSH1 0x40 MLOAD DUP1 PUSH1 0x40 ADD PUSH1 0x40 MSTORE DUP1 PUSH1 0x4 DUP2 MSTORE PUSH1 0x20 ADD PUSH32 0x4341505300000000000000000000000000000000000000000000000000000000 DUP2 MSTORE POP DUP2 PUSH0 SWAP1 DUP2 PUSH3 0x8E SWAP2 SWAP1 PUSH3 0x455 JUMP JUMPDEST POP DUP1 PUSH1 0x1 SWAP1 DUP2 PUSH3 0xA0 SWAP2 SWAP1 PUSH3 0x455 JUMP JUMPDEST POP POP POP PUSH0 PUSH20 0xFFFFFFFFFFFFFFFFFFFFFFFFFFFFFFFFFFFFFFFF AND DUP2 PUSH20 0xFFFFFFFFFFFFFFFFFFFFFFFFFFFFFFFFFFFFFFFF AND SUB PUSH3 0x116 JUMPI PUSH0 PUSH1 0x40 MLOAD PUSH32 0x1E4FBDF700000000000000000000000000000000000000000000000000000000 DUP2 MSTORE PUSH1 0x4 ADD PUSH3 0x10D SWAP2 SWAP1 PUSH3 0x57C JUMP JUMPDEST PUSH1 0x40 MLOAD DUP1 SWAP2 SUB SWAP1 REVERT JUMPDEST PUSH3 0x127 DUP2 PUSH3 0x12E PUSH1 0x20 SHL PUSH1 0x20 SHR JUMP JUMPDEST POP PUSH3 0x597 JUMP JUMPDEST PUSH0 PUSH1 0x6 PUSH0 SWAP1 SLOAD SWAP1 PUSH2 0x100 EXP SWAP1 DIV PUSH20 0xFFFFFFFFFFFFFFFFFFFFFFFFFFFFFFFFFFFFFFFF AND SWAP1 POP DUP2 PUSH1 0x6 PUSH0 PUSH2 0x100 EXP DUP2 SLOAD DUP2 PUSH20 0xFFFFFFFFFFFFFFFFFFFFFFFFFFFFFFFFFFFFFFFF MUL NOT AND SWAP1 DUP4 PUSH20 0xFFFFFFFFFFFFFFFFFFFFFFFFFFFFFFFFFFFFFFFF AND MUL OR SWAP1 SSTORE POP DUP2 PUSH20 0xFFFFFFFFFFFFFFFFFFFFFFFFFFFFFFFFFFFFFFFF AND DUP2 PUSH20 0xFFFFFFFFFFFFFFFFFFFFFFFFFFFFFFFFFFFFFFFF AND PUSH32 0x8BE0079C531659141344CD1FD0A4F28419497F9722A3DAAFE3B4186F6B6457E0 PUSH1 0x40 MLOAD PUSH1 0x40 MLOAD DUP1 SWAP2 SUB SWAP1 LOG3 POP POP JUMP JUMPDEST PUSH0 DUP2 MLOAD SWAP1 POP SWAP2 SWAP1 POP JUMP JUMPDEST PUSH32 0x4E487B7100000000000000000000000000000000000000000000000000000000 PUSH0 MSTORE PUSH1 0x41 PUSH1 0x4 MSTORE PUSH1 0x24 PUSH0 REVERT JUMPDEST PUSH32 0x4E487B7100000000000000000000000000000000000000000000000000000000 PUSH0 MSTORE PUSH1 0x22 PUSH1 0x4 MSTORE PUSH1 0x24 PUSH0 REVERT JUMPDEST PUSH0 PUSH1 0x2 DUP3 DIV SWAP1 POP PUSH1 0x1 DUP3 AND DUP1 PUSH3 0x26D JUMPI PUSH1 0x7F DUP3 AND SWAP2 POP JUMPDEST PUSH1 0x20 DUP3 LT DUP2 SUB PUSH3 0x283 JUMPI PUSH3 0x282 PUSH3 0x228 JUMP JUMPDEST JUMPDEST POP SWAP2 SWAP1 POP JUMP JUMPDEST PUSH0 DUP2 SWAP1 POP DUP2 PUSH0 MSTORE PUSH1 0x20 PUSH0 KECCAK256 SWAP1 POP SWAP2 SWAP1 POP JUMP JUMPDEST PUSH0 PUSH1 0x20 PUSH1 0x1F DUP4 ADD DIV SWAP1 POP SWAP2 SWAP1 POP JUMP JUMPDEST PUSH0 DUP3 DUP3 SHL SWAP1 POP SWAP3 SWAP2 POP POP JUMP JUMPDEST PUSH0 PUSH1 0x8 DUP4 MUL PUSH3 0x2E7 PUSH32 0xFFFFFFFFFFFFFFFFFFFFFFFFFFFFFFFFFFFFFFFFFFFFFFFFFFFFFFFFFFFFFFFF DUP3 PUSH3 0x2AA JUMP JUMPDEST PUSH3 0x2F3 DUP7 DUP4 PUSH3 0x2AA JUMP JUMPDEST SWAP6 POP DUP1 NOT DUP5 AND SWAP4 POP DUP1 DUP7 AND DUP5 OR SWAP3 POP POP POP SWAP4 SWAP3 POP POP POP JUMP JUMPDEST PUSH0 DUP2 SWAP1 POP SWAP2 SWAP1 POP JUMP JUMPDEST PUSH0 DUP2 SWAP1 POP SWAP2 SWAP1 POP JUMP JUMPDEST PUSH0 PUSH3 0x33D PUSH3 0x337 PUSH3 0x331 DUP5 PUSH3 0x30B JUMP JUMPDEST PUSH3 0x314 JUMP JUMPDEST PUSH3 0x30B JUMP JUMPDEST SWAP1 POP SWAP2 SWAP1 POP JUMP JUMPDEST PUSH0 DUP2 SWAP1 POP SWAP2 SWAP1 POP JUMP JUMPDEST PUSH3 0x358 DUP4 PUSH3 0x31D JUMP JUMPDEST PUSH3 0x370 PUSH3 0x367 DUP3 PUSH3 0x344 JUMP JUMPDEST DUP5 DUP5 SLOAD PUSH3 0x2B6 JUMP JUMPDEST DUP3 SSTORE POP POP POP POP JUMP JUMPDEST PUSH0 SWAP1 JUMP JUMPDEST PUSH3 0x386 PUSH3 0x378 JUMP JUMPDEST PUSH3 0x393 DUP2 DUP5 DUP5 PUSH3 0x34D JUMP JUMPDEST POP POP POP JUMP JUMPDEST JUMPDEST DUP2 DUP2 LT ISZERO PUSH3 0x3BA JUMPI PUSH3 0x3AE PUSH0 DUP3 PUSH3 0x37C JUMP JUMPDEST PUSH1 0x1 DUP2 ADD SWAP1 POP PUSH3 0x399 JUMP JUMPDEST POP POP JUMP JUMPDEST PUSH1 0x1F DUP3 GT ISZERO PUSH3 0x409 JUMPI PUSH3 0x3D3 DUP2 PUSH3 0x289 JUMP JUMPDEST PUSH3 0x3DE DUP5 PUSH3 0x29B JUMP JUMPDEST DUP2 ADD PUSH1 0x20 DUP6 LT ISZERO PUSH3 0x3EE JUMPI DUP2 SWAP1 POP JUMPDEST PUSH3 0x406 PUSH3 0x3FD DUP6 PUSH3 0x29B JUMP JUMPDEST DUP4 ADD DUP3 PUSH3 0x398 JUMP JUMPDEST POP POP JUMPDEST POP POP POP JUMP JUMPDEST PUSH0 DUP3 DUP3 SHR SWAP1 POP SWAP3 SWAP2 POP POP JUMP JUMPDEST PUSH0 PUSH3 0x42B PUSH0 NOT DUP5 PUSH1 0x8 MUL PUSH3 0x40E JUMP JUMPDEST NOT DUP1 DUP4 AND SWAP2 POP POP SWAP3 SWAP2 POP POP JUMP JUMPDEST PUSH0 PUSH3 0x445 DUP4 DUP4 PUSH3 0x41A JUMP JUMPDEST SWAP2 POP DUP3 PUSH1 0x2 MUL DUP3 OR SWAP1 POP SWAP3 SWAP2 POP POP JUMP JUMPDEST PUSH3 0x460 DUP3 PUSH3 0x1F1 JUMP JUMPDEST PUSH8 0xFFFFFFFFFFFFFFFF DUP2 GT ISZERO PUSH3 0x47C JUMPI PUSH3 0x47B PUSH3 0x1FB JUMP JUMPDEST JUMPDEST PUSH3 0x488 DUP3 SLOAD PUSH3 0x255 JUMP JUMPDEST PUSH3 0x495 DUP3 DUP3 DUP6 PUSH3 0x3BE JUMP JUMPDEST PUSH0 PUSH1 0x20 SWAP1 POP PUSH1 0x1F DUP4 GT PUSH1 0x1 DUP2 EQ PUSH3 0x4CB JUMPI PUSH0 DUP5 ISZERO PUSH3 0x4B6 JUMPI DUP3 DUP8 ADD MLOAD SWAP1 POP JUMPDEST PUSH3 0x4C2 DUP6 DUP3 PUSH3 0x438 JUMP JUMPDEST DUP7 SSTORE POP PUSH3 0x531 JUMP JUMPDEST PUSH1 0x1F NOT DUP5 AND PUSH3 0x4DB DUP7 PUSH3 0x289 JUMP JUMPDEST PUSH0 JUMPDEST DUP3 DUP2 LT ISZERO PUSH3 0x504 JUMPI DUP5 DUP10 ADD MLOAD DUP3 SSTORE PUSH1 0x1 DUP3 ADD SWAP2 POP PUSH1 0x20 DUP6 ADD SWAP5 POP PUSH1 0x20 DUP2 ADD SWAP1 POP PUSH3 0x4DD JUMP JUMPDEST DUP7 DUP4 LT ISZERO PUSH3 0x524 JUMPI DUP5 DUP10 ADD MLOAD PUSH3 0x520 PUSH1 0x1F DUP10 AND DUP3 PUSH3 0x41A JUMP JUMPDEST DUP4 SSTORE POP JUMPDEST PUSH1 0x1 PUSH1 0x2 DUP9 MUL ADD DUP9 SSTORE POP POP POP JUMPDEST POP POP POP POP POP POP JUMP JUMPDEST PUSH0 PUSH20 0xFFFFFFFFFFFFFFFFFFFFFFFFFFFFFFFFFFFFFFFF DUP3 AND SWAP1 POP SWAP2 SWAP1 POP JUMP JUMPDEST PUSH0 PUSH3 0x564 DUP3 PUSH3 0x539 JUMP JUMPDEST SWAP1 POP SWAP2 SWAP1 POP JUMP JUMPDEST PUSH3 0x576 DUP2 PUSH3 0x558 JUMP JUMPDEST DUP3 MSTORE POP POP JUMP JUMPDEST PUSH0 PUSH1 0x20 DUP3 ADD SWAP1 POP PUSH3 0x591 PUSH0 DUP4 ADD DUP5 PUSH3 0x56B JUMP JUMPDEST SWAP3 SWAP2 POP POP JUMP JUMPDEST PUSH2 0x4BBD DUP1 PUSH3 0x5A5 PUSH0 CODECOPY PUSH0 RETURN INVALID PUSH1 0x80 PUSH1 0x40 MSTORE CALLVALUE DUP1 ISZERO PUSH2 0xF JUMPI PUSH0 DUP1 REVERT JUMPDEST POP PUSH1 0x4 CALLDATASIZE LT PUSH2 0x14B JUMPI PUSH0 CALLDATALOAD PUSH1 0xE0 SHR DUP1 PUSH4 0x715018A6 GT PUSH2 0xC1 JUMPI DUP1 PUSH4 0xC749C9B0 GT PUSH2 0x7A JUMPI DUP1 PUSH4 0xC749C9B0 EQ PUSH2 0x3B1 JUMPI DUP1 PUSH4 0xC87B56DD EQ PUSH2 0x3E1 JUMPI DUP1 PUSH4 0xE24E3FFB EQ PUSH2 0x411 JUMPI DUP1 PUSH4 0xE985E9C5 EQ PUSH2 0x441 JUMPI DUP1 PUSH4 0xEA3D9020 EQ PUSH2 0x471 JUMPI DUP1 PUSH4 0xF2FDE38B EQ PUSH2 0x4A1 JUMPI PUSH2 0x14B JUMP JUMPDEST DUP1 PUSH4 0x715018A6 EQ PUSH2 0x303 JUMPI DUP1 PUSH4 0x880AAD75 EQ PUSH2 0x30D JUMPI DUP1 PUSH4 0x8DA5CB5B EQ PUSH2 0x33D JUMPI DUP1 PUSH4 0x95D89B41 EQ PUSH2 0x35B JUMPI DUP1 PUSH4 0xA22CB465 EQ PUSH2 0x379 JUMPI DUP1 PUSH4 0xB88D4FDE EQ PUSH2 0x395 JUMPI PUSH2 0x14B JUMP JUMPDEST DUP1 PUSH4 0x23B872DD GT PUSH2 0x113 JUMPI DUP1 PUSH4 0x23B872DD EQ PUSH2 0x219 JUMPI DUP1 PUSH4 0x42842E0E EQ PUSH2 0x235 JUMPI DUP1 PUSH4 0x517BBF46 EQ PUSH2 0x251 JUMPI DUP1 PUSH4 0x5C18E55C EQ PUSH2 0x287 JUMPI DUP1 PUSH4 0x6352211E EQ PUSH2 0x2A3 JUMPI DUP1 PUSH4 0x70A08231 EQ PUSH2 0x2D3 JUMPI PUSH2 0x14B JUMP JUMPDEST DUP1 PUSH4 0x1FFC9A7 EQ PUSH2 0x14F JUMPI DUP1 PUSH4 0x6FDDE03 EQ PUSH2 0x17F JUMPI DUP1 PUSH4 0x81812FC EQ PUSH2 0x19D JUMPI DUP1 PUSH4 0x95EA7B3 EQ PUSH2 0x1CD JUMPI DUP1 PUSH4 0x187BC2CD EQ PUSH2 0x1E9 JUMPI JUMPDEST PUSH0 DUP1 REVERT JUMPDEST PUSH2 0x169 PUSH1 0x4 DUP1 CALLDATASIZE SUB DUP2 ADD SWAP1 PUSH2 0x164 SWAP2 SWAP1 PUSH2 0x2EA4 JUMP JUMPDEST PUSH2 0x4BD JUMP JUMPDEST PUSH1 0x40 MLOAD PUSH2 0x176 SWAP2 SWAP1 PUSH2 0x2EE9 JUMP JUMPDEST PUSH1 0x40 MLOAD DUP1 SWAP2 SUB SWAP1 RETURN JUMPDEST PUSH2 0x187 PUSH2 0x59E JUMP JUMPDEST PUSH1 0x40 MLOAD PUSH2 0x194 SWAP2 SWAP1 PUSH2 0x2F8C JUMP JUMPDEST PUSH1 0x40 MLOAD DUP1 SWAP2 SUB SWAP1 RETURN JUMPDEST PUSH2 0x1B7 PUSH1 0x4 DUP1 CALLDATASIZE SUB DUP2 ADD SWAP1 PUSH2 0x1B2 SWAP2 SWAP1 PUSH2 0x2FDF JUMP JUMPDEST PUSH2 0x62D JUMP JUMPDEST PUSH1 0x40 MLOAD PUSH2 0x1C4 SWAP2 SWAP1 PUSH2 0x3049 JUMP JUMPDEST PUSH1 0x40 MLOAD DUP1 SWAP2 SUB SWAP1 RETURN JUMPDEST PUSH2 0x1E7 PUSH1 0x4 DUP1 CALLDATASIZE SUB DUP2 ADD SWAP1 PUSH2 0x1E2 SWAP2 SWAP1 PUSH2 0x308C JUMP JUMPDEST PUSH2 0x648 JUMP JUMPDEST STOP JUMPDEST PUSH2 0x203 PUSH1 0x4 DUP1 CALLDATASIZE SUB DUP2 ADD SWAP1 PUSH2 0x1FE SWAP2 SWAP1 PUSH2 0x31F6 JUMP JUMPDEST PUSH2 0x65E JUMP JUMPDEST PUSH1 0x40 MLOAD PUSH2 0x210 SWAP2 SWAP1 PUSH2 0x328D JUMP JUMPDEST PUSH1 0x40 MLOAD DUP1 SWAP2 SUB SWAP1 RETURN JUMPDEST PUSH2 0x233 PUSH1 0x4 DUP1 CALLDATASIZE SUB DUP2 ADD SWAP1 PUSH2 0x22E SWAP2 SWAP1 PUSH2 0x32A6 JUMP JUMPDEST PUSH2 0x6B6 JUMP JUMPDEST STOP JUMPDEST PUSH2 0x24F PUSH1 0x4 DUP1 CALLDATASIZE SUB DUP2 ADD SWAP1 PUSH2 0x24A SWAP2 SWAP1 PUSH2 0x32A6 JUMP JUMPDEST PUSH2 0x7B5 JUMP JUMPDEST STOP JUMPDEST PUSH2 0x26B PUSH1 0x4 DUP1 CALLDATASIZE SUB DUP2 ADD SWAP1 PUSH2 0x266 SWAP2 SWAP1 PUSH2 0x2FDF JUMP JUMPDEST PUSH2 0x7D4 JUMP JUMPDEST PUSH1 0x40 MLOAD PUSH2 0x27E SWAP8 SWAP7 SWAP6 SWAP5 SWAP4 SWAP3 SWAP2 SWAP1 PUSH2 0x33AF JUMP JUMPDEST PUSH1 0x40 MLOAD DUP1 SWAP2 SUB SWAP1 RETURN JUMPDEST PUSH2 0x2A1 PUSH1 0x4 DUP1 CALLDATASIZE SUB DUP2 ADD SWAP1 PUSH2 0x29C SWAP2 SWAP1 PUSH2 0x2FDF JUMP JUMPDEST PUSH2 0x976 JUMP JUMPDEST STOP JUMPDEST PUSH2 0x2BD PUSH1 0x4 DUP1 CALLDATASIZE SUB DUP2 ADD SWAP1 PUSH2 0x2B8 SWAP2 SWAP1 PUSH2 0x2FDF JUMP JUMPDEST PUSH2 0xB4E JUMP JUMPDEST PUSH1 0x40 MLOAD PUSH2 0x2CA SWAP2 SWAP1 PUSH2 0x3049 JUMP JUMPDEST PUSH1 0x40 MLOAD DUP1 SWAP2 SUB SWAP1 RETURN JUMPDEST PUSH2 0x2ED PUSH1 0x4 DUP1 CALLDATASIZE SUB DUP2 ADD SWAP1 PUSH2 0x2E8 SWAP2 SWAP1 PUSH2 0x342A JUMP JUMPDEST PUSH2 0xB5F JUMP JUMPDEST PUSH1 0x40 MLOAD PUSH2 0x2FA SWAP2 SWAP1 PUSH2 0x328D JUMP JUMPDEST PUSH1 0x40 MLOAD DUP1 SWAP2 SUB SWAP1 RETURN JUMPDEST PUSH2 0x30B PUSH2 0xC15 JUMP JUMPDEST STOP JUMPDEST PUSH2 0x327 PUSH1 0x4 DUP1 CALLDATASIZE SUB DUP2 ADD SWAP1 PUSH2 0x322 SWAP2 SWAP1 PUSH2 0x342A JUMP JUMPDEST PUSH2 0xC28 JUMP JUMPDEST PUSH1 0x40 MLOAD PUSH2 0x334 SWAP2 SWAP1 PUSH2 0x350C JUMP JUMPDEST PUSH1 0x40 MLOAD DUP1 SWAP2 SUB SWAP1 RETURN JUMPDEST PUSH2 0x345 PUSH2 0xCBB JUMP JUMPDEST PUSH1 0x40 MLOAD PUSH2 0x352 SWAP2 SWAP1 PUSH2 0x3049 JUMP JUMPDEST PUSH1 0x40 MLOAD DUP1 SWAP2 SUB SWAP1 RETURN JUMPDEST PUSH2 0x363 PUSH2 0xCE3 JUMP JUMPDEST PUSH1 0x40 MLOAD PUSH2 0x370 SWAP2 SWAP1 PUSH2 0x2F8C JUMP JUMPDEST PUSH1 0x40 MLOAD DUP1 SWAP2 SUB SWAP1 RETURN JUMPDEST PUSH2 0x393 PUSH1 0x4 DUP1 CALLDATASIZE SUB DUP2 ADD SWAP1 PUSH2 0x38E SWAP2 SWAP1 PUSH2 0x3556 JUMP JUMPDEST PUSH2 0xD73 JUMP JUMPDEST STOP JUMPDEST PUSH2 0x3AF PUSH1 0x4 DUP1 CALLDATASIZE SUB DUP2 ADD SWAP1 PUSH2 0x3AA SWAP2 SWAP1 PUSH2 0x3632 JUMP JUMPDEST PUSH2 0xD89 JUMP JUMPDEST STOP JUMPDEST PUSH2 0x3CB PUSH1 0x4 DUP1 CALLDATASIZE SUB DUP2 ADD SWAP1 PUSH2 0x3C6 SWAP2 SWAP1 PUSH2 0x36B2 JUMP JUMPDEST PUSH2 0xDAE JUMP JUMPDEST PUSH1 0x40 MLOAD PUSH2 0x3D8 SWAP2 SWAP1 PUSH2 0x328D JUMP JUMPDEST PUSH1 0x40 MLOAD DUP1 SWAP2 SUB SWAP1 RETURN JUMPDEST PUSH2 0x3FB PUSH1 0x4 DUP1 CALLDATASIZE SUB DUP2 ADD SWAP1 PUSH2 0x3F6 SWAP2 SWAP1 PUSH2 0x2FDF JUMP JUMPDEST PUSH2 0xE75 JUMP JUMPDEST PUSH1 0x40 MLOAD PUSH2 0x408 SWAP2 SWAP1 PUSH2 0x2F8C JUMP JUMPDEST PUSH1 0x40 MLOAD DUP1 SWAP2 SUB SWAP1 RETURN JUMPDEST PUSH2 0x42B PUSH1 0x4 DUP1 CALLDATASIZE SUB DUP2 ADD SWAP1 PUSH2 0x426 SWAP2 SWAP1 PUSH2 0x342A JUMP JUMPDEST PUSH2 0x162F JUMP JUMPDEST PUSH1 0x40 MLOAD PUSH2 0x438 SWAP2 SWAP1 PUSH2 0x350C JUMP JUMPDEST PUSH1 0x40 MLOAD DUP1 SWAP2 SUB SWAP1 RETURN JUMPDEST PUSH2 0x45B PUSH1 0x4 DUP1 CALLDATASIZE SUB DUP2 ADD SWAP1 PUSH2 0x456 SWAP2 SWAP1 PUSH2 0x374E JUMP JUMPDEST PUSH2 0x16C2 JUMP JUMPDEST PUSH1 0x40 MLOAD PUSH2 0x468 SWAP2 SWAP1 PUSH2 0x2EE9 JUMP JUMPDEST PUSH1 0x40 MLOAD DUP1 SWAP2 SUB SWAP1 RETURN JUMPDEST PUSH2 0x48B PUSH1 0x4 DUP1 CALLDATASIZE SUB DUP2 ADD SWAP1 PUSH2 0x486 SWAP2 SWAP1 PUSH2 0x2FDF JUMP JUMPDEST PUSH2 0x1750 JUMP JUMPDEST PUSH1 0x40 MLOAD PUSH2 0x498 SWAP2 SWAP1 PUSH2 0x328D JUMP JUMPDEST PUSH1 0x40 MLOAD DUP1 SWAP2 SUB SWAP1 RETURN JUMPDEST PUSH2 0x4BB PUSH1 0x4 DUP1 CALLDATASIZE SUB DUP2 ADD SWAP1 PUSH2 0x4B6 SWAP2 SWAP1 PUSH2 0x342A JUMP JUMPDEST PUSH2 0x178E JUMP JUMPDEST STOP JUMPDEST PUSH0 PUSH32 0x80AC58CD00000000000000000000000000000000000000000000000000000000 PUSH28 0xFFFFFFFFFFFFFFFFFFFFFFFFFFFFFFFFFFFFFFFFFFFFFFFFFFFFFFFF NOT AND DUP3 PUSH28 0xFFFFFFFFFFFFFFFFFFFFFFFFFFFFFFFFFFFFFFFFFFFFFFFFFFFFFFFF NOT AND EQ DUP1 PUSH2 0x587 JUMPI POP PUSH32 0x5B5E139F00000000000000000000000000000000000000000000000000000000 PUSH28 0xFFFFFFFFFFFFFFFFFFFFFFFFFFFFFFFFFFFFFFFFFFFFFFFFFFFFFFFF NOT AND DUP3 PUSH28 0xFFFFFFFFFFFFFFFFFFFFFFFFFFFFFFFFFFFFFFFFFFFFFFFFFFFFFFFF NOT AND EQ JUMPDEST DUP1 PUSH2 0x597 JUMPI POP PUSH2 0x596 DUP3 PUSH2 0x1812 JUMP JUMPDEST JUMPDEST SWAP1 POP SWAP2 SWAP1 POP JUMP JUMPDEST PUSH1 0x60 PUSH0 DUP1 SLOAD PUSH2 0x5AC SWAP1 PUSH2 0x37B9 JUMP JUMPDEST DUP1 PUSH1 0x1F ADD PUSH1 0x20 DUP1 SWAP2 DIV MUL PUSH1 0x20 ADD PUSH1 0x40 MLOAD SWAP1 DUP2 ADD PUSH1 0x40 MSTORE DUP1 SWAP3 SWAP2 SWAP1 DUP2 DUP2 MSTORE PUSH1 0x20 ADD DUP3 DUP1 SLOAD PUSH2 0x5D8 SWAP1 PUSH2 0x37B9 JUMP JUMPDEST DUP1 ISZERO PUSH2 0x623 JUMPI DUP1 PUSH1 0x1F LT PUSH2 0x5FA JUMPI PUSH2 0x100 DUP1 DUP4 SLOAD DIV MUL DUP4 MSTORE SWAP2 PUSH1 0x20 ADD SWAP2 PUSH2 0x623 JUMP JUMPDEST DUP3 ADD SWAP2 SWAP1 PUSH0 MSTORE PUSH1 0x20 PUSH0 KECCAK256 SWAP1 JUMPDEST DUP2 SLOAD DUP2 MSTORE SWAP1 PUSH1 0x1 ADD SWAP1 PUSH1 0x20 ADD DUP1 DUP4 GT PUSH2 0x606 JUMPI DUP3 SWAP1 SUB PUSH1 0x1F AND DUP3 ADD SWAP2 JUMPDEST POP POP POP POP POP SWAP1 POP SWAP1 JUMP JUMPDEST PUSH0 PUSH2 0x637 DUP3 PUSH2 0x187B JUMP JUMPDEST POP PUSH2 0x641 DUP3 PUSH2 0x1901 JUMP JUMPDEST SWAP1 POP SWAP2 SWAP1 POP JUMP JUMPDEST PUSH2 0x65A DUP3 DUP3 PUSH2 0x655 PUSH2 0x193A JUMP JUMPDEST PUSH2 0x1941 JUMP JUMPDEST POP POP JUMP JUMPDEST PUSH0 TIMESTAMP DUP4 GT PUSH2 0x6A1 JUMPI PUSH1 0x40 MLOAD PUSH32 0x8C379A000000000000000000000000000000000000000000000000000000000 DUP2 MSTORE PUSH1 0x4 ADD PUSH2 0x698 SWAP1 PUSH2 0x3859 JUMP JUMPDEST PUSH1 0x40 MLOAD DUP1 SWAP2 SUB SWAP1 REVERT JUMPDEST PUSH2 0x6AD DUP5 DUP5 CALLER DUP6 PUSH2 0x1953 JUMP JUMPDEST SWAP1 POP SWAP4 SWAP3 POP POP POP JUMP JUMPDEST PUSH0 PUSH20 0xFFFFFFFFFFFFFFFFFFFFFFFFFFFFFFFFFFFFFFFF AND DUP3 PUSH20 0xFFFFFFFFFFFFFFFFFFFFFFFFFFFFFFFFFFFFFFFF AND SUB PUSH2 0x726 JUMPI PUSH0 PUSH1 0x40 MLOAD PUSH32 0x64A0AE9200000000000000000000000000000000000000000000000000000000 DUP2 MSTORE PUSH1 0x4 ADD PUSH2 0x71D SWAP2 SWAP1 PUSH2 0x3049 JUMP JUMPDEST PUSH1 0x40 MLOAD DUP1 SWAP2 SUB SWAP1 REVERT JUMPDEST PUSH0 PUSH2 0x739 DUP4 DUP4 PUSH2 0x734 PUSH2 0x193A JUMP JUMPDEST PUSH2 0x1C71 JUMP JUMPDEST SWAP1 POP DUP4 PUSH20 0xFFFFFFFFFFFFFFFFFFFFFFFFFFFFFFFFFFFFFFFF AND DUP2 PUSH20 0xFFFFFFFFFFFFFFFFFFFFFFFFFFFFFFFFFFFFFFFF AND EQ PUSH2 0x7AF JUMPI DUP4 DUP3 DUP3 PUSH1 0x40 MLOAD PUSH32 0x64283D7B00000000000000000000000000000000000000000000000000000000 DUP2 MSTORE PUSH1 0x4 ADD PUSH2 0x7A6 SWAP4 SWAP3 SWAP2 SWAP1 PUSH2 0x3877 JUMP JUMPDEST PUSH1 0x40 MLOAD DUP1 SWAP2 SUB SWAP1 REVERT JUMPDEST POP POP POP POP JUMP JUMPDEST PUSH2 0x7CF DUP4 DUP4 DUP4 PUSH1 0x40 MLOAD DUP1 PUSH1 0x20 ADD PUSH1 0x40 MSTORE DUP1 PUSH0 DUP2 MSTORE POP PUSH2 0xD89 JUMP JUMPDEST POP POP POP JUMP JUMPDEST PUSH1 0x8 PUSH1 0x20 MSTORE DUP1 PUSH0 MSTORE PUSH1 0x40 PUSH0 KECCAK256 PUSH0 SWAP2 POP SWAP1 POP DUP1 PUSH0 ADD DUP1 SLOAD PUSH2 0x7F3 SWAP1 PUSH2 0x37B9 JUMP JUMPDEST DUP1 PUSH1 0x1F ADD PUSH1 0x20 DUP1 SWAP2 DIV MUL PUSH1 0x20 ADD PUSH1 0x40 MLOAD SWAP1 DUP2 ADD PUSH1 0x40 MSTORE DUP1 SWAP3 SWAP2 SWAP1 DUP2 DUP2 MSTORE PUSH1 0x20 ADD DUP3 DUP1 SLOAD PUSH2 0x81F SWAP1 PUSH2 0x37B9 JUMP JUMPDEST DUP1 ISZERO PUSH2 0x86A JUMPI DUP1 PUSH1 0x1F LT PUSH2 0x841 JUMPI PUSH2 0x100 DUP1 DUP4 SLOAD DIV MUL DUP4 MSTORE SWAP2 PUSH1 0x20 ADD SWAP2 PUSH2 0x86A JUMP JUMPDEST DUP3 ADD SWAP2 SWAP1 PUSH0 MSTORE PUSH1 0x20 PUSH0 KECCAK256 SWAP1 JUMPDEST DUP2 SLOAD DUP2 MSTORE SWAP1 PUSH1 0x1 ADD SWAP1 PUSH1 0x20 ADD DUP1 DUP4 GT PUSH2 0x84D JUMPI DUP3 SWAP1 SUB PUSH1 0x1F AND DUP3 ADD SWAP2 JUMPDEST POP POP POP POP POP SWAP1 DUP1 PUSH1 0x1 ADD SLOAD SWAP1 DUP1 PUSH1 0x2 ADD PUSH0 SWAP1 SLOAD SWAP1 PUSH2 0x100 EXP SWAP1 DIV PUSH20 0xFFFFFFFFFFFFFFFFFFFFFFFFFFFFFFFFFFFFFFFF AND SWAP1 DUP1 PUSH1 0x3 ADD PUSH0 SWAP1 SLOAD SWAP1 PUSH2 0x100 EXP SWAP1 DIV PUSH20 0xFFFFFFFFFFFFFFFFFFFFFFFFFFFFFFFFFFFFFFFF AND SWAP1 DUP1 PUSH1 0x3 ADD PUSH1 0x14 SWAP1 SLOAD SWAP1 PUSH2 0x100 EXP SWAP1 DIV PUSH1 0xFF AND SWAP1 DUP1 PUSH1 0x3 ADD PUSH1 0x15 SWAP1 SLOAD SWAP1 PUSH2 0x100 EXP SWAP1 DIV PUSH1 0xFF AND SWAP1 DUP1 PUSH1 0x4 ADD DUP1 SLOAD PUSH2 0x8F5 SWAP1 PUSH2 0x37B9 JUMP JUMPDEST DUP1 PUSH1 0x1F ADD PUSH1 0x20 DUP1 SWAP2 DIV MUL PUSH1 0x20 ADD PUSH1 0x40 MLOAD SWAP1 DUP2 ADD PUSH1 0x40 MSTORE DUP1 SWAP3 SWAP2 SWAP1 DUP2 DUP2 MSTORE PUSH1 0x20 ADD DUP3 DUP1 SLOAD PUSH2 0x921 SWAP1 PUSH2 0x37B9 JUMP JUMPDEST DUP1 ISZERO PUSH2 0x96C JUMPI DUP1 PUSH1 0x1F LT PUSH2 0x943 JUMPI PUSH2 0x100 DUP1 DUP4 SLOAD DIV MUL DUP4 MSTORE SWAP2 PUSH1 0x20 ADD SWAP2 PUSH2 0x96C JUMP JUMPDEST DUP3 ADD SWAP2 SWAP1 PUSH0 MSTORE PUSH1 0x20 PUSH0 KECCAK256 SWAP1 JUMPDEST DUP2 SLOAD DUP2 MSTORE SWAP1 PUSH1 0x1 ADD SWAP1 PUSH1 0x20 ADD DUP1 DUP4 GT PUSH2 0x94F JUMPI DUP3 SWAP1 SUB PUSH1 0x1F AND DUP3 ADD SWAP2 JUMPDEST POP POP POP POP POP SWAP1 POP DUP8 JUMP JUMPDEST CALLER PUSH20 0xFFFFFFFFFFFFFFFFFFFFFFFFFFFFFFFFFFFFFFFF AND PUSH2 0x996 DUP3 PUSH2 0xB4E JUMP JUMPDEST PUSH20 0xFFFFFFFFFFFFFFFFFFFFFFFFFFFFFFFFFFFFFFFF AND EQ PUSH2 0x9EC JUMPI PUSH1 0x40 MLOAD PUSH32 0x8C379A000000000000000000000000000000000000000000000000000000000 DUP2 MSTORE PUSH1 0x4 ADD PUSH2 0x9E3 SWAP1 PUSH2 0x38F6 JUMP JUMPDEST PUSH1 0x40 MLOAD DUP1 SWAP2 SUB SWAP1 REVERT JUMPDEST PUSH1 0x8 PUSH0 DUP3 DUP2 MSTORE PUSH1 0x20 ADD SWAP1 DUP2 MSTORE PUSH1 0x20 ADD PUSH0 KECCAK256 PUSH1 0x1 ADD SLOAD TIMESTAMP LT ISZERO PUSH2 0xA43 JUMPI PUSH1 0x40 MLOAD PUSH32 0x8C379A000000000000000000000000000000000000000000000000000000000 DUP2 MSTORE PUSH1 0x4 ADD PUSH2 0xA3A SWAP1 PUSH2 0x395E JUMP JUMPDEST PUSH1 0x40 MLOAD DUP1 SWAP2 SUB SWAP1 REVERT JUMPDEST PUSH1 0x2 DUP1 DUP2 GT ISZERO PUSH2 0xA56 JUMPI PUSH2 0xA55 PUSH2 0x32F6 JUMP JUMPDEST JUMPDEST PUSH1 0x8 PUSH0 DUP4 DUP2 MSTORE PUSH1 0x20 ADD SWAP1 DUP2 MSTORE PUSH1 0x20 ADD PUSH0 KECCAK256 PUSH1 0x3 ADD PUSH1 0x15 SWAP1 SLOAD SWAP1 PUSH2 0x100 EXP SWAP1 DIV PUSH1 0xFF AND PUSH1 0x2 DUP2 GT ISZERO PUSH2 0xA8A JUMPI PUSH2 0xA89 PUSH2 0x32F6 JUMP JUMPDEST JUMPDEST SUB PUSH2 0xACA JUMPI PUSH1 0x40 MLOAD PUSH32 0x8C379A000000000000000000000000000000000000000000000000000000000 DUP2 MSTORE PUSH1 0x4 ADD PUSH2 0xAC1 SWAP1 PUSH2 0x39C6 JUMP JUMPDEST PUSH1 0x40 MLOAD DUP1 SWAP2 SUB SWAP1 REVERT JUMPDEST PUSH1 0x2 PUSH1 0x8 PUSH0 DUP4 DUP2 MSTORE PUSH1 0x20 ADD SWAP1 DUP2 MSTORE PUSH1 0x20 ADD PUSH0 KECCAK256 PUSH1 0x3 ADD PUSH1 0x15 PUSH2 0x100 EXP DUP2 SLOAD DUP2 PUSH1 0xFF MUL NOT AND SWAP1 DUP4 PUSH1 0x2 DUP2 GT ISZERO PUSH2 0xB02 JUMPI PUSH2 0xB01 PUSH2 0x32F6 JUMP JUMPDEST JUMPDEST MUL OR SWAP1 SSTORE POP CALLER PUSH20 0xFFFFFFFFFFFFFFFFFFFFFFFFFFFFFFFFFFFFFFFF AND DUP2 PUSH32 0x7D3112E72B789AD7C63705EC623A9760C64DD2B02125A7A8D5E96D252C4009F6 PUSH1 0x40 MLOAD PUSH1 0x40 MLOAD DUP1 SWAP2 SUB SWAP1 LOG3 POP JUMP JUMPDEST PUSH0 PUSH2 0xB58 DUP3 PUSH2 0x187B JUMP JUMPDEST SWAP1 POP SWAP2 SWAP1 POP JUMP JUMPDEST PUSH0 DUP1 PUSH20 0xFFFFFFFFFFFFFFFFFFFFFFFFFFFFFFFFFFFFFFFF AND DUP3 PUSH20 0xFFFFFFFFFFFFFFFFFFFFFFFFFFFFFFFFFFFFFFFF AND SUB PUSH2 0xBD0 JUMPI PUSH0 PUSH1 0x40 MLOAD PUSH32 0x89C62B6400000000000000000000000000000000000000000000000000000000 DUP2 MSTORE PUSH1 0x4 ADD PUSH2 0xBC7 SWAP2 SWAP1 PUSH2 0x3049 JUMP JUMPDEST PUSH1 0x40 MLOAD DUP1 SWAP2 SUB SWAP1 REVERT JUMPDEST PUSH1 0x3 PUSH0 DUP4 PUSH20 0xFFFFFFFFFFFFFFFFFFFFFFFFFFFFFFFFFFFFFFFF AND PUSH20 0xFFFFFFFFFFFFFFFFFFFFFFFFFFFFFFFFFFFFFFFF AND DUP2 MSTORE PUSH1 0x20 ADD SWAP1 DUP2 MSTORE PUSH1 0x20 ADD PUSH0 KECCAK256 SLOAD SWAP1 POP SWAP2 SWAP1 POP JUMP JUMPDEST PUSH2 0xC1D PUSH2 0x1E7C JUMP JUMPDEST PUSH2 0xC26 PUSH0 PUSH2 0x1F03 JUMP JUMPDEST JUMP JUMPDEST PUSH1 0x60 PUSH1 0xA PUSH0 DUP4 PUSH20 0xFFFFFFFFFFFFFFFFFFFFFFFFFFFFFFFFFFFFFFFF AND PUSH20 0xFFFFFFFFFFFFFFFFFFFFFFFFFFFFFFFFFFFFFFFF AND DUP2 MSTORE PUSH1 0x20 ADD SWAP1 DUP2 MSTORE PUSH1 0x20 ADD PUSH0 KECCAK256 DUP1 SLOAD DUP1 PUSH1 0x20 MUL PUSH1 0x20 ADD PUSH1 0x40 MLOAD SWAP1 DUP2 ADD PUSH1 0x40 MSTORE DUP1 SWAP3 SWAP2 SWAP1 DUP2 DUP2 MSTORE PUSH1 0x20 ADD DUP3 DUP1 SLOAD DUP1 ISZERO PUSH2 0xCAF JUMPI PUSH1 0x20 MUL DUP3 ADD SWAP2 SWAP1 PUSH0 MSTORE PUSH1 0x20 PUSH0 KECCAK256 SWAP1 JUMPDEST DUP2 SLOAD DUP2 MSTORE PUSH1 0x20 ADD SWAP1 PUSH1 0x1 ADD SWAP1 DUP1 DUP4 GT PUSH2 0xC9B JUMPI JUMPDEST POP POP POP POP POP SWAP1 POP SWAP2 SWAP1 POP JUMP JUMPDEST PUSH0 PUSH1 0x6 PUSH0 SWAP1 SLOAD SWAP1 PUSH2 0x100 EXP SWAP1 DIV PUSH20 0xFFFFFFFFFFFFFFFFFFFFFFFFFFFFFFFFFFFFFFFF AND SWAP1 POP SWAP1 JUMP JUMPDEST PUSH1 0x60 PUSH1 0x1 DUP1 SLOAD PUSH2 0xCF2 SWAP1 PUSH2 0x37B9 JUMP JUMPDEST DUP1 PUSH1 0x1F ADD PUSH1 0x20 DUP1 SWAP2 DIV MUL PUSH1 0x20 ADD PUSH1 0x40 MLOAD SWAP1 DUP2 ADD PUSH1 0x40 MSTORE DUP1 SWAP3 SWAP2 SWAP1 DUP2 DUP2 MSTORE PUSH1 0x20 ADD DUP3 DUP1 SLOAD PUSH2 0xD1E SWAP1 PUSH2 0x37B9 JUMP JUMPDEST DUP1 ISZERO PUSH2 0xD69 JUMPI DUP1 PUSH1 0x1F LT PUSH2 0xD40 JUMPI PUSH2 0x100 DUP1 DUP4 SLOAD DIV MUL DUP4 MSTORE SWAP2 PUSH1 0x20 ADD SWAP2 PUSH2 0xD69 JUMP JUMPDEST DUP3 ADD SWAP2 SWAP1 PUSH0 MSTORE PUSH1 0x20 PUSH0 KECCAK256 SWAP1 JUMPDEST DUP2 SLOAD DUP2 MSTORE SWAP1 PUSH1 0x1 ADD SWAP1 PUSH1 0x20 ADD DUP1 DUP4 GT PUSH2 0xD4C JUMPI DUP3 SWAP1 SUB PUSH1 0x1F AND DUP3 ADD SWAP2 JUMPDEST POP POP POP POP POP SWAP1 POP SWAP1 JUMP JUMPDEST PUSH2 0xD85 PUSH2 0xD7E PUSH2 0x193A JUMP JUMPDEST DUP4 DUP4 PUSH2 0x1FC6 JUMP JUMPDEST POP POP JUMP JUMPDEST PUSH2 0xD94 DUP5 DUP5 DUP5 PUSH2 0x6B6 JUMP JUMPDEST PUSH2 0xDA8 PUSH2 0xD9F PUSH2 0x193A JUMP JUMPDEST DUP6 DUP6 DUP6 DUP6 PUSH2 0x219F JUMP JUMPDEST POP POP POP POP JUMP JUMPDEST PUSH0 TIMESTAMP DUP5 GT PUSH2 0xDF1 JUMPI PUSH1 0x40 MLOAD PUSH32 0x8C379A000000000000000000000000000000000000000000000000000000000 DUP2 MSTORE PUSH1 0x4 ADD PUSH2 0xDE8 SWAP1 PUSH2 0x3859 JUMP JUMPDEST PUSH1 0x40 MLOAD DUP1 SWAP2 SUB SWAP1 REVERT JUMPDEST PUSH0 PUSH20 0xFFFFFFFFFFFFFFFFFFFFFFFFFFFFFFFFFFFFFFFF AND DUP4 PUSH20 0xFFFFFFFFFFFFFFFFFFFFFFFFFFFFFFFFFFFFFFFF AND SUB PUSH2 0xE5F JUMPI PUSH1 0x40 MLOAD PUSH32 0x8C379A000000000000000000000000000000000000000000000000000000000 DUP2 MSTORE PUSH1 0x4 ADD PUSH2 0xE56 SWAP1 PUSH2 0x3A2E JUMP JUMPDEST PUSH1 0x40 MLOAD DUP1 SWAP2 SUB SWAP1 REVERT JUMPDEST PUSH2 0xE6B DUP6 DUP6 DUP6 DUP6 PUSH2 0x1953 JUMP JUMPDEST SWAP1 POP SWAP5 SWAP4 POP POP POP POP JUMP JUMPDEST PUSH1 0x60 PUSH2 0xE80 DUP3 PUSH2 0x187B JUMP JUMPDEST POP PUSH0 PUSH1 0x8 PUSH0 DUP5 DUP2 MSTORE PUSH1 0x20 ADD SWAP1 DUP2 MSTORE PUSH1 0x20 ADD PUSH0 KECCAK256 PUSH1 0x40 MLOAD DUP1 PUSH1 0xE0 ADD PUSH1 0x40 MSTORE SWAP1 DUP2 PUSH0 DUP3 ADD DUP1 SLOAD PUSH2 0xEAD SWAP1 PUSH2 0x37B9 JUMP JUMPDEST DUP1 PUSH1 0x1F ADD PUSH1 0x20 DUP1 SWAP2 DIV MUL PUSH1 0x20 ADD PUSH1 0x40 MLOAD SWAP1 DUP2 ADD PUSH1 0x40 MSTORE DUP1 SWAP3 SWAP2 SWAP1 DUP2 DUP2 MSTORE PUSH1 0x20 ADD DUP3 DUP1 SLOAD PUSH2 0xED9 SWAP1 PUSH2 0x37B9 JUMP JUMPDEST DUP1 ISZERO PUSH2 0xF24 JUMPI DUP1 PUSH1 0x1F LT PUSH2 0xEFB JUMPI PUSH2 0x100 DUP1 DUP4 SLOAD DIV MUL DUP4 MSTORE SWAP2 PUSH1 0x20 ADD SWAP2 PUSH2 0xF24 JUMP JUMPDEST DUP3 ADD SWAP2 SWAP1 PUSH0 MSTORE PUSH1 0x20 PUSH0 KECCAK256 SWAP1 JUMPDEST DUP2 SLOAD DUP2 MSTORE SWAP1 PUSH1 0x1 ADD SWAP1 PUSH1 0x20 ADD DUP1 DUP4 GT PUSH2 0xF07 JUMPI DUP3 SWAP1 SUB PUSH1 0x1F AND DUP3 ADD SWAP2 JUMPDEST POP POP POP POP POP DUP2 MSTORE PUSH1 0x20 ADD PUSH1 0x1 DUP3 ADD SLOAD DUP2 MSTORE PUSH1 0x20 ADD PUSH1 0x2 DUP3 ADD PUSH0 SWAP1 SLOAD SWAP1 PUSH2 0x100 EXP SWAP1 DIV PUSH20 0xFFFFFFFFFFFFFFFFFFFFFFFFFFFFFFFFFFFFFFFF AND PUSH20 0xFFFFFFFFFFFFFFFFFFFFFFFFFFFFFFFFFFFFFFFF AND PUSH20 0xFFFFFFFFFFFFFFFFFFFFFFFFFFFFFFFFFFFFFFFF AND DUP2 MSTORE PUSH1 0x20 ADD PUSH1 0x3 DUP3 ADD PUSH0 SWAP1 SLOAD SWAP1 PUSH2 0x100 EXP SWAP1 DIV PUSH20 0xFFFFFFFFFFFFFFFFFFFFFFFFFFFFFFFFFFFFFFFF AND PUSH20 0xFFFFFFFFFFFFFFFFFFFFFFFFFFFFFFFFFFFFFFFF AND PUSH20 0xFFFFFFFFFFFFFFFFFFFFFFFFFFFFFFFFFFFFFFFF AND DUP2 MSTORE PUSH1 0x20 ADD PUSH1 0x3 DUP3 ADD PUSH1 0x14 SWAP1 SLOAD SWAP1 PUSH2 0x100 EXP SWAP1 DIV PUSH1 0xFF AND PUSH1 0x2 DUP2 GT ISZERO PUSH2 0x1006 JUMPI PUSH2 0x1005 PUSH2 0x32F6 JUMP JUMPDEST JUMPDEST PUSH1 0x2 DUP2 GT ISZERO PUSH2 0x1018 JUMPI PUSH2 0x1017 PUSH2 0x32F6 JUMP JUMPDEST JUMPDEST DUP2 MSTORE PUSH1 0x20 ADD PUSH1 0x3 DUP3 ADD PUSH1 0x15 SWAP1 SLOAD SWAP1 PUSH2 0x100 EXP SWAP1 DIV PUSH1 0xFF AND PUSH1 0x2 DUP2 GT ISZERO PUSH2 0x1041 JUMPI PUSH2 0x1040 PUSH2 0x32F6 JUMP JUMPDEST JUMPDEST PUSH1 0x2 DUP2 GT ISZERO PUSH2 0x1053 JUMPI PUSH2 0x1052 PUSH2 0x32F6 JUMP JUMPDEST JUMPDEST DUP2 MSTORE PUSH1 0x20 ADD PUSH1 0x4 DUP3 ADD DUP1 SLOAD PUSH2 0x1067 SWAP1 PUSH2 0x37B9 JUMP JUMPDEST DUP1 PUSH1 0x1F ADD PUSH1 0x20 DUP1 SWAP2 DIV MUL PUSH1 0x20 ADD PUSH1 0x40 MLOAD SWAP1 DUP2 ADD PUSH1 0x40 MSTORE DUP1 SWAP3 SWAP2 SWAP1 DUP2 DUP2 MSTORE PUSH1 0x20 ADD DUP3 DUP1 SLOAD PUSH2 0x1093 SWAP1 PUSH2 0x37B9 JUMP JUMPDEST DUP1 ISZERO PUSH2 0x10DE JUMPI DUP1 PUSH1 0x1F LT PUSH2 0x10B5 JUMPI PUSH2 0x100 DUP1 DUP4 SLOAD DIV MUL DUP4 MSTORE SWAP2 PUSH1 0x20 ADD SWAP2 PUSH2 0x10DE JUMP JUMPDEST DUP3 ADD SWAP2 SWAP1 PUSH0 MSTORE PUSH1 0x20 PUSH0 KECCAK256 SWAP1 JUMPDEST DUP2 SLOAD DUP2 MSTORE SWAP1 PUSH1 0x1 ADD SWAP1 PUSH1 0x20 ADD DUP1 DUP4 GT PUSH2 0x10C1 JUMPI DUP3 SWAP1 SUB PUSH1 0x1F AND DUP3 ADD SWAP2 JUMPDEST POP POP POP POP POP DUP2 MSTORE POP POP SWAP1 POP PUSH1 0x60 DUP1 PUSH1 0x2 DUP1 DUP2 GT ISZERO PUSH2 0x10FF JUMPI PUSH2 0x10FE PUSH2 0x32F6 JUMP JUMPDEST JUMPDEST DUP4 PUSH1 0xA0 ADD MLOAD PUSH1 0x2 DUP2 GT ISZERO PUSH2 0x1116 JUMPI PUSH2 0x1115 PUSH2 0x32F6 JUMP JUMPDEST JUMPDEST SUB PUSH2 0x1190 JUMPI PUSH1 0x40 MLOAD DUP1 PUSH1 0x40 ADD PUSH1 0x40 MSTORE DUP1 PUSH1 0x6 DUP2 MSTORE PUSH1 0x20 ADD PUSH32 0x4F70656E65640000000000000000000000000000000000000000000000000000 DUP2 MSTORE POP SWAP2 POP PUSH1 0x40 MLOAD DUP1 PUSH1 0x40 ADD PUSH1 0x40 MSTORE DUP1 PUSH1 0x7 DUP2 MSTORE PUSH1 0x20 ADD PUSH32 0x2331613161326500000000000000000000000000000000000000000000000000 DUP2 MSTORE POP SWAP1 POP PUSH2 0x1430 JUMP JUMPDEST DUP3 PUSH1 0x20 ADD MLOAD TIMESTAMP LT PUSH2 0x12E7 JUMPI PUSH1 0x40 MLOAD DUP1 PUSH1 0x40 ADD PUSH1 0x40 MSTORE DUP1 PUSH1 0xD DUP2 MSTORE PUSH1 0x20 ADD PUSH32 0x526561647920746F204F70656E00000000000000000000000000000000000000 DUP2 MSTORE POP SWAP2 POP PUSH0 PUSH1 0x2 DUP2 GT ISZERO PUSH2 0x11E6 JUMPI PUSH2 0x11E5 PUSH2 0x32F6 JUMP JUMPDEST JUMPDEST DUP4 PUSH1 0x80 ADD MLOAD PUSH1 0x2 DUP2 GT ISZERO PUSH2 0x11FD JUMPI PUSH2 0x11FC PUSH2 0x32F6 JUMP JUMPDEST JUMPDEST EQ PUSH2 0x12A9 JUMPI PUSH1 0x1 PUSH1 0x2 DUP2 GT ISZERO PUSH2 0x1216 JUMPI PUSH2 0x1215 PUSH2 0x32F6 JUMP JUMPDEST JUMPDEST DUP4 PUSH1 0x80 ADD MLOAD PUSH1 0x2 DUP2 GT ISZERO PUSH2 0x122D JUMPI PUSH2 0x122C PUSH2 0x32F6 JUMP JUMPDEST JUMPDEST EQ PUSH2 0x126D JUMPI PUSH1 0x40 MLOAD DUP1 PUSH1 0x40 ADD PUSH1 0x40 MSTORE DUP1 PUSH1 0x7 DUP2 MSTORE PUSH1 0x20 ADD PUSH32 0x2331613161316100000000000000000000000000000000000000000000000000 DUP2 MSTORE POP PUSH2 0x12A4 JUMP JUMPDEST PUSH1 0x40 MLOAD DUP1 PUSH1 0x40 ADD PUSH1 0x40 MSTORE DUP1 PUSH1 0x7 DUP2 MSTORE PUSH1 0x20 ADD PUSH32 0x2346463244353500000000000000000000000000000000000000000000000000 DUP2 MSTORE POP JUMPDEST PUSH2 0x12E0 JUMP JUMPDEST PUSH1 0x40 MLOAD DUP1 PUSH1 0x40 ADD PUSH1 0x40 MSTORE DUP1 PUSH1 0x7 DUP2 MSTORE PUSH1 0x20 ADD PUSH32 0x2346463546434600000000000000000000000000000000000000000000000000 DUP2 MSTORE POP JUMPDEST SWAP1 POP PUSH2 0x142F JUMP JUMPDEST PUSH1 0x40 MLOAD DUP1 PUSH1 0x40 ADD PUSH1 0x40 MSTORE DUP1 PUSH1 0x6 DUP2 MSTORE PUSH1 0x20 ADD PUSH32 0x4C6F636B65640000000000000000000000000000000000000000000000000000 DUP2 MSTORE POP SWAP2 POP PUSH0 PUSH1 0x2 DUP2 GT ISZERO PUSH2 0x1332 JUMPI PUSH2 0x1331 PUSH2 0x32F6 JUMP JUMPDEST JUMPDEST DUP4 PUSH1 0x80 ADD MLOAD PUSH1 0x2 DUP2 GT ISZERO PUSH2 0x1349 JUMPI PUSH2 0x1348 PUSH2 0x32F6 JUMP JUMPDEST JUMPDEST EQ PUSH2 0x13F5 JUMPI PUSH1 0x1 PUSH1 0x2 DUP2 GT ISZERO PUSH2 0x1362 JUMPI PUSH2 0x1361 PUSH2 0x32F6 JUMP JUMPDEST JUMPDEST DUP4 PUSH1 0x80 ADD MLOAD PUSH1 0x2 DUP2 GT ISZERO PUSH2 0x1379 JUMPI PUSH2 0x1378 PUSH2 0x32F6 JUMP JUMPDEST JUMPDEST EQ PUSH2 0x13B9 JUMPI PUSH1 0x40 MLOAD DUP1 PUSH1 0x40 ADD PUSH1 0x40 MSTORE DUP1 PUSH1 0x7 DUP2 MSTORE PUSH1 0x20 ADD PUSH32 0x2330643064306400000000000000000000000000000000000000000000000000 DUP2 MSTORE POP PUSH2 0x13F0 JUMP JUMPDEST PUSH1 0x40 MLOAD DUP1 PUSH1 0x40 ADD PUSH1 0x40 MSTORE DUP1 PUSH1 0x7 DUP2 MSTORE PUSH1 0x20 ADD PUSH32 0x2338623161326100000000000000000000000000000000000000000000000000 DUP2 MSTORE POP JUMPDEST PUSH2 0x142C JUMP JUMPDEST PUSH1 0x40 MLOAD DUP1 PUSH1 0x40 ADD PUSH1 0x40 MSTORE DUP1 PUSH1 0x7 DUP2 MSTORE PUSH1 0x20 ADD PUSH32 0x2363303632386100000000000000000000000000000000000000000000000000 DUP2 MSTORE POP JUMPDEST SWAP1 POP JUMPDEST JUMPDEST PUSH0 DUP1 PUSH1 0x2 DUP2 GT ISZERO PUSH2 0x1444 JUMPI PUSH2 0x1443 PUSH2 0x32F6 JUMP JUMPDEST JUMPDEST DUP5 PUSH1 0x80 ADD MLOAD PUSH1 0x2 DUP2 GT ISZERO PUSH2 0x145B JUMPI PUSH2 0x145A PUSH2 0x32F6 JUMP JUMPDEST JUMPDEST EQ PUSH2 0x1507 JUMPI PUSH1 0x1 PUSH1 0x2 DUP2 GT ISZERO PUSH2 0x1474 JUMPI PUSH2 0x1473 PUSH2 0x32F6 JUMP JUMPDEST JUMPDEST DUP5 PUSH1 0x80 ADD MLOAD PUSH1 0x2 DUP2 GT ISZERO PUSH2 0x148B JUMPI PUSH2 0x148A PUSH2 0x32F6 JUMP JUMPDEST JUMPDEST EQ PUSH2 0x14CB JUMPI PUSH1 0x40 MLOAD DUP1 PUSH1 0x40 ADD PUSH1 0x40 MSTORE DUP1 PUSH1 0x5 DUP2 MSTORE PUSH1 0x20 ADD PUSH32 0x426C61636B000000000000000000000000000000000000000000000000000000 DUP2 MSTORE POP PUSH2 0x1502 JUMP JUMPDEST PUSH1 0x40 MLOAD DUP1 PUSH1 0x40 ADD PUSH1 0x40 MSTORE DUP1 PUSH1 0x3 DUP2 MSTORE PUSH1 0x20 ADD PUSH32 0x5265640000000000000000000000000000000000000000000000000000000000 DUP2 MSTORE POP JUMPDEST PUSH2 0x153E JUMP JUMPDEST PUSH1 0x40 MLOAD DUP1 PUSH1 0x40 ADD PUSH1 0x40 MSTORE DUP1 PUSH1 0x4 DUP2 MSTORE PUSH1 0x20 ADD PUSH32 0x50696E6B00000000000000000000000000000000000000000000000000000000 DUP2 MSTORE POP JUMPDEST SWAP1 POP PUSH0 DUP3 PUSH2 0x154F DUP7 PUSH1 0xC0 ADD MLOAD PUSH2 0x234B JUMP JUMPDEST DUP6 DUP5 PUSH2 0x155A DUP12 PUSH2 0x2355 JUMP JUMPDEST PUSH1 0x40 MLOAD PUSH1 0x20 ADD PUSH2 0x156E SWAP6 SWAP5 SWAP4 SWAP3 SWAP2 SWAP1 PUSH2 0x3F58 JUMP JUMPDEST PUSH1 0x40 MLOAD PUSH1 0x20 DUP2 DUP4 SUB SUB DUP2 MSTORE SWAP1 PUSH1 0x40 MSTORE SWAP1 POP PUSH0 PUSH2 0x1589 DUP9 PUSH2 0x2355 JUMP JUMPDEST PUSH2 0x1596 DUP8 PUSH1 0xC0 ADD MLOAD PUSH2 0x234B JUMP JUMPDEST PUSH2 0x159F DUP5 PUSH2 0x241F JUMP JUMPDEST DUP8 DUP7 PUSH2 0x15C6 DUP12 PUSH1 0x40 ADD MLOAD PUSH20 0xFFFFFFFFFFFFFFFFFFFFFFFFFFFFFFFFFFFFFFFF AND PUSH1 0x14 PUSH2 0x2432 JUMP JUMPDEST PUSH2 0x15D3 DUP13 PUSH1 0x20 ADD MLOAD PUSH2 0x2355 JUMP JUMPDEST PUSH1 0x40 MLOAD PUSH1 0x20 ADD PUSH2 0x15E9 SWAP8 SWAP7 SWAP6 SWAP5 SWAP4 SWAP3 SWAP2 SWAP1 PUSH2 0x4480 JUMP JUMPDEST PUSH1 0x40 MLOAD PUSH1 0x20 DUP2 DUP4 SUB SUB DUP2 MSTORE SWAP1 PUSH1 0x40 MSTORE SWAP1 POP PUSH2 0x1603 DUP2 PUSH2 0x241F JUMP JUMPDEST PUSH1 0x40 MLOAD PUSH1 0x20 ADD PUSH2 0x1613 SWAP2 SWAP1 PUSH2 0x45DE JUMP JUMPDEST PUSH1 0x40 MLOAD PUSH1 0x20 DUP2 DUP4 SUB SUB DUP2 MSTORE SWAP1 PUSH1 0x40 MSTORE SWAP7 POP POP POP POP POP POP POP SWAP2 SWAP1 POP JUMP JUMPDEST PUSH1 0x60 PUSH1 0x9 PUSH0 DUP4 PUSH20 0xFFFFFFFFFFFFFFFFFFFFFFFFFFFFFFFFFFFFFFFF AND PUSH20 0xFFFFFFFFFFFFFFFFFFFFFFFFFFFFFFFFFFFFFFFF AND DUP2 MSTORE PUSH1 0x20 ADD SWAP1 DUP2 MSTORE PUSH1 0x20 ADD PUSH0 KECCAK256 DUP1 SLOAD DUP1 PUSH1 0x20 MUL PUSH1 0x20 ADD PUSH1 0x40 MLOAD SWAP1 DUP2 ADD PUSH1 0x40 MSTORE DUP1 SWAP3 SWAP2 SWAP1 DUP2 DUP2 MSTORE PUSH1 0x20 ADD DUP3 DUP1 SLOAD DUP1 ISZERO PUSH2 0x16B6 JUMPI PUSH1 0x20 MUL DUP3 ADD SWAP2 SWAP1 PUSH0 MSTORE PUSH1 0x20 PUSH0 KECCAK256 SWAP1 JUMPDEST DUP2 SLOAD DUP2 MSTORE PUSH1 0x20 ADD SWAP1 PUSH1 0x1 ADD SWAP1 DUP1 DUP4 GT PUSH2 0x16A2 JUMPI JUMPDEST POP POP POP POP POP SWAP1 POP SWAP2 SWAP1 POP JUMP JUMPDEST PUSH0 PUSH1 0x5 PUSH0 DUP5 PUSH20 0xFFFFFFFFFFFFFFFFFFFFFFFFFFFFFFFFFFFFFFFF AND PUSH20 0xFFFFFFFFFFFFFFFFFFFFFFFFFFFFFFFFFFFFFFFF AND DUP2 MSTORE PUSH1 0x20 ADD SWAP1 DUP2 MSTORE PUSH1 0x20 ADD PUSH0 KECCAK256 PUSH0 DUP4 PUSH20 0xFFFFFFFFFFFFFFFFFFFFFFFFFFFFFFFFFFFFFFFF AND PUSH20 0xFFFFFFFFFFFFFFFFFFFFFFFFFFFFFFFFFFFFFFFF AND DUP2 MSTORE PUSH1 0x20 ADD SWAP1 DUP2 MSTORE PUSH1 0x20 ADD PUSH0 KECCAK256 PUSH0 SWAP1 SLOAD SWAP1 PUSH2 0x100 EXP SWAP1 DIV PUSH1 0xFF AND SWAP1 POP SWAP3 SWAP2 POP POP JUMP JUMPDEST PUSH0 DUP1 PUSH1 0x8 PUSH0 DUP5 DUP2 MSTORE PUSH1 0x20 ADD SWAP1 DUP2 MSTORE PUSH1 0x20 ADD PUSH0 KECCAK256 PUSH1 0x1 ADD SLOAD SWAP1 POP DUP1 TIMESTAMP LT PUSH2 0x1779 JUMPI PUSH0 SWAP2 POP POP PUSH2 0x1789 JUMP JUMPDEST TIMESTAMP DUP2 PUSH2 0x1785 SWAP2 SWAP1 PUSH2 0x462C JUMP JUMPDEST SWAP2 POP POP JUMPDEST SWAP2 SWAP1 POP JUMP JUMPDEST PUSH2 0x1796 PUSH2 0x1E7C JUMP JUMPDEST PUSH0 PUSH20 0xFFFFFFFFFFFFFFFFFFFFFFFFFFFFFFFFFFFFFFFF AND DUP2 PUSH20 0xFFFFFFFFFFFFFFFFFFFFFFFFFFFFFFFFFFFFFFFF AND SUB PUSH2 0x1806 JUMPI PUSH0 PUSH1 0x40 MLOAD PUSH32 0x1E4FBDF700000000000000000000000000000000000000000000000000000000 DUP2 MSTORE PUSH1 0x4 ADD PUSH2 0x17FD SWAP2 SWAP1 PUSH2 0x3049 JUMP JUMPDEST PUSH1 0x40 MLOAD DUP1 SWAP2 SUB SWAP1 REVERT JUMPDEST PUSH2 0x180F DUP2 PUSH2 0x1F03 JUMP JUMPDEST POP JUMP JUMPDEST PUSH0 PUSH32 0x1FFC9A700000000000000000000000000000000000000000000000000000000 PUSH28 0xFFFFFFFFFFFFFFFFFFFFFFFFFFFFFFFFFFFFFFFFFFFFFFFFFFFFFFFF NOT AND DUP3 PUSH28 0xFFFFFFFFFFFFFFFFFFFFFFFFFFFFFFFFFFFFFFFFFFFFFFFFFFFFFFFF NOT AND EQ SWAP1 POP SWAP2 SWAP1 POP JUMP JUMPDEST PUSH0 DUP1 PUSH2 0x1886 DUP4 PUSH2 0x2670 JUMP JUMPDEST SWAP1 POP PUSH0 PUSH20 0xFFFFFFFFFFFFFFFFFFFFFFFFFFFFFFFFFFFFFFFF AND DUP2 PUSH20 0xFFFFFFFFFFFFFFFFFFFFFFFFFFFFFFFFFFFFFFFF AND SUB PUSH2 0x18F8 JUMPI DUP3 PUSH1 0x40 MLOAD PUSH32 0x7E27328900000000000000000000000000000000000000000000000000000000 DUP2 MSTORE PUSH1 0x4 ADD PUSH2 0x18EF SWAP2 SWAP1 PUSH2 0x328D JUMP JUMPDEST PUSH1 0x40 MLOAD DUP1 SWAP2 SUB SWAP1 REVERT JUMPDEST DUP1 SWAP2 POP POP SWAP2 SWAP1 POP JUMP JUMPDEST PUSH0 PUSH1 0x4 PUSH0 DUP4 DUP2 MSTORE PUSH1 0x20 ADD SWAP1 DUP2 MSTORE PUSH1 0x20 ADD PUSH0 KECCAK256 PUSH0 SWAP1 SLOAD SWAP1 PUSH2 0x100 EXP SWAP1 DIV PUSH20 0xFFFFFFFFFFFFFFFFFFFFFFFFFFFFFFFFFFFFFFFF AND SWAP1 POP SWAP2 SWAP1 POP JUMP JUMPDEST PUSH0 CALLER SWAP1 POP SWAP1 JUMP JUMPDEST PUSH2 0x194E DUP4 DUP4 DUP4 PUSH1 0x1 PUSH2 0x26A9 JUMP JUMPDEST POP POP POP JUMP JUMPDEST PUSH0 DUP1 PUSH1 0x7 PUSH0 DUP2 SLOAD DUP1 SWAP3 SWAP2 SWAP1 PUSH2 0x1967 SWAP1 PUSH2 0x465F JUMP JUMPDEST SWAP2 SWAP1 POP SSTORE SWAP1 POP PUSH0 PUSH2 0x1977 DUP7 PUSH2 0x2868 JUMP JUMPDEST SWAP1 POP PUSH1 0x40 MLOAD DUP1 PUSH1 0xE0 ADD PUSH1 0x40 MSTORE DUP1 DUP9 DUP2 MSTORE PUSH1 0x20 ADD DUP8 DUP2 MSTORE PUSH1 0x20 ADD CALLER PUSH20 0xFFFFFFFFFFFFFFFFFFFFFFFFFFFFFFFFFFFFFFFF AND DUP2 MSTORE PUSH1 0x20 ADD DUP7 PUSH20 0xFFFFFFFFFFFFFFFFFFFFFFFFFFFFFFFFFFFFFFFF AND DUP2 MSTORE PUSH1 0x20 ADD DUP3 PUSH1 0x2 DUP2 GT ISZERO PUSH2 0x19DB JUMPI PUSH2 0x19DA PUSH2 0x32F6 JUMP JUMPDEST JUMPDEST DUP2 MSTORE PUSH1 0x20 ADD PUSH0 PUSH1 0x2 DUP2 GT ISZERO PUSH2 0x19F3 JUMPI PUSH2 0x19F2 PUSH2 0x32F6 JUMP JUMPDEST JUMPDEST DUP2 MSTORE PUSH1 0x20 ADD DUP6 DUP2 MSTORE POP PUSH1 0x8 PUSH0 DUP5 DUP2 MSTORE PUSH1 0x20 ADD SWAP1 DUP2 MSTORE PUSH1 0x20 ADD PUSH0 KECCAK256 PUSH0 DUP3 ADD MLOAD DUP2 PUSH0 ADD SWAP1 DUP2 PUSH2 0x1A20 SWAP2 SWAP1 PUSH2 0x4843 JUMP JUMPDEST POP PUSH1 0x20 DUP3 ADD MLOAD DUP2 PUSH1 0x1 ADD SSTORE PUSH1 0x40 DUP3 ADD MLOAD DUP2 PUSH1 0x2 ADD PUSH0 PUSH2 0x100 EXP DUP2 SLOAD DUP2 PUSH20 0xFFFFFFFFFFFFFFFFFFFFFFFFFFFFFFFFFFFFFFFF MUL NOT AND SWAP1 DUP4 PUSH20 0xFFFFFFFFFFFFFFFFFFFFFFFFFFFFFFFFFFFFFFFF AND MUL OR SWAP1 SSTORE POP PUSH1 0x60 DUP3 ADD MLOAD DUP2 PUSH1 0x3 ADD PUSH0 PUSH2 0x100 EXP DUP2 SLOAD DUP2 PUSH20 0xFFFFFFFFFFFFFFFFFFFFFFFFFFFFFFFFFFFFFFFF MUL NOT AND SWAP1 DUP4 PUSH20 0xFFFFFFFFFFFFFFFFFFFFFFFFFFFFFFFFFFFFFFFF AND MUL OR SWAP1 SSTORE POP PUSH1 0x80 DUP3 ADD MLOAD DUP2 PUSH1 0x3 ADD PUSH1 0x14 PUSH2 0x100 EXP DUP2 SLOAD DUP2 PUSH1 0xFF MUL NOT AND SWAP1 DUP4 PUSH1 0x2 DUP2 GT ISZERO PUSH2 0x1AE2 JUMPI PUSH2 0x1AE1 PUSH2 0x32F6 JUMP JUMPDEST JUMPDEST MUL OR SWAP1 SSTORE POP PUSH1 0xA0 DUP3 ADD MLOAD DUP2 PUSH1 0x3 ADD PUSH1 0x15 PUSH2 0x100 EXP DUP2 SLOAD DUP2 PUSH1 0xFF MUL NOT AND SWAP1 DUP4 PUSH1 0x2 DUP2 GT ISZERO PUSH2 0x1B12 JUMPI PUSH2 0x1B11 PUSH2 0x32F6 JUMP JUMPDEST JUMPDEST MUL OR SWAP1 SSTORE POP PUSH1 0xC0 DUP3 ADD MLOAD DUP2 PUSH1 0x4 ADD SWAP1 DUP2 PUSH2 0x1B2C SWAP2 SWAP1 PUSH2 0x4843 JUMP JUMPDEST POP SWAP1 POP POP PUSH1 0x9 PUSH0 CALLER PUSH20 0xFFFFFFFFFFFFFFFFFFFFFFFFFFFFFFFFFFFFFFFF AND PUSH20 0xFFFFFFFFFFFFFFFFFFFFFFFFFFFFFFFFFFFFFFFF AND DUP2 MSTORE PUSH1 0x20 ADD SWAP1 DUP2 MSTORE PUSH1 0x20 ADD PUSH0 KECCAK256 DUP3 SWAP1 DUP1 PUSH1 0x1 DUP2 SLOAD ADD DUP1 DUP3 SSTORE DUP1 SWAP2 POP POP PUSH1 0x1 SWAP1 SUB SWAP1 PUSH0 MSTORE PUSH1 0x20 PUSH0 KECCAK256 ADD PUSH0 SWAP1 SWAP2 SWAP1 SWAP2 SWAP1 SWAP2 POP SSTORE PUSH1 0xA PUSH0 DUP7 PUSH20 0xFFFFFFFFFFFFFFFFFFFFFFFFFFFFFFFFFFFFFFFF AND PUSH20 0xFFFFFFFFFFFFFFFFFFFFFFFFFFFFFFFFFFFFFFFF AND DUP2 MSTORE PUSH1 0x20 ADD SWAP1 DUP2 MSTORE PUSH1 0x20 ADD PUSH0 KECCAK256 DUP3 SWAP1 DUP1 PUSH1 0x1 DUP2 SLOAD ADD DUP1 DUP3 SSTORE DUP1 SWAP2 POP POP PUSH1 0x1 SWAP1 SUB SWAP1 PUSH0 MSTORE PUSH1 0x20 PUSH0 KECCAK256 ADD PUSH0 SWAP1 SWAP2 SWAP1 SWAP2 SWAP1 SWAP2 POP SSTORE PUSH2 0x1BFC DUP6 DUP4 PUSH2 0x28AD JUMP JUMPDEST DUP5 PUSH20 0xFFFFFFFFFFFFFFFFFFFFFFFFFFFFFFFFFFFFFFFF AND CALLER PUSH20 0xFFFFFFFFFFFFFFFFFFFFFFFFFFFFFFFFFFFFFFFF AND DUP4 PUSH32 0xC13E6A6E42D1E0B5B88F38D2CE7493B2EBEC31F10920D92E3208102CD097EFF8 DUP10 DUP6 PUSH1 0x40 MLOAD PUSH2 0x1C5C SWAP3 SWAP2 SWAP1 PUSH2 0x4912 JUMP JUMPDEST PUSH1 0x40 MLOAD DUP1 SWAP2 SUB SWAP1 LOG4 DUP2 SWAP3 POP POP POP SWAP5 SWAP4 POP POP POP POP JUMP JUMPDEST PUSH0 DUP1 PUSH2 0x1C7C DUP5 PUSH2 0x2670 JUMP JUMPDEST SWAP1 POP PUSH0 PUSH20 0xFFFFFFFFFFFFFFFFFFFFFFFFFFFFFFFFFFFFFFFF AND DUP4 PUSH20 0xFFFFFFFFFFFFFFFFFFFFFFFFFFFFFFFFFFFFFFFF AND EQ PUSH2 0x1CBD JUMPI PUSH2 0x1CBC DUP2 DUP5 DUP7 PUSH2 0x28CA JUMP JUMPDEST JUMPDEST PUSH0 PUSH20 0xFFFFFFFFFFFFFFFFFFFFFFFFFFFFFFFFFFFFFFFF AND DUP2 PUSH20 0xFFFFFFFFFFFFFFFFFFFFFFFFFFFFFFFFFFFFFFFF AND EQ PUSH2 0x1D48 JUMPI PUSH2 0x1CFC PUSH0 DUP6 PUSH0 DUP1 PUSH2 0x26A9 JUMP JUMPDEST PUSH1 0x1 PUSH1 0x3 PUSH0 DUP4 PUSH20 0xFFFFFFFFFFFFFFFFFFFFFFFFFFFFFFFFFFFFFFFF AND PUSH20 0xFFFFFFFFFFFFFFFFFFFFFFFFFFFFFFFFFFFFFFFF AND DUP2 MSTORE PUSH1 0x20 ADD SWAP1 DUP2 MSTORE PUSH1 0x20 ADD PUSH0 KECCAK256 PUSH0 DUP3 DUP3 SLOAD SUB SWAP3 POP POP DUP2 SWAP1 SSTORE POP JUMPDEST PUSH0 PUSH20 0xFFFFFFFFFFFFFFFFFFFFFFFFFFFFFFFFFFFFFFFF AND DUP6 PUSH20 0xFFFFFFFFFFFFFFFFFFFFFFFFFFFFFFFFFFFFFFFF AND EQ PUSH2 0x1DC7 JUMPI PUSH1 0x1 PUSH1 0x3 PUSH0 DUP8 PUSH20 0xFFFFFFFFFFFFFFFFFFFFFFFFFFFFFFFFFFFFFFFF AND PUSH20 0xFFFFFFFFFFFFFFFFFFFFFFFFFFFFFFFFFFFFFFFF AND DUP2 MSTORE PUSH1 0x20 ADD SWAP1 DUP2 MSTORE PUSH1 0x20 ADD PUSH0 KECCAK256 PUSH0 DUP3 DUP3 SLOAD ADD SWAP3 POP POP DUP2 SWAP1 SSTORE POP JUMPDEST DUP5 PUSH1 0x2 PUSH0 DUP7 DUP2 MSTORE PUSH1 0x20 ADD SWAP1 DUP2 MSTORE PUSH1 0x20 ADD PUSH0 KECCAK256 PUSH0 PUSH2 0x100 EXP DUP2 SLOAD DUP2 PUSH20 0xFFFFFFFFFFFFFFFFFFFFFFFFFFFFFFFFFFFFFFFF MUL NOT AND SWAP1 DUP4 PUSH20 0xFFFFFFFFFFFFFFFFFFFFFFFFFFFFFFFFFFFFFFFF AND MUL OR SWAP1 SSTORE POP DUP4 DUP6 PUSH20 0xFFFFFFFFFFFFFFFFFFFFFFFFFFFFFFFFFFFFFFFF AND DUP3 PUSH20 0xFFFFFFFFFFFFFFFFFFFFFFFFFFFFFFFFFFFFFFFF AND PUSH32 0xDDF252AD1BE2C89B69C2B068FC378DAA952BA7F163C4A11628F55A4DF523B3EF PUSH1 0x40 MLOAD PUSH1 0x40 MLOAD DUP1 SWAP2 SUB SWAP1 LOG4 DUP1 SWAP2 POP POP SWAP4 SWAP3 POP POP POP JUMP JUMPDEST PUSH2 0x1E84 PUSH2 0x193A JUMP JUMPDEST PUSH20 0xFFFFFFFFFFFFFFFFFFFFFFFFFFFFFFFFFFFFFFFF AND PUSH2 0x1EA2 PUSH2 0xCBB JUMP JUMPDEST PUSH20 0xFFFFFFFFFFFFFFFFFFFFFFFFFFFFFFFFFFFFFFFF AND EQ PUSH2 0x1F01 JUMPI PUSH2 0x1EC5 PUSH2 0x193A JUMP JUMPDEST PUSH1 0x40 MLOAD PUSH32 0x118CDAA700000000000000000000000000000000000000000000000000000000 DUP2 MSTORE PUSH1 0x4 ADD PUSH2 0x1EF8 SWAP2 SWAP1 PUSH2 0x3049 JUMP JUMPDEST PUSH1 0x40 MLOAD DUP1 SWAP2 SUB SWAP1 REVERT JUMPDEST JUMP JUMPDEST PUSH0 PUSH1 0x6 PUSH0 SWAP1 SLOAD SWAP1 PUSH2 0x100 EXP SWAP1 DIV PUSH20 0xFFFFFFFFFFFFFFFFFFFFFFFFFFFFFFFFFFFFFFFF AND SWAP1 POP DUP2 PUSH1 0x6 PUSH0 PUSH2 0x100 EXP DUP2 SLOAD DUP2 PUSH20 0xFFFFFFFFFFFFFFFFFFFFFFFFFFFFFFFFFFFFFFFF MUL NOT AND SWAP1 DUP4 PUSH20 0xFFFFFFFFFFFFFFFFFFFFFFFFFFFFFFFFFFFFFFFF AND MUL OR SWAP1 SSTORE POP DUP2 PUSH20 0xFFFFFFFFFFFFFFFFFFFFFFFFFFFFFFFFFFFFFFFF AND DUP2 PUSH20 0xFFFFFFFFFFFFFFFFFFFFFFFFFFFFFFFFFFFFFFFF AND PUSH32 0x8BE0079C531659141344CD1FD0A4F28419497F9722A3DAAFE3B4186F6B6457E0 PUSH1 0x40 MLOAD PUSH1 0x40 MLOAD DUP1 SWAP2 SUB SWAP1 LOG3 POP POP JUMP JUMPDEST PUSH0 PUSH20 0xFFFFFFFFFFFFFFFFFFFFFFFFFFFFFFFFFFFFFFFF AND DUP4 PUSH20 0xFFFFFFFFFFFFFFFFFFFFFFFFFFFFFFFFFFFFFFFF AND SUB PUSH2 0x2036 JUMPI PUSH0 PUSH1 0x40 MLOAD PUSH32 0xA9FBF51F00000000000000000000000000000000000000000000000000000000 DUP2 MSTORE PUSH1 0x4 ADD PUSH2 0x202D SWAP2 SWAP1 PUSH2 0x3049 JUMP JUMPDEST PUSH1 0x40 MLOAD DUP1 SWAP2 SUB SWAP1 REVERT JUMPDEST PUSH0 PUSH20 0xFFFFFFFFFFFFFFFFFFFFFFFFFFFFFFFFFFFFFFFF AND DUP3 PUSH20 0xFFFFFFFFFFFFFFFFFFFFFFFFFFFFFFFFFFFFFFFF AND SUB PUSH2 0x20A6 JUMPI DUP2 PUSH1 0x40 MLOAD PUSH32 0x5B08BA1800000000000000000000000000000000000000000000000000000000 DUP2 MSTORE PUSH1 0x4 ADD PUSH2 0x209D SWAP2 SWAP1 PUSH2 0x3049 JUMP JUMPDEST PUSH1 0x40 MLOAD DUP1 SWAP2 SUB SWAP1 REVERT JUMPDEST DUP1 PUSH1 0x5 PUSH0 DUP6 PUSH20 0xFFFFFFFFFFFFFFFFFFFFFFFFFFFFFFFFFFFFFFFF AND PUSH20 0xFFFFFFFFFFFFFFFFFFFFFFFFFFFFFFFFFFFFFFFF AND DUP2 MSTORE PUSH1 0x20 ADD SWAP1 DUP2 MSTORE PUSH1 0x20 ADD PUSH0 KECCAK256 PUSH0 DUP5 PUSH20 0xFFFFFFFFFFFFFFFFFFFFFFFFFFFFFFFFFFFFFFFF AND PUSH20 0xFFFFFFFFFFFFFFFFFFFFFFFFFFFFFFFFFFFFFFFF AND DUP2 MSTORE PUSH1 0x20 ADD SWAP1 DUP2 MSTORE PUSH1 0x20 ADD PUSH0 KECCAK256 PUSH0 PUSH2 0x100 EXP DUP2 SLOAD DUP2 PUSH1 0xFF MUL NOT AND SWAP1 DUP4 ISZERO ISZERO MUL OR SWAP1 SSTORE POP DUP2 PUSH20 0xFFFFFFFFFFFFFFFFFFFFFFFFFFFFFFFFFFFFFFFF AND DUP4 PUSH20 0xFFFFFFFFFFFFFFFFFFFFFFFFFFFFFFFFFFFFFFFF AND PUSH32 0x17307EAB39AB6107E8899845AD3D59BD9653F200F220920489CA2B5937696C31 DUP4 PUSH1 0x40 MLOAD PUSH2 0x2192 SWAP2 SWAP1 PUSH2 0x2EE9 JUMP JUMPDEST PUSH1 0x40 MLOAD DUP1 SWAP2 SUB SWAP1 LOG3 POP POP POP JUMP JUMPDEST PUSH0 DUP4 PUSH20 0xFFFFFFFFFFFFFFFFFFFFFFFFFFFFFFFFFFFFFFFF AND EXTCODESIZE GT ISZERO PUSH2 0x2344 JUMPI DUP3 PUSH20 0xFFFFFFFFFFFFFFFFFFFFFFFFFFFFFFFFFFFFFFFF AND PUSH4 0x150B7A02 DUP7 DUP7 DUP6 DUP6 PUSH1 0x40 MLOAD DUP6 PUSH4 0xFFFFFFFF AND PUSH1 0xE0 SHL DUP2 MSTORE PUSH1 0x4 ADD PUSH2 0x21FD SWAP5 SWAP4 SWAP3 SWAP2 SWAP1 PUSH2 0x498B JUMP JUMPDEST PUSH1 0x20 PUSH1 0x40 MLOAD DUP1 DUP4 SUB DUP2 PUSH0 DUP8 GAS CALL SWAP3 POP POP POP DUP1 ISZERO PUSH2 0x2238 JUMPI POP PUSH1 0x40 MLOAD RETURNDATASIZE PUSH1 0x1F NOT PUSH1 0x1F DUP3 ADD AND DUP3 ADD DUP1 PUSH1 0x40 MSTORE POP DUP2 ADD SWAP1 PUSH2 0x2235 SWAP2 SWAP1 PUSH2 0x49E9 JUMP JUMPDEST PUSH1 0x1 JUMPDEST PUSH2 0x22B9 JUMPI RETURNDATASIZE DUP1 PUSH0 DUP2 EQ PUSH2 0x2266 JUMPI PUSH1 0x40 MLOAD SWAP2 POP PUSH1 0x1F NOT PUSH1 0x3F RETURNDATASIZE ADD AND DUP3 ADD PUSH1 0x40 MSTORE RETURNDATASIZE DUP3 MSTORE RETURNDATASIZE PUSH0 PUSH1 0x20 DUP5 ADD RETURNDATACOPY PUSH2 0x226B JUMP JUMPDEST PUSH1 0x60 SWAP2 POP JUMPDEST POP PUSH0 DUP2 MLOAD SUB PUSH2 0x22B1 JUMPI DUP4 PUSH1 0x40 MLOAD PUSH32 0x64A0AE9200000000000000000000000000000000000000000000000000000000 DUP2 MSTORE PUSH1 0x4 ADD PUSH2 0x22A8 SWAP2 SWAP1 PUSH2 0x3049 JUMP JUMPDEST PUSH1 0x40 MLOAD DUP1 SWAP2 SUB SWAP1 REVERT JUMPDEST DUP1 MLOAD PUSH1 0x20 DUP3 ADD REVERT JUMPDEST PUSH4 0x150B7A02 PUSH1 0xE0 SHL PUSH28 0xFFFFFFFFFFFFFFFFFFFFFFFFFFFFFFFFFFFFFFFFFFFFFFFFFFFFFFFF NOT AND DUP2 PUSH28 0xFFFFFFFFFFFFFFFFFFFFFFFFFFFFFFFFFFFFFFFFFFFFFFFFFFFFFFFF NOT AND EQ PUSH2 0x2342 JUMPI DUP4 PUSH1 0x40 MLOAD PUSH32 0x64A0AE9200000000000000000000000000000000000000000000000000000000 DUP2 MSTORE PUSH1 0x4 ADD PUSH2 0x2339 SWAP2 SWAP1 PUSH2 0x3049 JUMP JUMPDEST PUSH1 0x40 MLOAD DUP1 SWAP2 SUB SWAP1 REVERT JUMPDEST POP JUMPDEST POP POP POP POP POP JUMP JUMPDEST PUSH1 0x60 DUP2 SWAP1 POP SWAP2 SWAP1 POP JUMP JUMPDEST PUSH1 0x60 PUSH0 PUSH1 0x1 PUSH2 0x2363 DUP5 PUSH2 0x298D JUMP JUMPDEST ADD SWAP1 POP PUSH0 DUP2 PUSH8 0xFFFFFFFFFFFFFFFF DUP2 GT ISZERO PUSH2 0x2381 JUMPI PUSH2 0x2380 PUSH2 0x30D2 JUMP JUMPDEST JUMPDEST PUSH1 0x40 MLOAD SWAP1 DUP1 DUP3 MSTORE DUP1 PUSH1 0x1F ADD PUSH1 0x1F NOT AND PUSH1 0x20 ADD DUP3 ADD PUSH1 0x40 MSTORE DUP1 ISZERO PUSH2 0x23B3 JUMPI DUP2 PUSH1 0x20 ADD PUSH1 0x1 DUP3 MUL DUP1 CALLDATASIZE DUP4 CALLDATACOPY DUP1 DUP3 ADD SWAP2 POP POP SWAP1 POP JUMPDEST POP SWAP1 POP PUSH0 DUP3 PUSH1 0x20 DUP4 ADD ADD SWAP1 POP JUMPDEST PUSH1 0x1 ISZERO PUSH2 0x2414 JUMPI DUP1 DUP1 PUSH1 0x1 SWAP1 SUB SWAP2 POP POP PUSH32 0x3031323334353637383961626364656600000000000000000000000000000000 PUSH1 0xA DUP7 MOD BYTE DUP2 MSTORE8 PUSH1 0xA DUP6 DUP2 PUSH2 0x2409 JUMPI PUSH2 0x2408 PUSH2 0x4A14 JUMP JUMPDEST JUMPDEST DIV SWAP5 POP PUSH0 DUP6 SUB PUSH2 0x23C0 JUMPI JUMPDEST DUP2 SWAP4 POP POP POP POP SWAP2 SWAP1 POP JUMP JUMPDEST PUSH1 0x60 PUSH2 0x242B DUP3 PUSH0 PUSH2 0x2ADE JUMP JUMPDEST SWAP1 POP SWAP2 SWAP1 POP JUMP JUMPDEST PUSH1 0x60 PUSH0 DUP4 SWAP1 POP PUSH0 PUSH1 0x2 DUP5 PUSH1 0x2 PUSH2 0x2448 SWAP2 SWAP1 PUSH2 0x4A41 JUMP JUMPDEST PUSH2 0x2452 SWAP2 SWAP1 PUSH2 0x4A82 JUMP JUMPDEST PUSH8 0xFFFFFFFFFFFFFFFF DUP2 GT ISZERO PUSH2 0x246B JUMPI PUSH2 0x246A PUSH2 0x30D2 JUMP JUMPDEST JUMPDEST PUSH1 0x40 MLOAD SWAP1 DUP1 DUP3 MSTORE DUP1 PUSH1 0x1F ADD PUSH1 0x1F NOT AND PUSH1 0x20 ADD DUP3 ADD PUSH1 0x40 MSTORE DUP1 ISZERO PUSH2 0x249D JUMPI DUP2 PUSH1 0x20 ADD PUSH1 0x1 DUP3 MUL DUP1 CALLDATASIZE DUP4 CALLDATACOPY DUP1 DUP3 ADD SWAP2 POP POP SWAP1 POP JUMPDEST POP SWAP1 POP PUSH32 0x3000000000000000000000000000000000000000000000000000000000000000 DUP2 PUSH0 DUP2 MLOAD DUP2 LT PUSH2 0x24D4 JUMPI PUSH2 0x24D3 PUSH2 0x4AB5 JUMP JUMPDEST JUMPDEST PUSH1 0x20 ADD ADD SWAP1 PUSH31 0xFFFFFFFFFFFFFFFFFFFFFFFFFFFFFFFFFFFFFFFFFFFFFFFFFFFFFFFFFFFFFF NOT AND SWAP1 DUP2 PUSH0 BYTE SWAP1 MSTORE8 POP PUSH32 0x7800000000000000000000000000000000000000000000000000000000000000 DUP2 PUSH1 0x1 DUP2 MLOAD DUP2 LT PUSH2 0x2537 JUMPI PUSH2 0x2536 PUSH2 0x4AB5 JUMP JUMPDEST JUMPDEST PUSH1 0x20 ADD ADD SWAP1 PUSH31 0xFFFFFFFFFFFFFFFFFFFFFFFFFFFFFFFFFFFFFFFFFFFFFFFFFFFFFFFFFFFFFF NOT AND SWAP1 DUP2 PUSH0 BYTE SWAP1 MSTORE8 POP PUSH0 PUSH1 0x1 DUP6 PUSH1 0x2 PUSH2 0x2575 SWAP2 SWAP1 PUSH2 0x4A41 JUMP JUMPDEST PUSH2 0x257F SWAP2 SWAP1 PUSH2 0x4A82 JUMP JUMPDEST SWAP1 POP JUMPDEST PUSH1 0x1 DUP2 GT ISZERO PUSH2 0x261E JUMPI PUSH32 0x3031323334353637383961626364656600000000000000000000000000000000 PUSH1 0xF DUP5 AND PUSH1 0x10 DUP2 LT PUSH2 0x25C1 JUMPI PUSH2 0x25C0 PUSH2 0x4AB5 JUMP JUMPDEST JUMPDEST BYTE PUSH1 0xF8 SHL DUP3 DUP3 DUP2 MLOAD DUP2 LT PUSH2 0x25D8 JUMPI PUSH2 0x25D7 PUSH2 0x4AB5 JUMP JUMPDEST JUMPDEST PUSH1 0x20 ADD ADD SWAP1 PUSH31 0xFFFFFFFFFFFFFFFFFFFFFFFFFFFFFFFFFFFFFFFFFFFFFFFFFFFFFFFFFFFFFF NOT AND SWAP1 DUP2 PUSH0 BYTE SWAP1 MSTORE8 POP PUSH1 0x4 DUP4 SWAP1 SHR SWAP3 POP DUP1 PUSH2 0x2617 SWAP1 PUSH2 0x4AE2 JUMP JUMPDEST SWAP1 POP PUSH2 0x2582 JUMP JUMPDEST POP PUSH0 DUP3 EQ PUSH2 0x2665 JUMPI DUP5 DUP5 PUSH1 0x40 MLOAD PUSH32 0xE22E27EB00000000000000000000000000000000000000000000000000000000 DUP2 MSTORE PUSH1 0x4 ADD PUSH2 0x265C SWAP3 SWAP2 SWAP1 PUSH2 0x4B09 JUMP JUMPDEST PUSH1 0x40 MLOAD DUP1 SWAP2 SUB SWAP1 REVERT JUMPDEST DUP1 SWAP3 POP POP POP SWAP3 SWAP2 POP POP JUMP JUMPDEST PUSH0 PUSH1 0x2 PUSH0 DUP4 DUP2 MSTORE PUSH1 0x20 ADD SWAP1 DUP2 MSTORE PUSH1 0x20 ADD PUSH0 KECCAK256 PUSH0 SWAP1 SLOAD SWAP1 PUSH2 0x100 EXP SWAP1 DIV PUSH20 0xFFFFFFFFFFFFFFFFFFFFFFFFFFFFFFFFFFFFFFFF AND SWAP1 POP SWAP2 SWAP1 POP JUMP JUMPDEST DUP1 DUP1 PUSH2 0x26E1 JUMPI POP PUSH0 PUSH20 0xFFFFFFFFFFFFFFFFFFFFFFFFFFFFFFFFFFFFFFFF AND DUP3 PUSH20 0xFFFFFFFFFFFFFFFFFFFFFFFFFFFFFFFFFFFFFFFF AND EQ ISZERO JUMPDEST ISZERO PUSH2 0x2813 JUMPI PUSH0 PUSH2 0x26F0 DUP5 PUSH2 0x187B JUMP JUMPDEST SWAP1 POP PUSH0 PUSH20 0xFFFFFFFFFFFFFFFFFFFFFFFFFFFFFFFFFFFFFFFF AND DUP4 PUSH20 0xFFFFFFFFFFFFFFFFFFFFFFFFFFFFFFFFFFFFFFFF AND EQ ISZERO DUP1 ISZERO PUSH2 0x275A JUMPI POP DUP3 PUSH20 0xFFFFFFFFFFFFFFFFFFFFFFFFFFFFFFFFFFFFFFFF AND DUP2 PUSH20 0xFFFFFFFFFFFFFFFFFFFFFFFFFFFFFFFFFFFFFFFF AND EQ ISZERO JUMPDEST DUP1 ISZERO PUSH2 0x276D JUMPI POP PUSH2 0x276B DUP2 DUP5 PUSH2 0x16C2 JUMP JUMPDEST ISZERO JUMPDEST ISZERO PUSH2 0x27AF JUMPI DUP3 PUSH1 0x40 MLOAD PUSH32 0xA9FBF51F00000000000000000000000000000000000000000000000000000000 DUP2 MSTORE PUSH1 0x4 ADD PUSH2 0x27A6 SWAP2 SWAP1 PUSH2 0x3049 JUMP JUMPDEST PUSH1 0x40 MLOAD DUP1 SWAP2 SUB SWAP1 REVERT JUMPDEST DUP2 ISZERO PUSH2 0x2811 JUMPI DUP4 DUP6 PUSH20 0xFFFFFFFFFFFFFFFFFFFFFFFFFFFFFFFFFFFFFFFF AND DUP3 PUSH20 0xFFFFFFFFFFFFFFFFFFFFFFFFFFFFFFFFFFFFFFFF AND PUSH32 0x8C5BE1E5EBEC7D5BD14F71427D1E84F3DD0314C0F7B2291E5B200AC8C7C3B925 PUSH1 0x40 MLOAD PUSH1 0x40 MLOAD DUP1 SWAP2 SUB SWAP1 LOG4 JUMPDEST POP JUMPDEST DUP4 PUSH1 0x4 PUSH0 DUP6 DUP2 MSTORE PUSH1 0x20 ADD SWAP1 DUP2 MSTORE PUSH1 0x20 ADD PUSH0 KECCAK256 PUSH0 PUSH2 0x100 EXP DUP2 SLOAD DUP2 PUSH20 0xFFFFFFFFFFFFFFFFFFFFFFFFFFFFFFFFFFFFFFFF MUL NOT AND SWAP1 DUP4 PUSH20 0xFFFFFFFFFFFFFFFFFFFFFFFFFFFFFFFFFFFFFFFF AND MUL OR SWAP1 SSTORE POP POP POP POP POP JUMP JUMPDEST PUSH0 DUP1 TIMESTAMP DUP4 PUSH2 0x2876 SWAP2 SWAP1 PUSH2 0x462C JUMP JUMPDEST SWAP1 POP PUSH3 0xED4E00 DUP2 LT ISZERO PUSH2 0x288C JUMPI PUSH0 SWAP2 POP POP PUSH2 0x28A8 JUMP JUMPDEST PUSH4 0x3C26700 DUP2 LT ISZERO PUSH2 0x28A2 JUMPI PUSH1 0x1 SWAP2 POP POP PUSH2 0x28A8 JUMP JUMPDEST PUSH1 0x2 SWAP2 POP POP JUMPDEST SWAP2 SWAP1 POP JUMP JUMPDEST PUSH2 0x28C6 DUP3 DUP3 PUSH1 0x40 MLOAD DUP1 PUSH1 0x20 ADD PUSH1 0x40 MSTORE DUP1 PUSH0 DUP2 MSTORE POP PUSH2 0x2C68 JUMP JUMPDEST POP POP JUMP JUMPDEST PUSH2 0x28D5 DUP4 DUP4 DUP4 PUSH2 0x2C8B JUMP JUMPDEST PUSH2 0x2988 JUMPI PUSH0 PUSH20 0xFFFFFFFFFFFFFFFFFFFFFFFFFFFFFFFFFFFFFFFF AND DUP4 PUSH20 0xFFFFFFFFFFFFFFFFFFFFFFFFFFFFFFFFFFFFFFFF AND SUB PUSH2 0x2949 JUMPI DUP1 PUSH1 0x40 MLOAD PUSH32 0x7E27328900000000000000000000000000000000000000000000000000000000 DUP2 MSTORE PUSH1 0x4 ADD PUSH2 0x2940 SWAP2 SWAP1 PUSH2 0x328D JUMP JUMPDEST PUSH1 0x40 MLOAD DUP1 SWAP2 SUB SWAP1 REVERT JUMPDEST DUP2 DUP2 PUSH1 0x40 MLOAD PUSH32 0x177E802F00000000000000000000000000000000000000000000000000000000 DUP2 MSTORE PUSH1 0x4 ADD PUSH2 0x297F SWAP3 SWAP2 SWAP1 PUSH2 0x4B30 JUMP JUMPDEST PUSH1 0x40 MLOAD DUP1 SWAP2 SUB SWAP1 REVERT JUMPDEST POP POP POP JUMP JUMPDEST PUSH0 DUP1 PUSH0 SWAP1 POP PUSH27 0x184F03E93FF9F4DAA797ED6E38ED64BF6A1F010000000000000000 DUP4 LT PUSH2 0x29E9 JUMPI PUSH27 0x184F03E93FF9F4DAA797ED6E38ED64BF6A1F010000000000000000 DUP4 DUP2 PUSH2 0x29DF JUMPI PUSH2 0x29DE PUSH2 0x4A14 JUMP JUMPDEST JUMPDEST DIV SWAP3 POP PUSH1 0x40 DUP2 ADD SWAP1 POP JUMPDEST PUSH14 0x4EE2D6D415B85ACEF8100000000 DUP4 LT PUSH2 0x2A26 JUMPI PUSH14 0x4EE2D6D415B85ACEF8100000000 DUP4 DUP2 PUSH2 0x2A1C JUMPI PUSH2 0x2A1B PUSH2 0x4A14 JUMP JUMPDEST JUMPDEST DIV SWAP3 POP PUSH1 0x20 DUP2 ADD SWAP1 POP JUMPDEST PUSH7 0x2386F26FC10000 DUP4 LT PUSH2 0x2A55 JUMPI PUSH7 0x2386F26FC10000 DUP4 DUP2 PUSH2 0x2A4B JUMPI PUSH2 0x2A4A PUSH2 0x4A14 JUMP JUMPDEST JUMPDEST DIV SWAP3 POP PUSH1 0x10 DUP2 ADD SWAP1 POP JUMPDEST PUSH4 0x5F5E100 DUP4 LT PUSH2 0x2A7E JUMPI PUSH4 0x5F5E100 DUP4 DUP2 PUSH2 0x2A74 JUMPI PUSH2 0x2A73 PUSH2 0x4A14 JUMP JUMPDEST JUMPDEST DIV SWAP3 POP PUSH1 0x8 DUP2 ADD SWAP1 POP JUMPDEST PUSH2 0x2710 DUP4 LT PUSH2 0x2AA3 JUMPI PUSH2 0x2710 DUP4 DUP2 PUSH2 0x2A99 JUMPI PUSH2 0x2A98 PUSH2 0x4A14 JUMP JUMPDEST JUMPDEST DIV SWAP3 POP PUSH1 0x4 DUP2 ADD SWAP1 POP JUMPDEST PUSH1 0x64 DUP4 LT PUSH2 0x2AC6 JUMPI PUSH1 0x64 DUP4 DUP2 PUSH2 0x2ABC JUMPI PUSH2 0x2ABB PUSH2 0x4A14 JUMP JUMPDEST JUMPDEST DIV SWAP3 POP PUSH1 0x2 DUP2 ADD SWAP1 POP JUMPDEST PUSH1 0xA DUP4 LT PUSH2 0x2AD5 JUMPI PUSH1 0x1 DUP2 ADD SWAP1 POP JUMPDEST DUP1 SWAP2 POP POP SWAP2 SWAP1 POP JUMP JUMPDEST PUSH1 0x60 PUSH0 DUP4 MLOAD SUB PUSH2 0x2AFE JUMPI PUSH1 0x40 MLOAD DUP1 PUSH1 0x20 ADD PUSH1 0x40 MSTORE DUP1 PUSH0 DUP2 MSTORE POP SWAP1 POP PUSH2 0x2C62 JUMP JUMPDEST PUSH0 DUP3 PUSH2 0x2B2F JUMPI PUSH1 0x3 PUSH1 0x2 DUP6 MLOAD PUSH2 0x2B14 SWAP2 SWAP1 PUSH2 0x4A82 JUMP JUMPDEST PUSH2 0x2B1E SWAP2 SWAP1 PUSH2 0x4B57 JUMP JUMPDEST PUSH1 0x4 PUSH2 0x2B2A SWAP2 SWAP1 PUSH2 0x4A41 JUMP JUMPDEST PUSH2 0x2B56 JUMP JUMPDEST PUSH1 0x3 PUSH1 0x2 DUP6 MLOAD PUSH1 0x4 PUSH2 0x2B41 SWAP2 SWAP1 PUSH2 0x4A41 JUMP JUMPDEST PUSH2 0x2B4B SWAP2 SWAP1 PUSH2 0x4A82 JUMP JUMPDEST PUSH2 0x2B55 SWAP2 SWAP1 PUSH2 0x4B57 JUMP JUMPDEST JUMPDEST SWAP1 POP PUSH1 0x40 MLOAD SWAP2 POP PUSH32 0x4142434445464748494A4B4C4D4E4F505152535455565758595A616263646566 PUSH1 0x1F MSTORE PUSH2 0x670 DUP4 MUL PUSH32 0x6768696A6B6C6D6E6F707172737475767778797A303132333435363738392B2F XOR PUSH1 0x3F MSTORE PUSH1 0x20 DUP3 ADD DUP2 DUP2 ADD DUP6 DUP7 MLOAD DUP8 ADD PUSH1 0x20 DUP2 ADD DUP1 MLOAD PUSH0 DUP3 MSTORE JUMPDEST DUP3 DUP5 LT ISZERO PUSH2 0x2C14 JUMPI PUSH1 0x3 DUP5 ADD SWAP4 POP DUP4 MLOAD PUSH1 0x3F DUP2 PUSH1 0x12 SHR AND MLOAD DUP8 MSTORE8 PUSH1 0x1 DUP8 ADD SWAP7 POP PUSH1 0x3F DUP2 PUSH1 0xC SHR AND MLOAD DUP8 MSTORE8 PUSH1 0x1 DUP8 ADD SWAP7 POP PUSH1 0x3F DUP2 PUSH1 0x6 SHR AND MLOAD DUP8 MSTORE8 PUSH1 0x1 DUP8 ADD SWAP7 POP PUSH1 0x3F DUP2 AND MLOAD DUP8 MSTORE8 PUSH1 0x1 DUP8 ADD SWAP7 POP POP PUSH2 0x2BC1 JUMP JUMPDEST DUP1 DUP3 MSTORE DUP9 PUSH2 0x2C53 JUMPI PUSH1 0x3 DUP11 MLOAD MOD PUSH1 0x1 DUP2 EQ PUSH2 0x2C36 JUMPI PUSH1 0x2 DUP2 EQ PUSH2 0x2C49 JUMPI PUSH2 0x2C51 JUMP JUMPDEST PUSH1 0x3D PUSH1 0x1 DUP9 SUB MSTORE8 PUSH1 0x3D PUSH1 0x2 DUP9 SUB MSTORE8 PUSH2 0x2C51 JUMP JUMPDEST PUSH1 0x3D PUSH1 0x1 DUP9 SUB MSTORE8 JUMPDEST POP JUMPDEST DUP7 DUP9 MSTORE DUP5 PUSH1 0x40 MSTORE POP POP POP POP POP POP POP JUMPDEST SWAP3 SWAP2 POP POP JUMP JUMPDEST PUSH2 0x2C72 DUP4 DUP4 PUSH2 0x2D4B JUMP JUMPDEST PUSH2 0x2C86 PUSH2 0x2C7D PUSH2 0x193A JUMP JUMPDEST PUSH0 DUP6 DUP6 DUP6 PUSH2 0x219F JUMP JUMPDEST POP POP POP JUMP JUMPDEST PUSH0 DUP1 PUSH20 0xFFFFFFFFFFFFFFFFFFFFFFFFFFFFFFFFFFFFFFFF AND DUP4 PUSH20 0xFFFFFFFFFFFFFFFFFFFFFFFFFFFFFFFFFFFFFFFF AND EQ ISZERO DUP1 ISZERO PUSH2 0x2D42 JUMPI POP DUP3 PUSH20 0xFFFFFFFFFFFFFFFFFFFFFFFFFFFFFFFFFFFFFFFF AND DUP5 PUSH20 0xFFFFFFFFFFFFFFFFFFFFFFFFFFFFFFFFFFFFFFFF AND EQ DUP1 PUSH2 0x2D03 JUMPI POP PUSH2 0x2D02 DUP5 DUP5 PUSH2 0x16C2 JUMP JUMPDEST JUMPDEST DUP1 PUSH2 0x2D41 JUMPI POP DUP3 PUSH20 0xFFFFFFFFFFFFFFFFFFFFFFFFFFFFFFFFFFFFFFFF AND PUSH2 0x2D29 DUP4 PUSH2 0x1901 JUMP JUMPDEST PUSH20 0xFFFFFFFFFFFFFFFFFFFFFFFFFFFFFFFFFFFFFFFF AND EQ JUMPDEST JUMPDEST SWAP1 POP SWAP4 SWAP3 POP POP POP JUMP JUMPDEST PUSH0 PUSH20 0xFFFFFFFFFFFFFFFFFFFFFFFFFFFFFFFFFFFFFFFF AND DUP3 PUSH20 0xFFFFFFFFFFFFFFFFFFFFFFFFFFFFFFFFFFFFFFFF AND SUB PUSH2 0x2DBB JUMPI PUSH0 PUSH1 0x40 MLOAD PUSH32 0x64A0AE9200000000000000000000000000000000000000000000000000000000 DUP2 MSTORE PUSH1 0x4 ADD PUSH2 0x2DB2 SWAP2 SWAP1 PUSH2 0x3049 JUMP JUMPDEST PUSH1 0x40 MLOAD DUP1 SWAP2 SUB SWAP1 REVERT JUMPDEST PUSH0 PUSH2 0x2DC7 DUP4 DUP4 PUSH0 PUSH2 0x1C71 JUMP JUMPDEST SWAP1 POP PUSH0 PUSH20 0xFFFFFFFFFFFFFFFFFFFFFFFFFFFFFFFFFFFFFFFF AND DUP2 PUSH20 0xFFFFFFFFFFFFFFFFFFFFFFFFFFFFFFFFFFFFFFFF AND EQ PUSH2 0x2E39 JUMPI PUSH0 PUSH1 0x40 MLOAD PUSH32 0x73C6AC6E00000000000000000000000000000000000000000000000000000000 DUP2 MSTORE PUSH1 0x4 ADD PUSH2 0x2E30 SWAP2 SWAP1 PUSH2 0x3049 JUMP JUMPDEST PUSH1 0x40 MLOAD DUP1 SWAP2 SUB SWAP1 REVERT JUMPDEST POP POP POP JUMP JUMPDEST PUSH0 PUSH1 0x40 MLOAD SWAP1 POP SWAP1 JUMP JUMPDEST PUSH0 DUP1 REVERT JUMPDEST PUSH0 DUP1 REVERT JUMPDEST PUSH0 PUSH32 0xFFFFFFFF00000000000000000000000000000000000000000000000000000000 DUP3 AND SWAP1 POP SWAP2 SWAP1 POP JUMP JUMPDEST PUSH2 0x2E83 DUP2 PUSH2 0x2E4F JUMP JUMPDEST DUP2 EQ PUSH2 0x2E8D JUMPI PUSH0 DUP1 REVERT JUMPDEST POP JUMP JUMPDEST PUSH0 DUP2 CALLDATALOAD SWAP1 POP PUSH2 0x2E9E DUP2 PUSH2 0x2E7A JUMP JUMPDEST SWAP3 SWAP2 POP POP JUMP JUMPDEST PUSH0 PUSH1 0x20 DUP3 DUP5 SUB SLT ISZERO PUSH2 0x2EB9 JUMPI PUSH2 0x2EB8 PUSH2 0x2E47 JUMP JUMPDEST JUMPDEST PUSH0 PUSH2 0x2EC6 DUP5 DUP3 DUP6 ADD PUSH2 0x2E90 JUMP JUMPDEST SWAP2 POP POP SWAP3 SWAP2 POP POP JUMP JUMPDEST PUSH0 DUP2 ISZERO ISZERO SWAP1 POP SWAP2 SWAP1 POP JUMP JUMPDEST PUSH2 0x2EE3 DUP2 PUSH2 0x2ECF JUMP JUMPDEST DUP3 MSTORE POP POP JUMP JUMPDEST PUSH0 PUSH1 0x20 DUP3 ADD SWAP1 POP PUSH2 0x2EFC PUSH0 DUP4 ADD DUP5 PUSH2 0x2EDA JUMP JUMPDEST SWAP3 SWAP2 POP POP JUMP JUMPDEST PUSH0 DUP2 MLOAD SWAP1 POP SWAP2 SWAP1 POP JUMP JUMPDEST PUSH0 DUP3 DUP3 MSTORE PUSH1 0x20 DUP3 ADD SWAP1 POP SWAP3 SWAP2 POP POP JUMP JUMPDEST PUSH0 JUMPDEST DUP4 DUP2 LT ISZERO PUSH2 0x2F39 JUMPI DUP1 DUP3 ADD MLOAD DUP2 DUP5 ADD MSTORE PUSH1 0x20 DUP2 ADD SWAP1 POP PUSH2 0x2F1E JUMP JUMPDEST PUSH0 DUP5 DUP5 ADD MSTORE POP POP POP POP JUMP JUMPDEST PUSH0 PUSH1 0x1F NOT PUSH1 0x1F DUP4 ADD AND SWAP1 POP SWAP2 SWAP1 POP JUMP JUMPDEST PUSH0 PUSH2 0x2F5E DUP3 PUSH2 0x2F02 JUMP JUMPDEST PUSH2 0x2F68 DUP2 DUP6 PUSH2 0x2F0C JUMP JUMPDEST SWAP4 POP PUSH2 0x2F78 DUP2 DUP6 PUSH1 0x20 DUP7 ADD PUSH2 0x2F1C JUMP JUMPDEST PUSH2 0x2F81 DUP2 PUSH2 0x2F44 JUMP JUMPDEST DUP5 ADD SWAP2 POP POP SWAP3 SWAP2 POP POP JUMP JUMPDEST PUSH0 PUSH1 0x20 DUP3 ADD SWAP1 POP DUP2 DUP2 SUB PUSH0 DUP4 ADD MSTORE PUSH2 0x2FA4 DUP2 DUP5 PUSH2 0x2F54 JUMP JUMPDEST SWAP1 POP SWAP3 SWAP2 POP POP JUMP JUMPDEST PUSH0 DUP2 SWAP1 POP SWAP2 SWAP1 POP JUMP JUMPDEST PUSH2 0x2FBE DUP2 PUSH2 0x2FAC JUMP JUMPDEST DUP2 EQ PUSH2 0x2FC8 JUMPI PUSH0 DUP1 REVERT JUMPDEST POP JUMP JUMPDEST PUSH0 DUP2 CALLDATALOAD SWAP1 POP PUSH2 0x2FD9 DUP2 PUSH2 0x2FB5 JUMP JUMPDEST SWAP3 SWAP2 POP POP JUMP JUMPDEST PUSH0 PUSH1 0x20 DUP3 DUP5 SUB SLT ISZERO PUSH2 0x2FF4 JUMPI PUSH2 0x2FF3 PUSH2 0x2E47 JUMP JUMPDEST JUMPDEST PUSH0 PUSH2 0x3001 DUP5 DUP3 DUP6 ADD PUSH2 0x2FCB JUMP JUMPDEST SWAP2 POP POP SWAP3 SWAP2 POP POP JUMP JUMPDEST PUSH0 PUSH20 0xFFFFFFFFFFFFFFFFFFFFFFFFFFFFFFFFFFFFFFFF DUP3 AND SWAP1 POP SWAP2 SWAP1 POP JUMP JUMPDEST PUSH0 PUSH2 0x3033 DUP3 PUSH2 0x300A JUMP JUMPDEST SWAP1 POP SWAP2 SWAP1 POP JUMP JUMPDEST PUSH2 0x3043 DUP2 PUSH2 0x3029 JUMP JUMPDEST DUP3 MSTORE POP POP JUMP JUMPDEST PUSH0 PUSH1 0x20 DUP3 ADD SWAP1 POP PUSH2 0x305C PUSH0 DUP4 ADD DUP5 PUSH2 0x303A JUMP JUMPDEST SWAP3 SWAP2 POP POP JUMP JUMPDEST PUSH2 0x306B DUP2 PUSH2 0x3029 JUMP JUMPDEST DUP2 EQ PUSH2 0x3075 JUMPI PUSH0 DUP1 REVERT JUMPDEST POP JUMP JUMPDEST PUSH0 DUP2 CALLDATALOAD SWAP1 POP PUSH2 0x3086 DUP2 PUSH2 0x3062 JUMP JUMPDEST SWAP3 SWAP2 POP POP JUMP JUMPDEST PUSH0 DUP1 PUSH1 0x40 DUP4 DUP6 SUB SLT ISZERO PUSH2 0x30A2 JUMPI PUSH2 0x30A1 PUSH2 0x2E47 JUMP JUMPDEST JUMPDEST PUSH0 PUSH2 0x30AF DUP6 DUP3 DUP7 ADD PUSH2 0x3078 JUMP JUMPDEST SWAP3 POP POP PUSH1 0x20 PUSH2 0x30C0 DUP6 DUP3 DUP7 ADD PUSH2 0x2FCB JUMP JUMPDEST SWAP2 POP POP SWAP3 POP SWAP3 SWAP1 POP JUMP JUMPDEST PUSH0 DUP1 REVERT JUMPDEST PUSH0 DUP1 REVERT JUMPDEST PUSH32 0x4E487B7100000000000000000000000000000000000000000000000000000000 PUSH0 MSTORE PUSH1 0x41 PUSH1 0x4 MSTORE PUSH1 0x24 PUSH0 REVERT JUMPDEST PUSH2 0x3108 DUP3 PUSH2 0x2F44 JUMP JUMPDEST DUP2 ADD DUP2 DUP2 LT PUSH8 0xFFFFFFFFFFFFFFFF DUP3 GT OR ISZERO PUSH2 0x3127 JUMPI PUSH2 0x3126 PUSH2 0x30D2 JUMP JUMPDEST JUMPDEST DUP1 PUSH1 0x40 MSTORE POP POP POP JUMP JUMPDEST PUSH0 PUSH2 0x3139 PUSH2 0x2E3E JUMP JUMPDEST SWAP1 POP PUSH2 0x3145 DUP3 DUP3 PUSH2 0x30FF JUMP JUMPDEST SWAP2 SWAP1 POP JUMP JUMPDEST PUSH0 PUSH8 0xFFFFFFFFFFFFFFFF DUP3 GT ISZERO PUSH2 0x3164 JUMPI PUSH2 0x3163 PUSH2 0x30D2 JUMP JUMPDEST JUMPDEST PUSH2 0x316D DUP3 PUSH2 0x2F44 JUMP JUMPDEST SWAP1 POP PUSH1 0x20 DUP2 ADD SWAP1 POP SWAP2 SWAP1 POP JUMP JUMPDEST DUP3 DUP2 DUP4 CALLDATACOPY PUSH0 DUP4 DUP4 ADD MSTORE POP POP POP JUMP JUMPDEST PUSH0 PUSH2 0x319A PUSH2 0x3195 DUP5 PUSH2 0x314A JUMP JUMPDEST PUSH2 0x3130 JUMP JUMPDEST SWAP1 POP DUP3 DUP2 MSTORE PUSH1 0x20 DUP2 ADD DUP5 DUP5 DUP5 ADD GT ISZERO PUSH2 0x31B6 JUMPI PUSH2 0x31B5 PUSH2 0x30CE JUMP JUMPDEST JUMPDEST PUSH2 0x31C1 DUP5 DUP3 DUP6 PUSH2 0x317A JUMP JUMPDEST POP SWAP4 SWAP3 POP POP POP JUMP JUMPDEST PUSH0 DUP3 PUSH1 0x1F DUP4 ADD SLT PUSH2 0x31DD JUMPI PUSH2 0x31DC PUSH2 0x30CA JUMP JUMPDEST JUMPDEST DUP2 CALLDATALOAD PUSH2 0x31ED DUP5 DUP3 PUSH1 0x20 DUP7 ADD PUSH2 0x3188 JUMP JUMPDEST SWAP2 POP POP SWAP3 SWAP2 POP POP JUMP JUMPDEST PUSH0 DUP1 PUSH0 PUSH1 0x60 DUP5 DUP7 SUB SLT ISZERO PUSH2 0x320D JUMPI PUSH2 0x320C PUSH2 0x2E47 JUMP JUMPDEST JUMPDEST PUSH0 DUP5 ADD CALLDATALOAD PUSH8 0xFFFFFFFFFFFFFFFF DUP2 GT ISZERO PUSH2 0x322A JUMPI PUSH2 0x3229 PUSH2 0x2E4B JUMP JUMPDEST JUMPDEST PUSH2 0x3236 DUP7 DUP3 DUP8 ADD PUSH2 0x31C9 JUMP JUMPDEST SWAP4 POP POP PUSH1 0x20 PUSH2 0x3247 DUP7 DUP3 DUP8 ADD PUSH2 0x2FCB JUMP JUMPDEST SWAP3 POP POP PUSH1 0x40 DUP5 ADD CALLDATALOAD PUSH8 0xFFFFFFFFFFFFFFFF DUP2 GT ISZERO PUSH2 0x3268 JUMPI PUSH2 0x3267 PUSH2 0x2E4B JUMP JUMPDEST JUMPDEST PUSH2 0x3274 DUP7 DUP3 DUP8 ADD PUSH2 0x31C9 JUMP JUMPDEST SWAP2 POP POP SWAP3 POP SWAP3 POP SWAP3 JUMP JUMPDEST PUSH2 0x3287 DUP2 PUSH2 0x2FAC JUMP JUMPDEST DUP3 MSTORE POP POP JUMP JUMPDEST PUSH0 PUSH1 0x20 DUP3 ADD SWAP1 POP PUSH2 0x32A0 PUSH0 DUP4 ADD DUP5 PUSH2 0x327E JUMP JUMPDEST SWAP3 SWAP2 POP POP JUMP JUMPDEST PUSH0 DUP1 PUSH0 PUSH1 0x60 DUP5 DUP7 SUB SLT ISZERO PUSH2 0x32BD JUMPI PUSH2 0x32BC PUSH2 0x2E47 JUMP JUMPDEST JUMPDEST PUSH0 PUSH2 0x32CA DUP7 DUP3 DUP8 ADD PUSH2 0x3078 JUMP JUMPDEST SWAP4 POP POP PUSH1 0x20 PUSH2 0x32DB DUP7 DUP3 DUP8 ADD PUSH2 0x3078 JUMP JUMPDEST SWAP3 POP POP PUSH1 0x40 PUSH2 0x32EC DUP7 DUP3 DUP8 ADD PUSH2 0x2FCB JUMP JUMPDEST SWAP2 POP POP SWAP3 POP SWAP3 POP SWAP3 JUMP JUMPDEST PUSH32 0x4E487B7100000000000000000000000000000000000000000000000000000000 PUSH0 MSTORE PUSH1 0x21 PUSH1 0x4 MSTORE PUSH1 0x24 PUSH0 REVERT JUMPDEST PUSH1 0x3 DUP2 LT PUSH2 0x3334 JUMPI PUSH2 0x3333 PUSH2 0x32F6 JUMP JUMPDEST JUMPDEST POP JUMP JUMPDEST PUSH0 DUP2 SWAP1 POP PUSH2 0x3344 DUP3 PUSH2 0x3323 JUMP JUMPDEST SWAP2 SWAP1 POP JUMP JUMPDEST PUSH0 PUSH2 0x3353 DUP3 PUSH2 0x3337 JUMP JUMPDEST SWAP1 POP SWAP2 SWAP1 POP JUMP JUMPDEST PUSH2 0x3363 DUP2 PUSH2 0x3349 JUMP JUMPDEST DUP3 MSTORE POP POP JUMP JUMPDEST PUSH1 0x3 DUP2 LT PUSH2 0x337A JUMPI PUSH2 0x3379 PUSH2 0x32F6 JUMP JUMPDEST JUMPDEST POP JUMP JUMPDEST PUSH0 DUP2 SWAP1 POP PUSH2 0x338A DUP3 PUSH2 0x3369 JUMP JUMPDEST SWAP2 SWAP1 POP JUMP JUMPDEST PUSH0 PUSH2 0x3399 DUP3 PUSH2 0x337D JUMP JUMPDEST SWAP1 POP SWAP2 SWAP1 POP JUMP JUMPDEST PUSH2 0x33A9 DUP2 PUSH2 0x338F JUMP JUMPDEST DUP3 MSTORE POP POP JUMP JUMPDEST PUSH0 PUSH1 0xE0 DUP3 ADD SWAP1 POP DUP2 DUP2 SUB PUSH0 DUP4 ADD MSTORE PUSH2 0x33C7 DUP2 DUP11 PUSH2 0x2F54 JUMP JUMPDEST SWAP1 POP PUSH2 0x33D6 PUSH1 0x20 DUP4 ADD DUP10 PUSH2 0x327E JUMP JUMPDEST PUSH2 0x33E3 PUSH1 0x40 DUP4 ADD DUP9 PUSH2 0x303A JUMP JUMPDEST PUSH2 0x33F0 PUSH1 0x60 DUP4 ADD DUP8 PUSH2 0x303A JUMP JUMPDEST PUSH2 0x33FD PUSH1 0x80 DUP4 ADD DUP7 PUSH2 0x335A JUMP JUMPDEST PUSH2 0x340A PUSH1 0xA0 DUP4 ADD DUP6 PUSH2 0x33A0 JUMP JUMPDEST DUP2 DUP2 SUB PUSH1 0xC0 DUP4 ADD MSTORE PUSH2 0x341C DUP2 DUP5 PUSH2 0x2F54 JUMP JUMPDEST SWAP1 POP SWAP9 SWAP8 POP POP POP POP POP POP POP POP JUMP JUMPDEST PUSH0 PUSH1 0x20 DUP3 DUP5 SUB SLT ISZERO PUSH2 0x343F JUMPI PUSH2 0x343E PUSH2 0x2E47 JUMP JUMPDEST JUMPDEST PUSH0 PUSH2 0x344C DUP5 DUP3 DUP6 ADD PUSH2 0x3078 JUMP JUMPDEST SWAP2 POP POP SWAP3 SWAP2 POP POP JUMP JUMPDEST PUSH0 DUP2 MLOAD SWAP1 POP SWAP2 SWAP1 POP JUMP JUMPDEST PUSH0 DUP3 DUP3 MSTORE PUSH1 0x20 DUP3 ADD SWAP1 POP SWAP3 SWAP2 POP POP JUMP JUMPDEST PUSH0 DUP2 SWAP1 POP PUSH1 0x20 DUP3 ADD SWAP1 POP SWAP2 SWAP1 POP JUMP JUMPDEST PUSH2 0x3487 DUP2 PUSH2 0x2FAC JUMP JUMPDEST DUP3 MSTORE POP POP JUMP JUMPDEST PUSH0 PUSH2 0x3498 DUP4 DUP4 PUSH2 0x347E JUMP JUMPDEST PUSH1 0x20 DUP4 ADD SWAP1 POP SWAP3 SWAP2 POP POP JUMP JUMPDEST PUSH0 PUSH1 0x20 DUP3 ADD SWAP1 POP SWAP2 SWAP1 POP JUMP JUMPDEST PUSH0 PUSH2 0x34BA DUP3 PUSH2 0x3455 JUMP JUMPDEST PUSH2 0x34C4 DUP2 DUP6 PUSH2 0x345F JUMP JUMPDEST SWAP4 POP PUSH2 0x34CF DUP4 PUSH2 0x346F JUMP JUMPDEST DUP1 PUSH0 JUMPDEST DUP4 DUP2 LT ISZERO PUSH2 0x34FF JUMPI DUP2 MLOAD PUSH2 0x34E6 DUP9 DUP3 PUSH2 0x348D JUMP JUMPDEST SWAP8 POP PUSH2 0x34F1 DUP4 PUSH2 0x34A4 JUMP JUMPDEST SWAP3 POP POP PUSH1 0x1 DUP2 ADD SWAP1 POP PUSH2 0x34D2 JUMP JUMPDEST POP DUP6 SWAP4 POP POP POP POP SWAP3 SWAP2 POP POP JUMP JUMPDEST PUSH0 PUSH1 0x20 DUP3 ADD SWAP1 POP DUP2 DUP2 SUB PUSH0 DUP4 ADD MSTORE PUSH2 0x3524 DUP2 DUP5 PUSH2 0x34B0 JUMP JUMPDEST SWAP1 POP SWAP3 SWAP2 POP POP JUMP JUMPDEST PUSH2 0x3535 DUP2 PUSH2 0x2ECF JUMP JUMPDEST DUP2 EQ PUSH2 0x353F JUMPI PUSH0 DUP1 REVERT JUMPDEST POP JUMP JUMPDEST PUSH0 DUP2 CALLDATALOAD SWAP1 POP PUSH2 0x3550 DUP2 PUSH2 0x352C JUMP JUMPDEST SWAP3 SWAP2 POP POP JUMP JUMPDEST PUSH0 DUP1 PUSH1 0x40 DUP4 DUP6 SUB SLT ISZERO PUSH2 0x356C JUMPI PUSH2 0x356B PUSH2 0x2E47 JUMP JUMPDEST JUMPDEST PUSH0 PUSH2 0x3579 DUP6 DUP3 DUP7 ADD PUSH2 0x3078 JUMP JUMPDEST SWAP3 POP POP PUSH1 0x20 PUSH2 0x358A DUP6 DUP3 DUP7 ADD PUSH2 0x3542 JUMP JUMPDEST SWAP2 POP POP SWAP3 POP SWAP3 SWAP1 POP JUMP JUMPDEST PUSH0 PUSH8 0xFFFFFFFFFFFFFFFF DUP3 GT ISZERO PUSH2 0x35AE JUMPI PUSH2 0x35AD PUSH2 0x30D2 JUMP JUMPDEST JUMPDEST PUSH2 0x35B7 DUP3 PUSH2 0x2F44 JUMP JUMPDEST SWAP1 POP PUSH1 0x20 DUP2 ADD SWAP1 POP SWAP2 SWAP1 POP JUMP JUMPDEST PUSH0 PUSH2 0x35D6 PUSH2 0x35D1 DUP5 PUSH2 0x3594 JUMP JUMPDEST PUSH2 0x3130 JUMP JUMPDEST SWAP1 POP DUP3 DUP2 MSTORE PUSH1 0x20 DUP2 ADD DUP5 DUP5 DUP5 ADD GT ISZERO PUSH2 0x35F2 JUMPI PUSH2 0x35F1 PUSH2 0x30CE JUMP JUMPDEST JUMPDEST PUSH2 0x35FD DUP5 DUP3 DUP6 PUSH2 0x317A JUMP JUMPDEST POP SWAP4 SWAP3 POP POP POP JUMP JUMPDEST PUSH0 DUP3 PUSH1 0x1F DUP4 ADD SLT PUSH2 0x3619 JUMPI PUSH2 0x3618 PUSH2 0x30CA JUMP JUMPDEST JUMPDEST DUP2 CALLDATALOAD PUSH2 0x3629 DUP5 DUP3 PUSH1 0x20 DUP7 ADD PUSH2 0x35C4 JUMP JUMPDEST SWAP2 POP POP SWAP3 SWAP2 POP POP JUMP JUMPDEST PUSH0 DUP1 PUSH0 DUP1 PUSH1 0x80 DUP6 DUP8 SUB SLT ISZERO PUSH2 0x364A JUMPI PUSH2 0x3649 PUSH2 0x2E47 JUMP JUMPDEST JUMPDEST PUSH0 PUSH2 0x3657 DUP8 DUP3 DUP9 ADD PUSH2 0x3078 JUMP JUMPDEST SWAP5 POP POP PUSH1 0x20 PUSH2 0x3668 DUP8 DUP3 DUP9 ADD PUSH2 0x3078 JUMP JUMPDEST SWAP4 POP POP PUSH1 0x40 PUSH2 0x3679 DUP8 DUP3 DUP9 ADD PUSH2 0x2FCB JUMP JUMPDEST SWAP3 POP POP PUSH1 0x60 DUP6 ADD CALLDATALOAD PUSH8 0xFFFFFFFFFFFFFFFF DUP2 GT ISZERO PUSH2 0x369A JUMPI PUSH2 0x3699 PUSH2 0x2E4B JUMP JUMPDEST JUMPDEST PUSH2 0x36A6 DUP8 DUP3 DUP9 ADD PUSH2 0x3605 JUMP JUMPDEST SWAP2 POP POP SWAP3 SWAP6 SWAP2 SWAP5 POP SWAP3 POP JUMP JUMPDEST PUSH0 DUP1 PUSH0 DUP1 PUSH1 0x80 DUP6 DUP8 SUB SLT ISZERO PUSH2 0x36CA JUMPI PUSH2 0x36C9 PUSH2 0x2E47 JUMP JUMPDEST JUMPDEST PUSH0 DUP6 ADD CALLDATALOAD PUSH8 0xFFFFFFFFFFFFFFFF DUP2 GT ISZERO PUSH2 0x36E7 JUMPI PUSH2 0x36E6 PUSH2 0x2E4B JUMP JUMPDEST JUMPDEST PUSH2 0x36F3 DUP8 DUP3 DUP9 ADD PUSH2 0x31C9 JUMP JUMPDEST SWAP5 POP POP PUSH1 0x20 PUSH2 0x3704 DUP8 DUP3 DUP9 ADD PUSH2 0x2FCB JUMP JUMPDEST SWAP4 POP POP PUSH1 0x40 PUSH2 0x3715 DUP8 DUP3 DUP9 ADD PUSH2 0x3078 JUMP JUMPDEST SWAP3 POP POP PUSH1 0x60 DUP6 ADD CALLDATALOAD PUSH8 0xFFFFFFFFFFFFFFFF DUP2 GT ISZERO PUSH2 0x3736 JUMPI PUSH2 0x3735 PUSH2 0x2E4B JUMP JUMPDEST JUMPDEST PUSH2 0x3742 DUP8 DUP3 DUP9 ADD PUSH2 0x31C9 JUMP JUMPDEST SWAP2 POP POP SWAP3 SWAP6 SWAP2 SWAP5 POP SWAP3 POP JUMP JUMPDEST PUSH0 DUP1 PUSH1 0x40 DUP4 DUP6 SUB SLT ISZERO PUSH2 0x3764 JUMPI PUSH2 0x3763 PUSH2 0x2E47 JUMP JUMPDEST JUMPDEST PUSH0 PUSH2 0x3771 DUP6 DUP3 DUP7 ADD PUSH2 0x3078 JUMP JUMPDEST SWAP3 POP POP PUSH1 0x20 PUSH2 0x3782 DUP6 DUP3 DUP7 ADD PUSH2 0x3078 JUMP JUMPDEST SWAP2 POP POP SWAP3 POP SWAP3 SWAP1 POP JUMP JUMPDEST PUSH32 0x4E487B7100000000000000000000000000000000000000000000000000000000 PUSH0 MSTORE PUSH1 0x22 PUSH1 0x4 MSTORE PUSH1 0x24 PUSH0 REVERT JUMPDEST PUSH0 PUSH1 0x2 DUP3 DIV SWAP1 POP PUSH1 0x1 DUP3 AND DUP1 PUSH2 0x37D0 JUMPI PUSH1 0x7F DUP3 AND SWAP2 POP JUMPDEST PUSH1 0x20 DUP3 LT DUP2 SUB PUSH2 0x37E3 JUMPI PUSH2 0x37E2 PUSH2 0x378C JUMP JUMPDEST JUMPDEST POP SWAP2 SWAP1 POP JUMP JUMPDEST PUSH32 0x556E6C6F636B2074696D65206D75737420626520696E20746865206675747572 PUSH0 DUP3 ADD MSTORE PUSH32 0x6500000000000000000000000000000000000000000000000000000000000000 PUSH1 0x20 DUP3 ADD MSTORE POP JUMP JUMPDEST PUSH0 PUSH2 0x3843 PUSH1 0x21 DUP4 PUSH2 0x2F0C JUMP JUMPDEST SWAP2 POP PUSH2 0x384E DUP3 PUSH2 0x37E9 JUMP JUMPDEST PUSH1 0x40 DUP3 ADD SWAP1 POP SWAP2 SWAP1 POP JUMP JUMPDEST PUSH0 PUSH1 0x20 DUP3 ADD SWAP1 POP DUP2 DUP2 SUB PUSH0 DUP4 ADD MSTORE PUSH2 0x3870 DUP2 PUSH2 0x3837 JUMP JUMPDEST SWAP1 POP SWAP2 SWAP1 POP JUMP JUMPDEST PUSH0 PUSH1 0x60 DUP3 ADD SWAP1 POP PUSH2 0x388A PUSH0 DUP4 ADD DUP7 PUSH2 0x303A JUMP JUMPDEST PUSH2 0x3897 PUSH1 0x20 DUP4 ADD DUP6 PUSH2 0x327E JUMP JUMPDEST PUSH2 0x38A4 PUSH1 0x40 DUP4 ADD DUP5 PUSH2 0x303A JUMP JUMPDEST SWAP5 SWAP4 POP POP POP POP JUMP JUMPDEST PUSH32 0x4E6F7420746865206F776E657200000000000000000000000000000000000000 PUSH0 DUP3 ADD MSTORE POP JUMP JUMPDEST PUSH0 PUSH2 0x38E0 PUSH1 0xD DUP4 PUSH2 0x2F0C JUMP JUMPDEST SWAP2 POP PUSH2 0x38EB DUP3 PUSH2 0x38AC JUMP JUMPDEST PUSH1 0x20 DUP3 ADD SWAP1 POP SWAP2 SWAP1 POP JUMP JUMPDEST PUSH0 PUSH1 0x20 DUP3 ADD SWAP1 POP DUP2 DUP2 SUB PUSH0 DUP4 ADD MSTORE PUSH2 0x390D DUP2 PUSH2 0x38D4 JUMP JUMPDEST SWAP1 POP SWAP2 SWAP1 POP JUMP JUMPDEST PUSH32 0x4E6F74207965742074696D6520746F206F70656E000000000000000000000000 PUSH0 DUP3 ADD MSTORE POP JUMP JUMPDEST PUSH0 PUSH2 0x3948 PUSH1 0x14 DUP4 PUSH2 0x2F0C JUMP JUMPDEST SWAP2 POP PUSH2 0x3953 DUP3 PUSH2 0x3914 JUMP JUMPDEST PUSH1 0x20 DUP3 ADD SWAP1 POP SWAP2 SWAP1 POP JUMP JUMPDEST PUSH0 PUSH1 0x20 DUP3 ADD SWAP1 POP DUP2 DUP2 SUB PUSH0 DUP4 ADD MSTORE PUSH2 0x3975 DUP2 PUSH2 0x393C JUMP JUMPDEST SWAP1 POP SWAP2 SWAP1 POP JUMP JUMPDEST PUSH32 0x416C7265616479206F70656E6564000000000000000000000000000000000000 PUSH0 DUP3 ADD MSTORE POP JUMP JUMPDEST PUSH0 PUSH2 0x39B0 PUSH1 0xE DUP4 PUSH2 0x2F0C JUMP JUMPDEST SWAP2 POP PUSH2 0x39BB DUP3 PUSH2 0x397C JUMP JUMPDEST PUSH1 0x20 DUP3 ADD SWAP1 POP SWAP2 SWAP1 POP JUMP JUMPDEST PUSH0 PUSH1 0x20 DUP3 ADD SWAP1 POP DUP2 DUP2 SUB PUSH0 DUP4 ADD MSTORE PUSH2 0x39DD DUP2 PUSH2 0x39A4 JUMP JUMPDEST SWAP1 POP SWAP2 SWAP1 POP JUMP JUMPDEST PUSH32 0x496E76616C696420726563656976657220616464726573730000000000000000 PUSH0 DUP3 ADD MSTORE POP JUMP JUMPDEST PUSH0 PUSH2 0x3A18 PUSH1 0x18 DUP4 PUSH2 0x2F0C JUMP JUMPDEST SWAP2 POP PUSH2 0x3A23 DUP3 PUSH2 0x39E4 JUMP JUMPDEST PUSH1 0x20 DUP3 ADD SWAP1 POP SWAP2 SWAP1 POP JUMP JUMPDEST PUSH0 PUSH1 0x20 DUP3 ADD SWAP1 POP DUP2 DUP2 SUB PUSH0 DUP4 ADD MSTORE PUSH2 0x3A45 DUP2 PUSH2 0x3A0C JUMP JUMPDEST SWAP1 POP SWAP2 SWAP1 POP JUMP JUMPDEST PUSH0 DUP2 SWAP1 POP SWAP3 SWAP2 POP POP JUMP JUMPDEST PUSH32 0x3C73766720786D6C6E733D22687474703A2F2F7777772E77332E6F72672F3230 PUSH0 DUP3 ADD MSTORE PUSH32 0x30302F737667222076696577426F783D223020302034303020343030223E0000 PUSH1 0x20 DUP3 ADD MSTORE POP JUMP JUMPDEST PUSH0 PUSH2 0x3AB0 PUSH1 0x3E DUP4 PUSH2 0x3A4C JUMP JUMPDEST SWAP2 POP PUSH2 0x3ABB DUP3 PUSH2 0x3A56 JUMP JUMPDEST PUSH1 0x3E DUP3 ADD SWAP1 POP SWAP2 SWAP1 POP JUMP JUMPDEST PUSH32 0x3C726563742077696474683D2234303022206865696768743D22343030222066 PUSH0 DUP3 ADD MSTORE PUSH32 0x696C6C3D22000000000000000000000000000000000000000000000000000000 PUSH1 0x20 DUP3 ADD MSTORE POP JUMP JUMPDEST PUSH0 PUSH2 0x3B20 PUSH1 0x25 DUP4 PUSH2 0x3A4C JUMP JUMPDEST SWAP2 POP PUSH2 0x3B2B DUP3 PUSH2 0x3AC6 JUMP JUMPDEST PUSH1 0x25 DUP3 ADD SWAP1 POP SWAP2 SWAP1 POP JUMP JUMPDEST PUSH0 PUSH2 0x3B40 DUP3 PUSH2 0x2F02 JUMP JUMPDEST PUSH2 0x3B4A DUP2 DUP6 PUSH2 0x3A4C JUMP JUMPDEST SWAP4 POP PUSH2 0x3B5A DUP2 DUP6 PUSH1 0x20 DUP7 ADD PUSH2 0x2F1C JUMP JUMPDEST DUP1 DUP5 ADD SWAP2 POP POP SWAP3 SWAP2 POP POP JUMP JUMPDEST PUSH32 0x222F3E0000000000000000000000000000000000000000000000000000000000 PUSH0 DUP3 ADD MSTORE POP JUMP JUMPDEST PUSH0 PUSH2 0x3B9A PUSH1 0x3 DUP4 PUSH2 0x3A4C JUMP JUMPDEST SWAP2 POP PUSH2 0x3BA5 DUP3 PUSH2 0x3B66 JUMP JUMPDEST PUSH1 0x3 DUP3 ADD SWAP1 POP SWAP2 SWAP1 POP JUMP JUMPDEST PUSH32 0x3C7465787420783D223230302220793D223136302220746578742D616E63686F PUSH0 DUP3 ADD MSTORE PUSH32 0x723D226D6964646C652220666F6E742D73697A653D223634222066696C6C3D22 PUSH1 0x20 DUP3 ADD MSTORE PUSH32 0x7768697465223E26233132383232383B3C2F746578743E000000000000000000 PUSH1 0x40 DUP3 ADD MSTORE POP JUMP JUMPDEST PUSH0 PUSH2 0x3C30 PUSH1 0x57 DUP4 PUSH2 0x3A4C JUMP JUMPDEST SWAP2 POP PUSH2 0x3C3B DUP3 PUSH2 0x3BB0 JUMP JUMPDEST PUSH1 0x57 DUP3 ADD SWAP1 POP SWAP2 SWAP1 POP JUMP JUMPDEST PUSH32 0x3C7465787420783D223230302220793D223233302220746578742D616E63686F PUSH0 DUP3 ADD MSTORE PUSH32 0x723D226D6964646C652220666F6E742D66616D696C793D22417269616C222066 PUSH1 0x20 DUP3 ADD MSTORE PUSH32 0x6F6E742D73697A653D223230222066696C6C3D2277686974652220666F6E742D PUSH1 0x40 DUP3 ADD MSTORE PUSH32 0x7765696768743D22626F6C64223E000000000000000000000000000000000000 PUSH1 0x60 DUP3 ADD MSTORE POP JUMP JUMPDEST PUSH0 PUSH2 0x3CEC PUSH1 0x6E DUP4 PUSH2 0x3A4C JUMP JUMPDEST SWAP2 POP PUSH2 0x3CF7 DUP3 PUSH2 0x3C46 JUMP JUMPDEST PUSH1 0x6E DUP3 ADD SWAP1 POP SWAP2 SWAP1 POP JUMP JUMPDEST PUSH32 0x3C2F746578743E00000000000000000000000000000000000000000000000000 PUSH0 DUP3 ADD MSTORE POP JUMP JUMPDEST PUSH0 PUSH2 0x3D36 PUSH1 0x7 DUP4 PUSH2 0x3A4C JUMP JUMPDEST SWAP2 POP PUSH2 0x3D41 DUP3 PUSH2 0x3D02 JUMP JUMPDEST PUSH1 0x7 DUP3 ADD SWAP1 POP SWAP2 SWAP1 POP JUMP JUMPDEST PUSH32 0x3C7465787420783D223230302220793D223236352220746578742D616E63686F PUSH0 DUP3 ADD MSTORE PUSH32 0x723D226D6964646C652220666F6E742D66616D696C793D22417269616C222066 PUSH1 0x20 DUP3 ADD MSTORE PUSH32 0x6F6E742D73697A653D223134222066696C6C3D2272676261283235352C323535 PUSH1 0x40 DUP3 ADD MSTORE PUSH32 0x2C3235352C302E3729223E000000000000000000000000000000000000000000 PUSH1 0x60 DUP3 ADD MSTORE POP JUMP JUMPDEST PUSH0 PUSH2 0x3DF2 PUSH1 0x6B DUP4 PUSH2 0x3A4C JUMP JUMPDEST SWAP2 POP PUSH2 0x3DFD DUP3 PUSH2 0x3D4C JUMP JUMPDEST PUSH1 0x6B DUP3 ADD SWAP1 POP SWAP2 SWAP1 POP JUMP JUMPDEST PUSH32 0x3C7465787420783D223230302220793D223239352220746578742D616E63686F PUSH0 DUP3 ADD MSTORE PUSH32 0x723D226D6964646C652220666F6E742D66616D696C793D22417269616C222066 PUSH1 0x20 DUP3 ADD MSTORE PUSH32 0x6F6E742D73697A653D223132222066696C6C3D2272676261283235352C323535 PUSH1 0x40 DUP3 ADD MSTORE PUSH32 0x2C3235352C302E3529223E000000000000000000000000000000000000000000 PUSH1 0x60 DUP3 ADD MSTORE POP JUMP JUMPDEST PUSH0 PUSH2 0x3EAE PUSH1 0x6B DUP4 PUSH2 0x3A4C JUMP JUMPDEST SWAP2 POP PUSH2 0x3EB9 DUP3 PUSH2 0x3E08 JUMP JUMPDEST PUSH1 0x6B DUP3 ADD SWAP1 POP SWAP2 SWAP1 POP JUMP JUMPDEST PUSH32 0x2054696572202662756C6C3B2023000000000000000000000000000000000000 PUSH0 DUP3 ADD MSTORE POP JUMP JUMPDEST PUSH0 PUSH2 0x3EF8 PUSH1 0xE DUP4 PUSH2 0x3A4C JUMP JUMPDEST SWAP2 POP PUSH2 0x3F03 DUP3 PUSH2 0x3EC4 JUMP JUMPDEST PUSH1 0xE DUP3 ADD SWAP1 POP SWAP2 SWAP1 POP JUMP JUMPDEST PUSH32 0x3C2F7376673E0000000000000000000000000000000000000000000000000000 PUSH0 DUP3 ADD MSTORE POP JUMP JUMPDEST PUSH0 PUSH2 0x3F42 PUSH1 0x6 DUP4 PUSH2 0x3A4C JUMP JUMPDEST SWAP2 POP PUSH2 0x3F4D DUP3 PUSH2 0x3F0E JUMP JUMPDEST PUSH1 0x6 DUP3 ADD SWAP1 POP SWAP2 SWAP1 POP JUMP JUMPDEST PUSH0 PUSH2 0x3F62 DUP3 PUSH2 0x3AA4 JUMP JUMPDEST SWAP2 POP PUSH2 0x3F6D DUP3 PUSH2 0x3B14 JUMP JUMPDEST SWAP2 POP PUSH2 0x3F79 DUP3 DUP9 PUSH2 0x3B36 JUMP JUMPDEST SWAP2 POP PUSH2 0x3F84 DUP3 PUSH2 0x3B8E JUMP JUMPDEST SWAP2 POP PUSH2 0x3F8F DUP3 PUSH2 0x3C24 JUMP JUMPDEST SWAP2 POP PUSH2 0x3F9A DUP3 PUSH2 0x3CE0 JUMP JUMPDEST SWAP2 POP PUSH2 0x3FA6 DUP3 DUP8 PUSH2 0x3B36 JUMP JUMPDEST SWAP2 POP PUSH2 0x3FB1 DUP3 PUSH2 0x3D2A JUMP JUMPDEST SWAP2 POP PUSH2 0x3FBC DUP3 PUSH2 0x3DE6 JUMP JUMPDEST SWAP2 POP PUSH2 0x3FC8 DUP3 DUP7 PUSH2 0x3B36 JUMP JUMPDEST SWAP2 POP PUSH2 0x3FD3 DUP3 PUSH2 0x3D2A JUMP JUMPDEST SWAP2 POP PUSH2 0x3FDE DUP3 PUSH2 0x3EA2 JUMP JUMPDEST SWAP2 POP PUSH2 0x3FEA DUP3 DUP6 PUSH2 0x3B36 JUMP JUMPDEST SWAP2 POP PUSH2 0x3FF5 DUP3 PUSH2 0x3EEC JUMP JUMPDEST SWAP2 POP PUSH2 0x4001 DUP3 DUP5 PUSH2 0x3B36 JUMP JUMPDEST SWAP2 POP PUSH2 0x400C DUP3 PUSH2 0x3D2A JUMP JUMPDEST SWAP2 POP PUSH2 0x4017 DUP3 PUSH2 0x3F36 JUMP JUMPDEST SWAP2 POP DUP2 SWAP1 POP SWAP7 SWAP6 POP POP POP POP POP POP JUMP JUMPDEST PUSH32 0x7B226E616D65223A2243617073756C2023000000000000000000000000000000 PUSH0 DUP3 ADD MSTORE POP JUMP JUMPDEST PUSH0 PUSH2 0x405A PUSH1 0x11 DUP4 PUSH2 0x3A4C JUMP JUMPDEST SWAP2 POP PUSH2 0x4065 DUP3 PUSH2 0x4026 JUMP JUMPDEST PUSH1 0x11 DUP3 ADD SWAP1 POP SWAP2 SWAP1 POP JUMP JUMPDEST PUSH32 0x202D200000000000000000000000000000000000000000000000000000000000 PUSH0 DUP3 ADD MSTORE POP JUMP JUMPDEST PUSH0 PUSH2 0x40A4 PUSH1 0x3 DUP4 PUSH2 0x3A4C JUMP JUMPDEST SWAP2 POP PUSH2 0x40AF DUP3 PUSH2 0x4070 JUMP JUMPDEST PUSH1 0x3 DUP3 ADD SWAP1 POP SWAP2 SWAP1 POP JUMP JUMPDEST PUSH32 0x222C000000000000000000000000000000000000000000000000000000000000 PUSH0 DUP3 ADD MSTORE POP JUMP JUMPDEST PUSH0 PUSH2 0x40EE PUSH1 0x2 DUP4 PUSH2 0x3A4C JUMP JUMPDEST SWAP2 POP PUSH2 0x40F9 DUP3 PUSH2 0x40BA JUMP JUMPDEST PUSH1 0x2 DUP3 ADD SWAP1 POP SWAP2 SWAP1 POP JUMP JUMPDEST PUSH32 0x226465736372697074696F6E223A22412074696D652D6C6F636B6564206D6573 PUSH0 DUP3 ADD MSTORE PUSH32 0x736167652063617073756C65206D696E746564206F6E2043617073756C4D652E PUSH1 0x20 DUP3 ADD MSTORE PUSH32 0x222C000000000000000000000000000000000000000000000000000000000000 PUSH1 0x40 DUP3 ADD MSTORE POP JUMP JUMPDEST PUSH0 PUSH2 0x4184 PUSH1 0x42 DUP4 PUSH2 0x3A4C JUMP JUMPDEST SWAP2 POP PUSH2 0x418F DUP3 PUSH2 0x4104 JUMP JUMPDEST PUSH1 0x42 DUP3 ADD SWAP1 POP SWAP2 SWAP1 POP JUMP JUMPDEST PUSH32 0x22696D616765223A22646174613A696D6167652F7376672B786D6C3B62617365 PUSH0 DUP3 ADD MSTORE PUSH32 0x36342C0000000000000000000000000000000000000000000000000000000000 PUSH1 0x20 DUP3 ADD MSTORE POP JUMP JUMPDEST PUSH0 PUSH2 0x41F4 PUSH1 0x23 DUP4 PUSH2 0x3A4C JUMP JUMPDEST SWAP2 POP PUSH2 0x41FF DUP3 PUSH2 0x419A JUMP JUMPDEST PUSH1 0x23 DUP3 ADD SWAP1 POP SWAP2 SWAP1 POP JUMP JUMPDEST PUSH32 0x2261747472696275746573223A5B000000000000000000000000000000000000 PUSH0 DUP3 ADD MSTORE POP JUMP JUMPDEST PUSH0 PUSH2 0x423E PUSH1 0xE DUP4 PUSH2 0x3A4C JUMP JUMPDEST SWAP2 POP PUSH2 0x4249 DUP3 PUSH2 0x420A JUMP JUMPDEST PUSH1 0xE DUP3 ADD SWAP1 POP SWAP2 SWAP1 POP JUMP JUMPDEST PUSH32 0x7B2274726169745F74797065223A22537461747573222C2276616C7565223A22 PUSH0 DUP3 ADD MSTORE POP JUMP JUMPDEST PUSH0 PUSH2 0x4288 PUSH1 0x20 DUP4 PUSH2 0x3A4C JUMP JUMPDEST SWAP2 POP PUSH2 0x4293 DUP3 PUSH2 0x4254 JUMP JUMPDEST PUSH1 0x20 DUP3 ADD SWAP1 POP SWAP2 SWAP1 POP JUMP JUMPDEST PUSH32 0x227D2C0000000000000000000000000000000000000000000000000000000000 PUSH0 DUP3 ADD MSTORE POP JUMP JUMPDEST PUSH0 PUSH2 0x42D2 PUSH1 0x3 DUP4 PUSH2 0x3A4C JUMP JUMPDEST SWAP2 POP PUSH2 0x42DD DUP3 PUSH2 0x429E JUMP JUMPDEST PUSH1 0x3 DUP3 ADD SWAP1 POP SWAP2 SWAP1 POP JUMP JUMPDEST PUSH32 0x7B2274726169745F74797065223A2254696572222C2276616C7565223A220000 PUSH0 DUP3 ADD MSTORE POP JUMP JUMPDEST PUSH0 PUSH2 0x431C PUSH1 0x1E DUP4 PUSH2 0x3A4C JUMP JUMPDEST SWAP2 POP PUSH2 0x4327 DUP3 PUSH2 0x42E8 JUMP JUMPDEST PUSH1 0x1E DUP3 ADD SWAP1 POP SWAP2 SWAP1 POP JUMP JUMPDEST PUSH32 0x7B2274726169745F74797065223A2253656E646572222C2276616C7565223A22 PUSH0 DUP3 ADD MSTORE POP JUMP JUMPDEST PUSH0 PUSH2 0x4366 PUSH1 0x20 DUP4 PUSH2 0x3A4C JUMP JUMPDEST SWAP2 POP PUSH2 0x4371 DUP3 PUSH2 0x4332 JUMP JUMPDEST PUSH1 0x20 DUP3 ADD SWAP1 POP SWAP2 SWAP1 POP JUMP JUMPDEST PUSH32 0x7B2274726169745F74797065223A22556E6C6F636B2054696D65222C2276616C PUSH0 DUP3 ADD MSTORE PUSH32 0x7565223A00000000000000000000000000000000000000000000000000000000 PUSH1 0x20 DUP3 ADD MSTORE POP JUMP JUMPDEST PUSH0 PUSH2 0x43D6 PUSH1 0x24 DUP4 PUSH2 0x3A4C JUMP JUMPDEST SWAP2 POP PUSH2 0x43E1 DUP3 PUSH2 0x437C JUMP JUMPDEST PUSH1 0x24 DUP3 ADD SWAP1 POP SWAP2 SWAP1 POP JUMP JUMPDEST PUSH32 0x7D00000000000000000000000000000000000000000000000000000000000000 PUSH0 DUP3 ADD MSTORE POP JUMP JUMPDEST PUSH0 PUSH2 0x4420 PUSH1 0x1 DUP4 PUSH2 0x3A4C JUMP JUMPDEST SWAP2 POP PUSH2 0x442B DUP3 PUSH2 0x43EC JUMP JUMPDEST PUSH1 0x1 DUP3 ADD SWAP1 POP SWAP2 SWAP1 POP JUMP JUMPDEST PUSH32 0x5D7D000000000000000000000000000000000000000000000000000000000000 PUSH0 DUP3 ADD MSTORE POP JUMP JUMPDEST PUSH0 PUSH2 0x446A PUSH1 0x2 DUP4 PUSH2 0x3A4C JUMP JUMPDEST SWAP2 POP PUSH2 0x4475 DUP3 PUSH2 0x4436 JUMP JUMPDEST PUSH1 0x2 DUP3 ADD SWAP1 POP SWAP2 SWAP1 POP JUMP JUMPDEST PUSH0 PUSH2 0x448A DUP3 PUSH2 0x404E JUMP JUMPDEST SWAP2 POP PUSH2 0x4496 DUP3 DUP11 PUSH2 0x3B36 JUMP JUMPDEST SWAP2 POP PUSH2 0x44A1 DUP3 PUSH2 0x4098 JUMP JUMPDEST SWAP2 POP PUSH2 0x44AD DUP3 DUP10 PUSH2 0x3B36 JUMP JUMPDEST SWAP2 POP PUSH2 0x44B8 DUP3 PUSH2 0x40E2 JUMP JUMPDEST SWAP2 POP PUSH2 0x44C3 DUP3 PUSH2 0x4178 JUMP JUMPDEST SWAP2 POP PUSH2 0x44CE DUP3 PUSH2 0x41E8 JUMP JUMPDEST SWAP2 POP PUSH2 0x44DA DUP3 DUP9 PUSH2 0x3B36 JUMP JUMPDEST SWAP2 POP PUSH2 0x44E5 DUP3 PUSH2 0x40E2 JUMP JUMPDEST SWAP2 POP PUSH2 0x44F0 DUP3 PUSH2 0x4232 JUMP JUMPDEST SWAP2 POP PUSH2 0x44FB DUP3 PUSH2 0x427C JUMP JUMPDEST SWAP2 POP PUSH2 0x4507 DUP3 DUP8 PUSH2 0x3B36 JUMP JUMPDEST SWAP2 POP PUSH2 0x4512 DUP3 PUSH2 0x42C6 JUMP JUMPDEST SWAP2 POP PUSH2 0x451D DUP3 PUSH2 0x4310 JUMP JUMPDEST SWAP2 POP PUSH2 0x4529 DUP3 DUP7 PUSH2 0x3B36 JUMP JUMPDEST SWAP2 POP PUSH2 0x4534 DUP3 PUSH2 0x42C6 JUMP JUMPDEST SWAP2 POP PUSH2 0x453F DUP3 PUSH2 0x435A JUMP JUMPDEST SWAP2 POP PUSH2 0x454B DUP3 DUP6 PUSH2 0x3B36 JUMP JUMPDEST SWAP2 POP PUSH2 0x4556 DUP3 PUSH2 0x42C6 JUMP JUMPDEST SWAP2 POP PUSH2 0x4561 DUP3 PUSH2 0x43CA JUMP JUMPDEST SWAP2 POP PUSH2 0x456D DUP3 DUP5 PUSH2 0x3B36 JUMP JUMPDEST SWAP2 POP PUSH2 0x4578 DUP3 PUSH2 0x4414 JUMP JUMPDEST SWAP2 POP PUSH2 0x4583 DUP3 PUSH2 0x445E JUMP JUMPDEST SWAP2 POP DUP2 SWAP1 POP SWAP9 SWAP8 POP POP POP POP POP POP POP POP JUMP JUMPDEST PUSH32 0x646174613A6170706C69636174696F6E2F6A736F6E3B6261736536342C000000 PUSH0 DUP3 ADD MSTORE POP JUMP JUMPDEST PUSH0 PUSH2 0x45C8 PUSH1 0x1D DUP4 PUSH2 0x3A4C JUMP JUMPDEST SWAP2 POP PUSH2 0x45D3 DUP3 PUSH2 0x4594 JUMP JUMPDEST PUSH1 0x1D DUP3 ADD SWAP1 POP SWAP2 SWAP1 POP JUMP JUMPDEST PUSH0 PUSH2 0x45E8 DUP3 PUSH2 0x45BC JUMP JUMPDEST SWAP2 POP PUSH2 0x45F4 DUP3 DUP5 PUSH2 0x3B36 JUMP JUMPDEST SWAP2 POP DUP2 SWAP1 POP SWAP3 SWAP2 POP POP JUMP JUMPDEST PUSH32 0x4E487B7100000000000000000000000000000000000000000000000000000000 PUSH0 MSTORE PUSH1 0x11 PUSH1 0x4 MSTORE PUSH1 0x24 PUSH0 REVERT JUMPDEST PUSH0 PUSH2 0x4636 DUP3 PUSH2 0x2FAC JUMP JUMPDEST SWAP2 POP PUSH2 0x4641 DUP4 PUSH2 0x2FAC JUMP JUMPDEST SWAP3 POP DUP3 DUP3 SUB SWAP1 POP DUP2 DUP2 GT ISZERO PUSH2 0x4659 JUMPI PUSH2 0x4658 PUSH2 0x45FF JUMP JUMPDEST JUMPDEST SWAP3 SWAP2 POP POP JUMP JUMPDEST PUSH0 PUSH2 0x4669 DUP3 PUSH2 0x2FAC JUMP JUMPDEST SWAP2 POP PUSH32 0xFFFFFFFFFFFFFFFFFFFFFFFFFFFFFFFFFFFFFFFFFFFFFFFFFFFFFFFFFFFFFFFF DUP3 SUB PUSH2 0x469B JUMPI PUSH2 0x469A PUSH2 0x45FF JUMP JUMPDEST JUMPDEST PUSH1 0x1 DUP3 ADD SWAP1 POP SWAP2 SWAP1 POP JUMP JUMPDEST PUSH0 DUP2 SWAP1 POP DUP2 PUSH0 MSTORE PUSH1 0x20 PUSH0 KECCAK256 SWAP1 POP SWAP2 SWAP1 POP JUMP JUMPDEST PUSH0 PUSH1 0x20 PUSH1 0x1F DUP4 ADD DIV SWAP1 POP SWAP2 SWAP1 POP JUMP JUMPDEST PUSH0 DUP3 DUP3 SHL SWAP1 POP SWAP3 SWAP2 POP POP JUMP JUMPDEST PUSH0 PUSH1 0x8 DUP4 MUL PUSH2 0x4702 PUSH32 0xFFFFFFFFFFFFFFFFFFFFFFFFFFFFFFFFFFFFFFFFFFFFFFFFFFFFFFFFFFFFFFFF DUP3 PUSH2 0x46C7 JUMP JUMPDEST PUSH2 0x470C DUP7 DUP4 PUSH2 0x46C7 JUMP JUMPDEST SWAP6 POP DUP1 NOT DUP5 AND SWAP4 POP DUP1 DUP7 AND DUP5 OR SWAP3 POP POP POP SWAP4 SWAP3 POP POP POP JUMP JUMPDEST PUSH0 DUP2 SWAP1 POP SWAP2 SWAP1 POP JUMP JUMPDEST PUSH0 PUSH2 0x4747 PUSH2 0x4742 PUSH2 0x473D DUP5 PUSH2 0x2FAC JUMP JUMPDEST PUSH2 0x4724 JUMP JUMPDEST PUSH2 0x2FAC JUMP JUMPDEST SWAP1 POP SWAP2 SWAP1 POP JUMP JUMPDEST PUSH0 DUP2 SWAP1 POP SWAP2 SWAP1 POP JUMP JUMPDEST PUSH2 0x4760 DUP4 PUSH2 0x472D JUMP JUMPDEST PUSH2 0x4774 PUSH2 0x476C DUP3 PUSH2 0x474E JUMP JUMPDEST DUP5 DUP5 SLOAD PUSH2 0x46D3 JUMP JUMPDEST DUP3 SSTORE POP POP POP POP JUMP JUMPDEST PUSH0 SWAP1 JUMP JUMPDEST PUSH2 0x4788 PUSH2 0x477C JUMP JUMPDEST PUSH2 0x4793 DUP2 DUP5 DUP5 PUSH2 0x4757 JUMP JUMPDEST POP POP POP JUMP JUMPDEST JUMPDEST DUP2 DUP2 LT ISZERO PUSH2 0x47B6 JUMPI PUSH2 0x47AB PUSH0 DUP3 PUSH2 0x4780 JUMP JUMPDEST PUSH1 0x1 DUP2 ADD SWAP1 POP PUSH2 0x4799 JUMP JUMPDEST POP POP JUMP JUMPDEST PUSH1 0x1F DUP3 GT ISZERO PUSH2 0x47FB JUMPI PUSH2 0x47CC DUP2 PUSH2 0x46A6 JUMP JUMPDEST PUSH2 0x47D5 DUP5 PUSH2 0x46B8 JUMP JUMPDEST DUP2 ADD PUSH1 0x20 DUP6 LT ISZERO PUSH2 0x47E4 JUMPI DUP2 SWAP1 POP JUMPDEST PUSH2 0x47F8 PUSH2 0x47F0 DUP6 PUSH2 0x46B8 JUMP JUMPDEST DUP4 ADD DUP3 PUSH2 0x4798 JUMP JUMPDEST POP POP JUMPDEST POP POP POP JUMP JUMPDEST PUSH0 DUP3 DUP3 SHR SWAP1 POP SWAP3 SWAP2 POP POP JUMP JUMPDEST PUSH0 PUSH2 0x481B PUSH0 NOT DUP5 PUSH1 0x8 MUL PUSH2 0x4800 JUMP JUMPDEST NOT DUP1 DUP4 AND SWAP2 POP POP SWAP3 SWAP2 POP POP JUMP JUMPDEST PUSH0 PUSH2 0x4833 DUP4 DUP4 PUSH2 0x480C JUMP JUMPDEST SWAP2 POP DUP3 PUSH1 0x2 MUL DUP3 OR SWAP1 POP SWAP3 SWAP2 POP POP JUMP JUMPDEST PUSH2 0x484C DUP3 PUSH2 0x2F02 JUMP JUMPDEST PUSH8 0xFFFFFFFFFFFFFFFF DUP2 GT ISZERO PUSH2 0x4865 JUMPI PUSH2 0x4864 PUSH2 0x30D2 JUMP JUMPDEST JUMPDEST PUSH2 0x486F DUP3 SLOAD PUSH2 0x37B9 JUMP JUMPDEST PUSH2 0x487A DUP3 DUP3 DUP6 PUSH2 0x47BA JUMP JUMPDEST PUSH0 PUSH1 0x20 SWAP1 POP PUSH1 0x1F DUP4 GT PUSH1 0x1 DUP2 EQ PUSH2 0x48AB JUMPI PUSH0 DUP5 ISZERO PUSH2 0x4899 JUMPI DUP3 DUP8 ADD MLOAD SWAP1 POP JUMPDEST PUSH2 0x48A3 DUP6 DUP3 PUSH2 0x4828 JUMP JUMPDEST DUP7 SSTORE POP PUSH2 0x490A JUMP JUMPDEST PUSH1 0x1F NOT DUP5 AND PUSH2 0x48B9 DUP7 PUSH2 0x46A6 JUMP JUMPDEST PUSH0 JUMPDEST DUP3 DUP2 LT ISZERO PUSH2 0x48E0 JUMPI DUP5 DUP10 ADD MLOAD DUP3 SSTORE PUSH1 0x1 DUP3 ADD SWAP2 POP PUSH1 0x20 DUP6 ADD SWAP5 POP PUSH1 0x20 DUP2 ADD SWAP1 POP PUSH2 0x48BB JUMP JUMPDEST DUP7 DUP4 LT ISZERO PUSH2 0x48FD JUMPI DUP5 DUP10 ADD MLOAD PUSH2 0x48F9 PUSH1 0x1F DUP10 AND DUP3 PUSH2 0x480C JUMP JUMPDEST DUP4 SSTORE POP JUMPDEST PUSH1 0x1 PUSH1 0x2 DUP9 MUL ADD DUP9 SSTORE POP POP POP JUMPDEST POP POP POP POP POP POP JUMP JUMPDEST PUSH0 PUSH1 0x40 DUP3 ADD SWAP1 POP PUSH2 0x4925 PUSH0 DUP4 ADD DUP6 PUSH2 0x327E JUMP JUMPDEST PUSH2 0x4932 PUSH1 0x20 DUP4 ADD DUP5 PUSH2 0x335A JUMP JUMPDEST SWAP4 SWAP3 POP POP POP JUMP JUMPDEST PUSH0 DUP2 MLOAD SWAP1 POP SWAP2 SWAP1 POP JUMP JUMPDEST PUSH0 DUP3 DUP3 MSTORE PUSH1 0x20 DUP3 ADD SWAP1 POP SWAP3 SWAP2 POP POP JUMP JUMPDEST PUSH0 PUSH2 0x495D DUP3 PUSH2 0x4939 JUMP JUMPDEST PUSH2 0x4967 DUP2 DUP6 PUSH2 0x4943 JUMP JUMPDEST SWAP4 POP PUSH2 0x4977 DUP2 DUP6 PUSH1 0x20 DUP7 ADD PUSH2 0x2F1C JUMP JUMPDEST PUSH2 0x4980 DUP2 PUSH2 0x2F44 JUMP JUMPDEST DUP5 ADD SWAP2 POP POP SWAP3 SWAP2 POP POP JUMP JUMPDEST PUSH0 PUSH1 0x80 DUP3 ADD SWAP1 POP PUSH2 0x499E PUSH0 DUP4 ADD DUP8 PUSH2 0x303A JUMP JUMPDEST PUSH2 0x49AB PUSH1 0x20 DUP4 ADD DUP7 PUSH2 0x303A JUMP JUMPDEST PUSH2 0x49B8 PUSH1 0x40 DUP4 ADD DUP6 PUSH2 0x327E JUMP JUMPDEST DUP2 DUP2 SUB PUSH1 0x60 DUP4 ADD MSTORE PUSH2 0x49CA DUP2 DUP5 PUSH2 0x4953 JUMP JUMPDEST SWAP1 POP SWAP6 SWAP5 POP POP POP POP POP JUMP JUMPDEST PUSH0 DUP2 MLOAD SWAP1 POP PUSH2 0x49E3 DUP2 PUSH2 0x2E7A JUMP JUMPDEST SWAP3 SWAP2 POP POP JUMP JUMPDEST PUSH0 PUSH1 0x20 DUP3 DUP5 SUB SLT ISZERO PUSH2 0x49FE JUMPI PUSH2 0x49FD PUSH2 0x2E47 JUMP JUMPDEST JUMPDEST PUSH0 PUSH2 0x4A0B DUP5 DUP3 DUP6 ADD PUSH2 0x49D5 JUMP JUMPDEST SWAP2 POP POP SWAP3 SWAP2 POP POP JUMP JUMPDEST PUSH32 0x4E487B7100000000000000000000000000000000000000000000000000000000 PUSH0 MSTORE PUSH1 0x12 PUSH1 0x4 MSTORE PUSH1 0x24 PUSH0 REVERT JUMPDEST PUSH0 PUSH2 0x4A4B DUP3 PUSH2 0x2FAC JUMP JUMPDEST SWAP2 POP PUSH2 0x4A56 DUP4 PUSH2 0x2FAC JUMP JUMPDEST SWAP3 POP DUP3 DUP3 MUL PUSH2 0x4A64 DUP2 PUSH2 0x2FAC JUMP JUMPDEST SWAP2 POP DUP3 DUP3 DIV DUP5 EQ DUP4 ISZERO OR PUSH2 0x4A7B JUMPI PUSH2 0x4A7A PUSH2 0x45FF JUMP JUMPDEST JUMPDEST POP SWAP3 SWAP2 POP POP JUMP JUMPDEST PUSH0 PUSH2 0x4A8C DUP3 PUSH2 0x2FAC JUMP JUMPDEST SWAP2 POP PUSH2 0x4A97 DUP4 PUSH2 0x2FAC JUMP JUMPDEST SWAP3 POP DUP3 DUP3 ADD SWAP1 POP DUP1 DUP3 GT ISZERO PUSH2 0x4AAF JUMPI PUSH2 0x4AAE PUSH2 0x45FF JUMP JUMPDEST JUMPDEST SWAP3 SWAP2 POP POP JUMP JUMPDEST PUSH32 0x4E487B7100000000000000000000000000000000000000000000000000000000 PUSH0 MSTORE PUSH1 0x32 PUSH1 0x4 MSTORE PUSH1 0x24 PUSH0 REVERT JUMPDEST PUSH0 PUSH2 0x4AEC DUP3 PUSH2 0x2FAC JUMP JUMPDEST SWAP2 POP PUSH0 DUP3 SUB PUSH2 0x4AFE JUMPI PUSH2 0x4AFD PUSH2 0x45FF JUMP JUMPDEST JUMPDEST PUSH1 0x1 DUP3 SUB SWAP1 POP SWAP2 SWAP1 POP JUMP JUMPDEST PUSH0 PUSH1 0x40 DUP3 ADD SWAP1 POP PUSH2 0x4B1C PUSH0 DUP4 ADD DUP6 PUSH2 0x327E JUMP JUMPDEST PUSH2 0x4B29 PUSH1 0x20 DUP4 ADD DUP5 PUSH2 0x327E JUMP JUMPDEST SWAP4 SWAP3 POP POP POP JUMP JUMPDEST PUSH0 PUSH1 0x40 DUP3 ADD SWAP1 POP PUSH2 0x4B43 PUSH0 DUP4 ADD DUP6 PUSH2 0x303A JUMP JUMPDEST PUSH2 0x4B50 PUSH1 0x20 DUP4 ADD DUP5 PUSH2 0x327E JUMP JUMPDEST SWAP4 SWAP3 POP POP POP JUMP JUMPDEST PUSH0 PUSH2 0x4B61 DUP3 PUSH2 0x2FAC JUMP JUMPDEST SWAP2 POP PUSH2 0x4B6C DUP4 PUSH2 0x2FAC JUMP JUMPDEST SWAP3 POP DUP3 PUSH2 0x4B7C JUMPI PUSH2 0x4B7B PUSH2 0x4A14 JUMP JUMPDEST JUMPDEST DUP3 DUP3 DIV SWAP1 POP SWAP3 SWAP2 POP POP JUMP INVALID LOG2 PUSH5 0x6970667358 0x22 SLT KECCAK256 0xF 0x29 0xCC 0xBF PUSH4 0x7492134C XOR DUP11 SWAP2 ORIGIN ADDMOD 0xB1 PUSH6 0x58FC3B9CBE0C JUMPI SWAP8 0xC0 CALLDATASIZE PC 0xD2 0x2C 0xA7 0xAB 0xD0 PUSH5 0x736F6C6343 STOP ADDMOD XOR STOP CALLER "},"methodIdentifiers":{"approve(address,uint256)":"095ea7b3","balanceOf(address)":"70a08231","capsules(uint256)":"517bbf46","getApproved(uint256)":"081812fc","getReceivedCapsules(address)":"880aad75","getSentCapsules(address)":"e24e3ffb","isApprovedForAll(address,address)":"e985e9c5","mintSelfCapsule(string,uint256,string)":"187bc2cd","mintSendCapsule(string,uint256,address,string)":"c749c9b0","name()":"06fdde03","openCapsule(uint256)":"5c18e55c","owner()":"8da5cb5b","ownerOf(uint256)":"6352211e","renounceOwnership()":"715018a6","safeTransferFrom(address,address,uint256)":"42842e0e","safeTransferFrom(address,address,uint256,bytes)":"b88d4fde","setApprovalForAll(address,bool)":"a22cb465","supportsInterface(bytes4)":"01ffc9a7","symbol()":"95d89b41","timeRemaining(uint256)":"ea3d9020","tokenURI(uint256)":"c87b56dd","transferFrom(address,address,uint256)":"23b872dd","transferOwnership(address)":"f2fde38b"}}}}}